:1000000010308A0087280000FF00030E8301A10042
:100010000A08A0008A010408A2007708A300780853
:10002000A4007908A5007A08A6007B08A70083131E
:1000300083128B1E1D280B193028220884002308E8
:10004000F7002408F8002508F9002608FA00270818
:10005000FB0020088A00210E8300FF0E7F0E09009E
:100060008A110A1265290A108A100A11820720349F
:10007000423441344434453456344934463454349B
:1000800045342034763433342E3431343034003433
:100090000A108A100A1182074B3465346E346E34AC
:1000A00079342034313439342E34313430342E34F0
:1000B000323430343034373400340A108A100A11A4
:1000C00082074F344E344334683461346E346734BD
:1000D000653400340A108A100A1182074F344634FE
:1000E00046344334683461346E34673465340034E4
:1000F0000A108A100A1182074134553454344F349F
:100100004334683461346E346734653400340A1023
:100110008A100A1182075334653474347434693494
:100120006E3467347334203420344334683461349B
:100130006E346734653400340A108A100A1182075D
:100140002034483475346D3469346434693474341B
:10015000793420346C3469346D3469347434203427
:1001600000340A108A100A118207253475342534A8
:10017000633420342D34203464346534663461347F
:1001800075346C3474342B343134303400340A1008
:100190008A100A1182074D3469346E3469346D3423
:1001A00075346D342034723475346E3420347434C4
:1001B00069346D34653400340A108A100A118207DC
:1001C000253475346D3469346E34203469346634C2
:1001D00020344134753474346F3420344F344E3409
:1001E00000340A108A100A11F83E03188A0A8200A5
:1001F0004E346F3474342034723475346E34203499
:1002000069346634203475346E3464346534723441
:1002100000340A148A100A1182075734683465348E
:100220006E3420346134753474346F3420346D345A
:100230006F34643465343A3400340A148A100A1175
:1002400082074E346F342034633468346534633449
:100250006B3420346F346E342034743465346D3430
:10026000703400340A148A100A1182074334683447
:10027000653463346B3420346F346E34203474341A
:1002800065346D34703400340A148A100A11820700
:100290004134553420344F344634463400340A1443
:1002A0008A100A1182074134553420344F344E34B9
:1002B000203400340A148A100A11820720342034B2
:1002C0004F344E342034203400342B08AB0A1E3C0B
:1002D00003189929AB013208B20A053C031D7329A2
:1002E000B2010130A900AC08031D86292A0B86291A
:1002F000B708031D86293508B50A3C3C031D84292F
:100300000130B700A9008529B7018729B5012A0B5B
:1003100096290130B306330B9229831606128312F5
:100320000612952983160616831299298316061636
:100330008312A81428088316870083128718A62919
:100340002F087F3C031CA529AF0AB3292F08023CC4
:100350000318B2292F08803C031DB0298A01002808
:100360000130AE00AF01063081000B118A110A1274
:100370001D284E308400831300080319CC29023055
:10038000F800F701F70BC229F80BC1299730F700E5
:10039000F70BC829800BBF2900344E18D1298711CB
:1003A000D2298715A8112808831687008312CE1832
:1003B000DB290712DC290716281228088316870074
:1003C00083124E19E5298712E6298716A8122808F4
:1003D000831687008312CE19EF290713F029071718
:1003E0002813280883168700831200348316861288
:1003F000831286160630F700F70BFC2900008316DF
:100400008612831286120530CE00B9210034B80E50
:100410003808CE00CD21F621B80E3808CE00CD2107
:10042000F6210034CE01CD21C830CE00B92183168B
:100430000613831206130330CE00CD21F621F621D8
:10044000F6210230CE00CD21F6212C30B800072253
:100450000C30B80007220130B80007220630B8007F
:1004600007220034C00E40080838C100CE00CD215C
:10047000F621C00E4008CE00CD21F62100348316AF
:10048000061383120617CD0E4D08CE00CD21F6219E
:10049000CD0E4D08CE00CD21F62183160613831212
:1004A00006130034C0013222B80138083320B80ADC
:1004B000F700CD003F2210303802031D552A40308E
:1004C000C0003222B80138084820B80AF700CD0031
:1004D0003F2210303802031D632A8A110A16D328DE
:1004E0008E30F7005408F8005308F900FA01F808B4
:1004F000031D842A7908F800F9010830F702F8088A
:10050000031D842AF7018C2A0310F81B8B2AF90D8E
:10051000F80DF703842AF813003483162008031912
:10052000532BAC0024080319532BAC02031C9D2A47
:100530007F30AC070318532BA32A8130AC02031C75
:10054000532B0319532B2C08F700F801F901FA017A
:10055000AB012108AA00AA172208A9002308A800B5
:100560001930AC002708A8020318C62A0130A902D6
:100570000318C62AAA020318C62AAB020318C62A01
:10058000AB0AAA0AA90A2708A807F82A2608A90276
:100590000318E12A0130AA020318E12AAB0203186A
:1005A000E12AAB0AAA0A2608A9072708A807031CFC
:1005B000F82AA90A031DF82AAA0A031DF82AAB0A79
:1005C000F82A25088038AA020318F72A0130AB025E
:1005D0000318F72AAB0A25088038AA072608A907B6
:1005E000031CD52AAA0A031DD52AAB0AD52A7A14D8
:1005F000AC0BFB2A062B0310A80DA90DAA0DAB0D01
:100600000310FA0DF90DF80DAD0DB22A2D1C0E2BAD
:100610000310F80CF90CFA0CAD0C112BF7030319AD
:10062000532BAD1B3A2B0310A80DA90DAA0DAB0D32
:100630002708A8020318262B0130A9020318262B2D
:10064000AA020318262BAB02031C492B2608A90279
:100650000318312B0130AA020318312BAB02031C03
:10066000492B25088038AA0203183A2B0130AB0227
:10067000031C492BFA0A031D492BF90A031D492BB8
:10068000F80A031D492BF70A0319532BF80CF90C30
:10069000FA0C2108AC002508AC06AC1F512BF8174A
:1006A000572BF813572BF701F801F901FA018312C0
:1006B000003473080319D82B8316A4002008031DE7
:1006C000632B8312D82BA4070318712B7F30A4024D
:1006D00003186C2B8312D82B031D702B8312D82B7D
:1006E000772B8130A407031C772B8312D82B240887
:1006F000F700F801F901FA017408A800A8177508B5
:10070000A7007608A6001830A400A501261CA02B7F
:100710002308FA07031C922BF90A031D922BF80AEF
:100720000319A5172208F907031C992BF80A0319C6
:10073000A5172108F500F5177508F8070318A51780
:10074000A50DF80CF90CFA0CA80CA70CA60C0310BC
:10075000A40B852B0130F707031CB02B8312D82B79
:10076000F81BBA2BA80DFA0DF90DF80DF70BBA2BE3
:100770008312D82BA81FCD2BFA0A031DCD2BF90A03
:10078000031DCD2BF80A031DCD2BF80CF90CFA0C28
:10079000F70A031DCD2B8312D82B7408A50021085E
:1007A000A506A51FD52BF817DD2BF813DD2B83121B
:1007B000F701F801F901FA01831683120034803041
:1007C000831CE52B8316A50683128316AA01AB01B1
:1007D0002108A9002508A90620080319D32CA80080
:1007E000F70024080319DC2CA8020319782C031C39
:1007F000362C2508AE00AE172608AD002708AC0041
:10080000AB010310AE0CAD0CAC0CAB0CA80B002C68
:10081000A91F0D2C2A14F02C2A1028102A16A330F8
:1008200084008313052D2A12A91B202C281C2B2C95
:10083000AE0CAD0CAC0CAB0CF70A0319EB2C2B2C4B
:10084000AE1B2E2C0310AB0DAC0DAD0DAE0DF70392
:100850000319EB2C202C2A17982C2A132108A90005
:10086000A91F342CAE17E42CAE13E42C2408A800E6
:10087000F7002008A8022108AE00AE172208AD003C
:100880002308AC00AB010310AE0CAD0CAC0CAB0CF0
:10089000A80B422CA91F4F2CAA14F02CAA10281028
:1008A000AA16A73084008313052DAA12A91B622C57
:1008B000281C6D2CAE0CAD0CAC0CAB0CF70A03195C
:1008C000EB2C6D2CAE1B702C0310AB0DAC0DAD0DD5
:1008D000AE0DF7030319EB2C622CAA17982CAA1360
:1008E0002508A900A91F762CAE17E42CAE13E42C22
:1008F0002508AE00AE172608AD002708AC00A91FDA
:10090000852CAE132A15F02C2A11AB012810A33028
:1009100084008313052DA91BAE2C2108A900281CD7
:10092000982CAE0CAD0CAC0CAB0CF70A0319EB2CED
:10093000AB1FA92CAC0A031DA92CAD0A031DA92CC1
:10094000AE0A031DA92CAE0CAD0CAC0CF70A0319B2
:10095000EB2C2A1B2D2CAA1B6F2CCD2C8030AE0625
:10096000AE1FB62CF02C2508A900C32C2108A90025
:10097000AE08031DC32CAD08031DC32CAC08031D1A
:10098000C32CF701E42CAE1BCD2C0310AB0DAC0D2A
:10099000AD0DAE0DF70BC32CEB2CA91FD12CAE1750
:1009A000E42CAE13E42C2408F7002508AE0026083A
:1009B000AD002708AC00E42C2008F7002108AE00A9
:1009C0002208AD002308AC002E08F8002D08F9001D
:1009D0002C08FA00232DF701F801F901FA01232D63
:1009E000AB01AC09AD09AE09AB09AB0A031DFE2C86
:1009F000AC0A031DFE2CAD0A0319AE0A2A180C2CF2
:100A0000AA184E2C2A19842CB32C0008AC07031CFE
:100A10000F2DAD0A031D0F2DAE0A031928148403F0
:100A20000008AD07031C172DAE0A03192814840310
:100A30000008801F803AAE07031828142A1A132CC6
:100A4000AA1A552C8B2C83120034CD01CC01CB017A
:100A5000CA010030F8001F08C73978049F00213010
:100A6000F700F70B312D1F151F19342D83161E08A3
:100A70008312C4001E08C500C408031D422DC5080A
:100A80000319462D4508033C03184F2D4A08F7006B
:100A90004B08F8004C08F9004D08FA00FC2D4508F9
:100AA000D4004408D30070227708CE007808CF0025
:100AB0007908D0007A08D1008316A3008312790840
:100AC0008316A200831278088316A1008312770888
:100AD0008316A000A701C030A6007F30A500883093
:100AE000A40083128D227708D2007808D3007908F9
:100AF000D4007A08D500F6007908F5007808F400EB
:100B00007708F3008316A301A2012030A1008130F1
:100B1000A000831259237A08C9007908C800780810
:100B2000C7007708C60049088316A3008312480847
:100B30008316A200831247088316A1008312460879
:100B40008316A000A701A6012030A5008130A400D3
:100B500083128D227708CE007808CF007908D00064
:100B60007A08D10083147A088316A30083127908C7
:100B70008316A200831278088316A10083127708D7
:100B80008316A0000A30A700D730A6002330A500A6
:100B90007C30A4008312DF237708D2007808D300CA
:100BA0007908D4007A08D5008316A3008312790847
:100BB0008316A200831278088316A1008312770897
:100BC0008316A0005F30A7002930A6004B30A50097
:100BD0007730A40083128D227A08CD007908CC00EA
:100BE0007808CB007708CA004A08F7004B08F800DD
:100BF0004C08F9004D08FA0000347408FC00831614
:100C00002108FC06FC1F092E03110310F41B03141A
:100C10003C2E7408FC002008FD007308FD02031937
:100C2000172EFC1F3C2E0308013A83003C2E21089E
:100C3000FD007408FD020319232EFC1F3C2E03083F
:100C4000013A83003C2E2208FD007508FD020319BD
:100C50002F2EFC1F3C2E0308013A83003C2E230854
:100C6000FD007608FD0203193B2EFC1F3C2E0308F5
:100C7000013A83003C2E0310831200344D08B63C29
:100C8000CD00FA014E08D100CE170310CE0CCF0CC8
:100C9000D00CFA0CF90CF80CF70CCD0B452ED11F2B
:100CA0005C2EF709F809F909FA09F70A0319F80A95
:100CB0000319F90A0319FA0A8A110A12CB2EF7014D
:100CC000F801F901FA01D501D601D701D80154087C
:100CD00053045204510403199D2E2030D9000310EF
:100CE000CD0DCE0DCF0DD00DD50DD60DD70DD80D08
:100CF00054085802031D862E53085702031D862EE2
:100D000052085602031D862E51085502031C972EC9
:100D10005108D5025208031C520FD6025308031C77
:100D2000530FD7025408031C540FD8020314F70DB5
:100D3000F80DF90DFA0DD90B6F2E55308400831381
:100D400000340408C5004408C7000319C22E430834
:100D5000F6004208F5004108F4004008F30083164D
:100D6000A301A2012030A1008230A00083125923E8
:100D70007A08C3007908C2007808C1007708C0006B
:100D8000C70BA72E4308D0004208CF004108CE0071
:100D90004008CD003E2E7A08C3007908C2007808CA
:100DA000C1007708C000C31FE22EC503C516C009E5
:100DB000C109C209C309C00A0319C10A0319C20A39
:100DC0000319C30A3B30CC009A30CB00CA30CA00AA
:100DD000C9010A30C70044080319C50A4308D000F6
:100DE0004208CF004108CE004008CD004C08D40096
:100DF0004B08D3004A08D2004908D1005F260008FA
:100E0000C000840A0008C100840A0008C200840AE5
:100E10000008C300FD308407F708031D222F440A91
:100E200047020319222F45080319242F0F394702BF
:100E300003191C2F0318542FC51B542F451B242F97
:100E40002030502F2030C505C51E322FC512440852
:100E5000031DC5037708C5002D30CD003F2245088E
:100E6000F700C50144084702031D402F7708C5005D
:100E70002E30CD003F224508F7002030C505003058
:100E80003030C51E502FC5124408031DC503770816
:100E9000C5002D30CD003F224508F700C501303098
:100EA000F7077708CD003F224C08D0004B08CF0051
:100EB0004A08CE004908CD00D401D301D2010A303E
:100EC000D1005F267A08CC007908CB007808CA00E8
:100ED0007708C900C70BEE2E00348E30F700740877
:100EE000F8007308F900FA01F41F7B2FF809F909DB
:100EF000F90A0319F80AF808031D882F7908F80081
:100F0000F9010830F702F808031D882FF701912F27
:100F10000310F81B8F2FF90DF80DF703882FF41F1E
:100F2000F81300343C08F8013B0203189A2F3B08E1
:100F3000F700A62FF7010830BD00BB0DF70D3C08E8
:100F400077020318F700F80DBD0B9D2F00347808C9
:100F50003908BB006430BC0092277708B9007808D4
:100F60003030031DBA2FBA1CC12FBA19C12F3A1A3B
:100F70002030BD2FBA113A123A14F8077808CD0084
:100F80003F223908BB000A30BC0092277708B9001D
:100F900078083030031DD22FBA19D62F3A1CD62F1D
:100FA0003A1A2030F8077808CD003F223030B907D0
:080FB0003908CD003F22003496
:101000000830F8001F08C73978049F002130F70026
:10101000F70B08281F151F190B2883161E088312AB
:10102000C4001E08C5004408CE00CE08031D1A28BF
:101030000130CE00D4014E08D3008A1170228A15E7
:101040008316A301A201A1018930A0007A08A7009C
:101050007908A6007808A5007708A4008A118312F1
:101060008D228A157708D3007808D4007908D50036
:101070007A08D60083147A088316A30083127908AD
:101080008316A200831278088316A10083127708C2
:101090008316A000A701A601A5017F30A4008A1134
:1010A0008312DF238A158316A301E830A2001930CA
:1010B000A1008C30A0007A08A7007908A600780863
:1010C000A5007708A4008A1183128D228A157A0858
:1010D000D2007908D1007808D0007708CF004F08F7
:1010E000F7005008F8005108F9005208FA007A0891
:1010F000C9007908C8007808C7007708C600490801
:10110000D1004808D0004708CF004608CE00D501DE
:10111000D4014830D3008530D200D901D801D7019D
:101120007F30D60051088316A3008312500883161F
:10113000A20083124F088316A10083124E08831663
:10114000A000A7018030A6006D30A5008830A40063
:101150008A1183128D228A157708DA007808DB005D
:101160007908DC007A08DD00F6005C08F5005B0811
:10117000F4005A08F300CD308316A300CC30A2004F
:101180004C30A1007B30A0008A118312FD258A1506
:10119000031CD3285208F7005308F8005408F9003C
:1011A0005508FA00652C51088316A30083125008D5
:1011B0008316A20083124F088316A10083124E08E3
:1011C0008316A000A7018030A6006D30A5008830EE
:1011D000A4008A1183128D228A157708DA00780814
:1011E000DB007908DC007A08DD005D08E1005C08BE
:1011F000E0005B08DF005A08DE006108E5006008D7
:10120000E4005F08E3005E08E2006508F600640899
:10121000F5006308F4006208F3008316A301A2013D
:10122000A1017F30A0008A118312FD258A150319C0
:10123000C02BFA016230840083137A1883177E3042
:101240008000831465088316A30083126408831644
:10125000A200831263088316A1008312620883161A
:10126000A000A701A601A5017F30A4008A11831266
:10127000DF238A157708F3007808F4007908F50071
:101280007A08F600831065088316A30083126408A9
:101290008316A200831263088316A10083126208DA
:1012A0008316A000A701A601A5017F30A4008A1122
:1012B0008312DF238A1576088316A3007508A2001F
:1012C0007408A1007308A0007A08A7007908A60096
:1012D0007808A5007708A4008A1183128D228A1548
:1012E0007A08E5007908E4007808E3007708E2006E
:1012F0006508F6006408F5006308F4006208F3006E
:1013000065088316A300831264088316A200831263
:1013100063088316A100831262088316A0008A1155
:10132000831259238A157A08F1007908F0007808A9
:10133000EF007708EE00BC30F6002430F50067308F
:10134000F4007D30F30071088316A3007008A2003A
:1013500083126F088316A10083126E088316A00003
:101360008A11831259238A157708F3007808F4004C
:101370007908F5007A08F60083107A088316A3002E
:101380007908A2007808A1007708A000E330A70040
:10139000E430A6009030A5008230A4008A118312A8
:1013A000DF238A157A08E9007908E8007808E70061
:1013B0007708E6006908F6006808F5006708F40099
:1013C0006608F30071088316A3007008A200831258
:1013D0006F088316A10083126E088316A0008A117D
:1013E000831259238A157708F3007808F4007908E6
:1013F000F5007A08F60083107A088316A3007908AE
:10140000A2007808A1007708A0001C30A700873050
:10141000A6005730A5008330A4008A118312DF2371
:101420008A157A08E9007908E8007808E700770863
:10143000E6006908F6006808F5006708F400660829
:10144000F30071088316A3007008A20083126F08CE
:101450008316A10083126E088316A0008A118312DE
:1014600059238A157708F3007808F4007908F50005
:101470007A08F60083107A088316A3007908A20080
:101480007808A1007708A000AB30A700E130A600E3
:101490009E30A5008330A4008A118312DF238A15B1
:1014A0007A08E9007908E8007808E7007708E6009C
:1014B000F601F501F4017F30F30071088316A300F3
:1014C0007008A20083126F088316A10083126E08B1
:1014D0008316A0008A11831259238A157708F30016
:1014E0007808F4007908F5007A08F60083107A0885
:1014F0008316A3007908A2007808A1007708A0004D
:10150000B430A7002A30A6008230A500A4008A11BA
:101510008312DF238A157A08ED007908EC00780839
:10152000EB007708EA006D08F6006C08F5006B0820
:10153000F4006A08F30071088316A3007008A20083
:1015400083126F088316A10083126E088316A00011
:101550008A11831259238A157708F3007808F4005A
:101560007908F5007A08F60083107A088316A3003C
:101570007908A2007808A1007708A0008030A700B1
:101580003E30A6000630A5008330A4008A118312E5
:10159000DF238A157A08ED007908EC007808EB0063
:1015A0007708EA006D08F6006C08F5006B08F40097
:1015B0006A08F30071088316A3007008A200831262
:1015C0006F088316A10083126E088316A0008A118B
:1015D000831259238A157708F3007808F4007908F4
:1015E000F5007A08F60083107A088316A3007908BC
:1015F000A2007808A1007708A000AB30A700E13076
:10160000A6009E30A5008230A4008A118312DF2339
:101610008A157A08ED007908EC007808EB00770865
:10162000EA006508F6006408F5006308F400620843
:10163000F30069088316A300831268088316A200CA
:10164000831267088316A100831266088316A00020
:101650008A11831259238A157708F3007808F40059
:101660007908F5007A08F6008316A3007908A2002D
:101670007808A1007708A00083126D088316A700E0
:1016800083126C088316A60083126B088316A500CC
:1016900083126A088316A4008A1183128D228A1588
:1016A0007A08E9007908E8007808E7007708E6009A
:1016B000FA015E30840083137A1883177E300002AB
:1016C000F200F21F762B7208003CF401F300F31BCA
:1016D000F4038A116D278A157708EA007808803AA2
:1016E000EB007908EC007A08ED00862BF401720813
:1016F000F300F31BF4038A116D278A157A08ED00B5
:101700007908EC007808EB007708EA006D08F6002D
:101710006C08F5006B08F4006A08F30018308316B3
:10172000A3007230A2003130A1007E30A0008A11E7
:10173000831259238A15831069088316A300831224
:1017400068088316A200831267088316A10083121B
:1017500066088316A0007A08A7007908A600780812
:10176000A5007708A4008A118312DF238A157A085E
:10177000E9007908E8007808E7007708E600C42B5C
:10178000E901E801E701E6016608F7006708F800EB
:101790006808F9006908FA00B030F6000630F50074
:1017A0002530F4007330F3007A088316A30079081B
:1017B000A2007808A1007708A0008A11831259239B
:1017C0008A157708DB007808DC007908DD007A08E4
:1017D000DE00E0010408DF006010831B601483104A
:1017E0007A088316A300831279088316A200831255
:1017F00078088316A100831277088316A000623050
:10180000A700EB30A6005B30A5007630A4008A115B
:101810008312DF238A155F088400831360188317FF
:101820007A08D9007908D8007808D7007708D60058
:101830008316A301A201A1017F30A00083125908E1
:101840008316A700831258088316A6008312570830
:101850008316A500831256088316A4008A118312EA
:101860008D228A157708DA007808DB007908DC0019
:101870007A08DD0083147A088316A300831279089E
:101880008316A200831278088316A10083127708BA
:101890008316A000A7018030A6000830A50087307D
:1018A000A4008A118312DF238A157A08D5007908EB
:1018B000D4007808D3007708D2005208F700530804
:1018C000F8005408F9005508FA007A08CD007908A4
:1018D000CC007808CB007708CA004A08F7004B080C
:1018E000F8004C08F9004D08FA0000344030C00000
:1018F0008A1132228A152C08FC3E0318072D043E5B
:10190000FC2D4F30CD008A113F228A154E30CD007C
:101910008A113F228A150830B8002030CD008A1184
:101920003F228A15B80B8D2C0230B90039088A1174
:101930005D208A15B90AF700CD008A113F228A1569
:1019400008303902031D962C072D4F30CD008A1127
:101950003F228A154630CD008A113F228A15463033
:10196000CD008A113F228A150730B8002030CD0003
:101970008A113F228A15B80BB62C0330B9003908FA
:101980008A116A208A15B90AF700CD008A113F2210
:101990008A1509303902031DBF2C072DB8013808FC
:1019A0008A1178208A15B80AF700CD008A113F22E3
:1019B0008A1504303802031DCF2C0630B9002030C0
:1019C000CD008A113F228A15B90BDF2C0430BA00F2
:1019D0003A088A1178208A15BA0AF700CD008A11D0
:1019E0003F228A150A303A02031DE82C072DB80160
:1019F00038088A1187208A15B80AF700CD008A11A5
:101A00003F228A1510303802031DF82C072D290BB0
:101A1000F92DA9018A1125258A157A08BB007908B4
:101A2000BA007808B9007708B800C0018A113222DC
:101A30008A153B08F6003A08F5003908F400380822
:101A4000F3008316A301A201A101A0018A11831250
:101A5000FD258A15031D3C2D4F30CD008A113F22F4
:101A60008A152F30CD008A113F228A155230CD00C1
:101A70008A113F228A15502D013084003B08C30093
:101A80003A08C2003908C1003808C0000130C4005B
:101A90008A11A1268A152530CD008A113F228A1588
:101AA0000D30C0008A1132228A1500207A08BF004A
:101AB0007908BE007808BD007708BC003F08F60032
:101AC0003E08F5003D08F4003C08F3008316A3012E
:101AD000A2014830A1008530A0008A118312FD25A3
:101AE0008A15031D832D4F30CD008A113F228A15A0
:101AF0002F30CD008A113F228A155230CD008A1135
:101B00003F228A15962D013084003F08C3003E080D
:101B1000C2003D08C1003C08C000C4018A11A126D2
:101B20008A15DF30CD008A113F228A150630C000A9
:101B30008A1132228A15AC08031DC12DB608031D77
:101B4000B12DC00140088A1144218A15C00AF7004E
:101B5000CD008A113F228A1506304002031DA22DB6
:101B6000C02DC00140088A114F218A15C00AF70014
:101B7000CD008A113F228A1506304002031DB22D86
:101B8000F92D2A0BE12D0130B406340BD72DC001FD
:101B900040088A115A218A15C00AF700CD008A111F
:101BA0003F228A1506304002031DC82DE02D063065
:101BB000C0002030CD008A113F228A15C00BD92DDC
:101BC000F92D4F30CD008A113F228A154630CD00C5
:101BD0008A113F228A154630CD008A113F228A158C
:101BE0000330C0002030CD008A113F228A15C00B7F
:101BF000F22D8A110A161D290A108A140A15820765
:101C0000CE2C812CA52CF72C2E0B0F2E2C08AC0AD9
:101C1000023C03180C2EAC01AE010130AD002C08C3
:101C2000FC3E0318A52F043EA82F2D0B2B2EAD0133
:101C30000130AA0028102808831687008312071095
:101C40000130B8008A1107228A150130A900AE01BF
:101C5000B001AB01A52F2D0B3F2EAD01AA0128101D
:101C6000280883168700831207140130B8008A11F0
:101C700007228A150130A900AE01B001A52F2D0B56
:101C80004D2EAD010130B8008A1107228A150130AE
:101C9000A900AE01B001AB01A52F2D0BA52FAD0101
:101CA0008B120B138B138B1B522E0130B8008A1131
:101CB00007228A15C0018A1132228A15B801380814
:101CC0008A119C208A15B80AF700CD008A113F229C
:101CD0008A1510303802031D5F2E4030C0008A1173
:101CE00032228A15831605168312051A942E39306E
:101CF000B9001B30BA008A11A7278A152530CD00FC
:101D00008A113F228A150430B80038088A11B120A0
:101D10008A15B80AF700CD008A113F228A151130C2
:101D20003802031D852EB22E0630B8002030CD00BB
:101D30008A113F228A15B80B962E2F30B9001B301E
:101D4000BA008A11A7278A152530CD008A113F22B3
:101D50008A150730B9002030CD008A113F228A153C
:101D6000B90BAB2E0C30B800FA30CE008A11B92175
:101D70008A15B80BB42E0130B8008A1107228A15D3
:101D8000C0018A1132228A15B80138088A11C72089
:101D90008A15B80AF700CD008A113F228A15103043
:101DA0003802031DC52E4030C0008A1132228A1528
:101DB0000130B9001B30BA008A11A7278A150230FA
:101DC000B80038088A11DC208A15B80AF700CD005F
:101DD0008A113F228A1510303802031DE12E0C3083
:101DE000B800FA30CE008A11B9218A15B80BF12E4D
:101DF0000130B8008A1107228A15C0018A113222E7
:101E00008A15B80138088A11F1208A15B80AF70036
:101E1000CD008A113F228A1510303802031D022F8F
:101E20004030C0008A1132228A150730B8002030B5
:101E3000CD008A113F228A15B80B172F1630B90032
:101E40001B30BA008A11A7278A15DF30CD008A110E
:101E50003F228A154330CD008A113F228A15053072
:101E6000B9002030CD008A113F228A15B90B312FDD
:101E70000C30B800FA30CE008A11B9218A15B80B9F
:101E80003A2F0130B8008A1107228A15C0018A1141
:101E900032228A15B80138088A1109218A15B80A30
:101EA000F700CD008A113F228A150F303802031D3A
:101EB0004B2F4030C0008A1132228A15281528087D
:101EC0008316870083120719752FB80138088A1105
:101ED0001D218A15B80AF700CD008A113F228A1504
:101EE00010303802031D662F8D2FB80138088A1173
:101EF00032218A15B80AF700CD008A113F228A15CF
:101F00000D303802031D762F0330B9002030CD008C
:101F10008A113F228A15B90B862F0C30B800FA308F
:101F2000CE008A11B9218A15B80B8F2F0130B80065
:101F30008A1107228A150130A900AE01B001AB0158
:101F40008B16C0308B04AC01A52F8A110A162229EA
:101F50000A148A140A1582073F2E152E2B2E4D2E99
:10200000AC08031D84280A128A1500200A168A11BA
:102010007A08BF007908BE007808BD007708BC00C8
:102020000A1225250A167A08BB007908BA00780832
:10203000B9007708B800831605168312051A2728F9
:10204000C301C2016430C1008430C0002D28C30127
:10205000C2013C30C1008430C0004308F600420891
:10206000F5004108F4004008F3003B088316A30084
:1020700083123A088316A200831239088316A1003E
:10208000831238088316A0000A128312FD250A164F
:10209000031C752828152808831687008312071942
:1020A00067283F08F6003E08F5003D08F4003C08AC
:1020B000F3008316A301A2013030A1008330A000F9
:1020C0000A128312FD250A16031C67288428AA0811
:1020D000031D73280130AA00B701281028088316B1
:1020E000870083120710B5018228B70803198228D8
:1020F0002A0B8228AA01B701281028088316870016
:10210000831207142A08B6008A110A1625298401A9
:1021100083131F30830583161F149F141F159F11EF
:10212000FF308312A800A901AA01AB01AC01AD01E7
:10213000AE01AF01B001B101B201B301B401B5010B
:10214000B601B701C830CE000A12B9210A1606300E
:10215000F700F71DB4280730810181308400831314
:102160000008C0390F388000640081308400000806
:10217000C03977048000281028088316870083124E
:102180000710831686118312861183160612831296
:1021900006120A1212220A160130B8000A12072289
:1021A0000A160A12522A0A161430B800FA30CE0063
:1021B0000A12B9210A16B80BD6280130B8000A1243
:1021C00007220A160A1212220A1628152808831650
:1021D000870083129701A8142808831687008312AA
:1021E0009D0183161F109F101F159F1183121F172B
:1021F0009F1783169F1783121F148B16C0308B04F2
:10220000AA01AD01B301B401AE01B001AF01B1014A
:1022100028102808831687008312071483160616D1
:102220000516831228152808831687008312AC012F
:102230000130A9000A128A15762C0A168A110A1290
:0E2240008A15042E0A168A1100281A29630036
:02400E00393F38
:00000001FF
;PIC16F876
