:1000000008308A00812E0000FF00030E8301A1004A
:100010000A08A0008A010408A2007708A300780853
:10002000A4007908A5007A08A6007B08A70083131E
:1000300083128B1E1D280B193028220884002308E8
:10004000F7002408F8002508F9002608FA00270818
:10005000FB0020088A00210E8300FF0E7F0E09009E
:100060008A110A1209290A108A100A1182074234D9
:100070004134443445345634493446345434453498
:100080002034763432342E3433342E343034003449
:100090000A108A100A1182074B3465346E346E34AC
:1000A00079342034313435342E34313430342E34F4
:1000B000323430343034373400340A108A100A11A4
:1000C00082074F344E344334683461346E346734BD
:1000D000653400340A108A100A1182074F344634FE
:1000E00046344334683461346E34673465340034E4
:1000F0000A108A100A1182074134553454344F349F
:100100004334683461346E346734653400340A1023
:100110008A100A1182075334653474347434693494
:100120006E3467347334203420344334683461349B
:100130006E346734653400340A108A100A1182075D
:100140002034483475346D3469346434693474341B
:10015000793420346C3469346D3469347434203427
:1001600000340A108A100A1182074D3469346E3443
:1001700069346D3475346D342034723475346E34B2
:100180002034743469346D34653400340A108A10B4
:100190000A118207253475346D3469346E34203485
:1001A0006934663420344134753474346F34203407
:1001B0004F344E3400340A108A100A1182074E342C
:1001C0006F3474342034723475346E3420346934AE
:1001D0006634203475346E346434653472340034DB
:1001E0000A108A100A1182074134553420344F34E2
:1001F0004634463400340A148A100A11023E0318A9
:100200008A0A82004134553420344F344E3420342D
:1002100000342B08AB0A1E3C03183D29AB01320801
:10022000B20A053C031D1729B2010130A900AC0830
:10023000031D2A292A0B2A29B608031D2A29340856
:10024000B40A3C3C031D28290130B600A900292925
:10025000B6012B29B4012A0B3A290130B306330B1E
:1002600036298316061283120612392983160616BA
:1002700083123D29831606168312A81428088316B4
:100280008700831287184E292F08AF0A013C031DEF
:100290004D290130AE00F030AF004F29AF010630DC
:1002A00081000B118A110A121D284A308400831321
:1002B0000008031968290230F800F701F70B5E29DE
:1002C000F80B5D299730F700F70B6429800B5B2949
:1002D00000344A186D2987116E298715A81128083E
:1002E000831687008312CA18772907127829071600
:1002F000281228088316870083124A198129871239
:1003000082298716A8122808831687008312CA1923
:100310008B2907138C2907172813280883168700B1
:100320008312003483168612831286160630F70075
:10033000F70B982900008316861283128612053067
:10034000CA0055210034B70E3708CA00692192212E
:10035000B70E3708CA00692192210034CA01692109
:10036000C830CA00552183160613831206130330C2
:10037000CA0069219221922192210230CA0069218A
:1003800092212C30B700A3210C30B700A3210130FB
:10039000B700A3210630B700A3210034BC0E3C08EF
:1003A0000838BD00CA0069219221BC0E3C08CA0071
:1003B0006921922100348316061383120617C90E91
:1003C0004908CA0069219221C90E4908CA00692159
:1003D000922183160613831206130034BC01CE212A
:1003E000B70137083320B70AF700C900DB21103006
:1003F0003702031DF1294030BC00CE21B701370878
:100400004820B70AF700C900DB2110303702031D6E
:10041000FF298A150A12CC2E8E30F7005008F800FA
:100420004F08F900FA01F808031D202A7908F8009E
:10043000F9010830F702F808031D202AF701282ADD
:100440000310F81B272AF90DF80DF703202AF813DB
:1004500000346C080319032B8316A4007008031DD5
:10046000332A8312032BA402031C3D2A7F30A407E6
:10047000031C3C2A8312032B472A8130A402031851
:10048000432A8312032B031D472A8312032B2408BC
:10049000F700F801F901FA01A30183126D08831630
:1004A000A200A21783126E088316A10083126F08A0
:1004B0008316A0001930A4007308A0020318702A44
:1004C0000130A1020318702AA2020318702AA302A5
:1004D0000318702AA30AA20AA10A7308A007A22A75
:1004E0007208A10203188B2A0130A20203188B2A7A
:1004F000A30203188B2AA30AA20A7208A107730891
:10050000A007031CA22AA10A031DA22AA20A031DF6
:10051000A22AA30AA22A71088038A2020318A12ADB
:100520000130A3020318A12AA30A71088038A20788
:100530007208A107031C7F2AA20A031D7F2AA30AAF
:100540007F2A7A14A40BA52AB02A0310A00DA10DAE
:10055000A20DA30D0310FA0DF90DF80DA50D5C2ADF
:10056000251CB82A0310F80CF90CFA0CA50CBC2AAF
:10057000F70BBC2A8312032BA51BE52A0310A00D41
:10058000A10DA20DA30D7308A0020318D12A0130FA
:10059000A1020318D12AA2020318D12AA302031C24
:1005A000F62A7208A1020318DC2A0130A2020318FD
:1005B000DC2AA302031CF62A71088038A202031861
:1005C000E52A0130A302031CF62AFA0A031DF62AC3
:1005D000F90A031DF62AF80A031DF62AF70A031D75
:1005E000F32A8312032BF80CF90CFA0C83126D0812
:1005F0008316A4007108A406A41F002BF817082B6B
:10060000F813082B8312F701F801F901FA01831698
:1006100083120034680803197A2BF0006C08031960
:100620007A2BF00703181B2B7F30F002031C7A2B68
:1006300003197A2B1F2B8130F00703187A2B7008CF
:10064000F700F801F901FA016908F400F4176A08E3
:10065000F3006B08F2001830F000F101721C482B17
:100660006F08FA07031C3A2BF90A031D3A2BF80A04
:100670000319F1176E08F907031C412BF80A031937
:10068000F1176D08EA00EA176A08F8070318F1176E
:10069000F10DF80CF90CFA0CF40CF30CF20C03103D
:1006A000F00B2D2B0130F70703187A2BF81B5F2B6B
:1006B000F40DFA0DF90DF80DF70303197A2BF41F59
:1006C000702BFA0A031D702BF90A031D702BF80A10
:1006D000031D702BF80CF90CFA0CF70A03197A2B8E
:1006E0006908F1006D08F106F11F782BF8177E2BD1
:1006F000F8137E2BF701F801F901FA01003480307C
:100700008318F1068316A201A30183126D088316D4
:10071000A1007108A10683126C080319832C8316AB
:10072000A000F700700803198D2CA0020319232CD8
:10073000031CD92B7108A600A6177208A500730820
:10074000A400A3010310A60CA50CA40CA30CA00BE1
:10075000A12BA11FAE2B2214A72C22102010221691
:100760006F3084008313BC2C2212A11BC12B201CD0
:10077000CC2BA60CA50CA40CA30CF70A0319A22CD5
:10078000CC2BA61BCF2B0310A30DA40DA50DA60DDE
:10079000F7030319A22CC12B2217452C2213831215
:1007A0006D088316A100A11FD72BA6179B2CA6139B
:1007B0009B2C7008A000F70083126C088316A0021F
:1007C00083126D088316A600A61783126E0883167F
:1007D000A50083126F088316A400A3010310A60CC2
:1007E000A50CA40CA30CA00BED2BA11FFA2BA2149B
:1007F000A72CA2102010A216733084008313BC2CE7
:10080000A212A11B0D2C201C182CA60CA50CA40CAC
:10081000A30CF70A0319A22C182CA61B1B2C0310DF
:10082000A30DA40DA50DA60DF7030319A22C0D2CE5
:10083000A217452CA2137108A100A11F212CA617F5
:100840009B2CA6139B2C7108A600A6177208A50066
:100850007308A400A11F302CA6132215A72C221167
:10086000A30120106F3084008313BC2CA11B5B2CD0
:1008700083126D088316A100201C452CA60CA50C24
:10088000A40CA30CF70A0319A22CA31F562CA40A2C
:10089000031D562CA50A031D562CA60A031D562C13
:1008A000A60CA50CA40CF70A0319A22C221BCE2B14
:1008B000A21B1A2C7C2C8030A606A61F632CA72C0A
:1008C0007108A100722C83126D088316A100A6087E
:1008D000031D722CA508031D722CA408031D722C85
:1008E000F7019B2CA61B7C2C0310A30DA40DA50DBA
:1008F000A60DF70B722CA22CA11F802CA6179B2CE7
:10090000A6139B2C83127008F70071088316A600AB
:100910007208A5007308A4009B2C83126C08F700D2
:100920006D088316A60083126E088316A500831235
:100930006F088316A4002608F8002508F90024088B
:10094000FA00DA2CF701F801F901FA01DA2CA30117
:10095000A409A509A609A309A30A031DB52CA40A85
:10096000031DB52CA50A0319A60A2218AD2BA2183F
:10097000F92B22192F2C602C0008A407031CC62C6D
:10098000A50A031DC62CA60A031920148403000817
:10099000A507031CCE2CA60A031920148403000803
:1009A000801F803AA60703182014221AB42BA21A1B
:1009B000002C362C83120034C801C701C601C501C2
:1009C0000030F8001F08C73978049F002130F70075
:1009D000F70BE82C1F151F19EB2C83161E0883122A
:1009E000BF001E08C000BF08031DF92CC008031972
:1009F000FD2C4008033C0318062D4508F700460867
:100A0000F8004708F9004808FA00912D4008D00086
:100A10003F08CF000C227708C9007808CA0079087F
:100A2000CB007A08CC00EF007908EE007808ED00E2
:100A30007708EC00F301C030F2007F30F10088301D
:100A4000F00029227708CD007808CE007908CF0081
:100A50007A08D000EB007908EA007808E900770806
:100A6000E800EF01EE012030ED008130EC000A23B8
:100A70007A08C4007908C3007808C2007708C1006A
:100A80004408EF004308EE004208ED004108EC0086
:100A9000F301F2012030F1008130F00029227708C3
:100AA000C9007808CA007908CB007A08CC00831402
:100AB0007A08EF007908EE007808ED007708EC007E
:100AC0000A30F300D730F2002330F1007C30F00020
:100AD0007F237708CD007808CE007908CF007A0808
:100AE000D000EF007908EE007808ED007708EC0000
:100AF0005F30F3002930F2004B30F1007730F00026
:100B000029227A08C8007908C7007808C600770843
:100B1000C5004508F7004608F8004708F9004808EE
:100B2000FA0000346908F0006D08F006F01F9D2DF2
:100B300003110310E91B0314D02D6908F0006C08A1
:100B4000F1006808F1020319AB2DF01FD02D030846
:100B5000013A8300D02D6D08F1006908F1020319F4
:100B6000B72DF01FD02D0308013A8300D02D6E0859
:100B7000F1006A08F1020319C32DF01FD02D0308FC
:100B8000013A8300D02D6F08F1006B08F1020319C0
:100B9000CF2DF01FD02D0308013A8300D02D031074
:100BA00000344908B63CC900FA014A08CD00CA170A
:100BB0000310CA0CCB0CCC0CFA0CF90CF80CF70C8B
:100BC000C90BD82DCD1FEF2DF709F809F909FA093E
:100BD000F70A0319F80A0319F90A0319FA0A8A111C
:100BE0000A125C2EF701F801F901FA01D101D201D4
:100BF000D301D40150084F044E044D040319302E84
:100C00002030D5000310C90DCA0DCB0DCC0DD10D70
:100C1000D20DD30DD40D50085402031D192E4F08C8
:100C20005302031D192E4E085202031D192E4D08A2
:100C30005102031C2A2E4D08D1024E08031C4E0FF0
:100C4000D2024F08031C4F0FD3025008031C500F51
:100C5000D4020314F70DF80DF90DFA0DD50B022E81
:100C600051308400831300340408C1004008C300DD
:100C70000319532E3F08EB003E08EA003D08E90047
:100C80003C08E800EF01EE012030ED008230EC007E
:100C90000A237A08BF007908BE007808BD007708EB
:100CA000BC00C30B3A2E3F08CC003E08CB003D08E9
:100CB000CA003C08C900D12D7A08BF007908BE00DF
:100CC0007808BD007708BC00BF1F732EC103C11692
:100CD000BC09BD09BE09BF09BC0A0319BD0A031935
:100CE000BE0A0319BF0A3B30C8009A30C700CA3099
:100CF000C600C5010A30C30040080319C10A3F08F5
:100D0000CC003E08CB003D08CA003C08C90048089A
:100D1000D0004708CF004608CE004508CD00F22598
:100D20000008BC00840A0008BD00840A0008BE0058
:100D3000840A0008BF00FD308407F708031DB32EA6
:100D4000400A43020319B32E41080319B52E0F3987
:100D500043020319AD2E0318E52EC11BE52E411BDE
:100D6000B52E2030E12E2030C105C11EC32EC11288
:100D70004008031DC1037708C1002D30C900DB21E5
:100D80004108F700C10140084302031DD12E770836
:100D9000C1002E30C900DB214108F7002030C10519
:100DA00000303030C11EE12EC1124008031DC103C6
:100DB0007708C1002D30C900DB214108F700C101CF
:100DC0003030F7077708C900DB214808CC00470816
:100DD000CB004608CA004508C900D001CF01CE01AA
:100DE0000A30CD00F2257A08C8007908C7007808D3
:100DF000C6007708C500C30B7F2E8A150A12A72CE0
:100E00008E30F7006908F8006808F900FA01E91F58
:100E10000E2FF809F909F90A0319F80AF808031D51
:100E20001B2F7908F800F9010830F702F808031DB4
:100E30001B2FF701242F0310F81B222FF90DF80D9B
:100E4000F7031B2FE91FF81300348E30F700560804
:100E5000F7025708F9005808F800F917F7080319BE
:100E60003C2F0310F908031D382FF80803193C2FF5
:100E7000F90CF80CF70B312FD71F432FF809F9099C
:100E8000F80A0319F90A00344008F8013F02031870
:100E90004C2F3F08F700582FF7010830C100BF0D55
:100EA000F70D400877020318F700F80DC10B4F2F1C
:100EB000003478083D08BF006430C000442777083C
:100EC000BD0078083030031D6C2FBE1C732FBE1977
:100ED000732F3E1A20306F2FBE113E123E14F807BA
:100EE0007808C900DB213D08BF000A30C000442754
:100EF0007708BD0078083030031D842FBE19882F75
:100F00003E1C882F3E1A2030F8077808C900DB21E4
:100F10003030BD073D08C900DB210034AC08031D9B
:100F2000EC2F8A1500208A117A08BE007908BD00CE
:100F30007808BC007708BB00DC247A08BA0079087E
:100F4000B9007808B8007708B700EB01EA0134303F
:100F5000E9008430E8003A08EF003908EE0038086C
:100F6000ED003708EC009225031CDD2F281528081A
:100F70008316870083120719CF2F3E08EB003D0828
:100F8000EA003C08E9003B08E800EF01EE01103000
:100F9000ED008330EC009225031CCF2FEC2FAA0824
:100FA000031DDB2F0130AA00B60128102808831684
:100FB000870083120710B401EA2FB6080319EA2F3D
:100FC0002A0BEA2FAA01B6012810280883168700E9
:0E0FD000831207142A08B5008A150A12102F82
:101000000830F8001F08C73978049F002130F70026
:10101000F70B08281F151F190B2883161E088312AB
:10102000BF001E08C0003F08C900C908031D1A28D8
:101030000130C900D0014908CF008A110C228A155D
:10104000EF01EE01ED018930EC007A08F300790838
:10105000F2007808F1007708F0008A1129228A1539
:101060007708CE007808CF007908D0007A08D10040
:1010700083147A08EF007908EE007808ED0077080D
:10108000EC00F301F201F1017F30F0008A117F23BF
:101090008A15EF014030EE001C30ED008C30EC0082
:1010A0007A08F3007908F2007808F1007708F00078
:1010B0008A1129228A157A08CD007908CC0078088F
:1010C000CB007708CA004A08F7004B08F8004C0824
:1010D000F9004D08FA007A08C4007908C3007808BE
:1010E000C2007708C1004408CC004308CB00420886
:1010F000CA004108C9006430CD000130CE004C0860
:10110000EF004B08EE004A08ED004908EC00F3013F
:10111000F2017A30F1008830F0008A1129228A1514
:101120007708CF007808D0007908D1007A08D2007B
:10113000EB005108EA005008E9004F08E800CD3004
:10114000EF00CC30EE004C30ED007B30EC008A112B
:1011500092258A15031CAF284D08F800BE2B4C08B9
:10116000EF004B08EE004A08ED004908EC00F301DF
:10117000F2017A30F1008830F0008A1129228A15B4
:101180007708CF007808D0007908D1007A08D2001B
:101190005208D6005108D5005008D4004F08D3009B
:1011A0005608DA005508D9005408D8005308D7006B
:1011B0005A08EB005908EA005808E9005708E80007
:1011C000EF01EE01ED017F30EC008A1192258A15C6
:1011D00003192B2BFA015730840083137A188317D5
:1011E0007E30800083145A08EF005908EE0058083A
:1011F000ED005708EC00F301F201F1017F30F0003F
:101200008A117F238A157708E8007808E9007908B1
:10121000EA007A08EB0083105A08EF005908EE0044
:101220005808ED005708EC00F301F201F1017F309E
:10123000F0008A117F238A156B08EF006A08EE0020
:101240006908ED006808EC007A08F3007908F200FC
:101250007808F1007708F0008A1129228A157A08A7
:10126000DA007908D9007808D8007708D7005A083A
:10127000EB005908EA005808E9005708E8005A0846
:10128000EF005908EE005808ED005708EC008A11ED
:101290000A238A157A08E6007908E5007808E40050
:1012A0007708E300BC30EB002430EA006730E90047
:1012B0007D30E8006608EF006508EE006408ED0088
:1012C0006308EC008A110A238A157708E800780879
:1012D000E9007908EA007A08EB0083107A08EF0049
:1012E0007908EE007808ED007708EC00E330F300B1
:1012F000E430F2009030F1008230F0008A117F2358
:101300008A157A08DE007908DD007808DC007708A5
:10131000DB005E08EB005D08EA005C08E9005B08A2
:10132000E8006608EF006508EE006408ED00630859
:10133000EC008A110A238A157708E8007808E9008A
:101340007908EA007A08EB0083107A08EF00790840
:10135000EE007808ED007708EC001C30F3008730D1
:10136000F2005730F1008330F0008A117F238A1594
:101370007A08DE007908DD007808DC007708DB00F9
:101380005E08EB005D08EA005C08E9005B08E80025
:101390006608EF006508EE006408ED006308EC00E5
:1013A0008A110A238A157708E8007808E900790885
:1013B000EA007A08EB0083107A08EF007908EE0063
:1013C0007808ED007708EC00AB30F300E130F20074
:1013D0009E30F1008330F0008A117F238A157A084D
:1013E000DE007908DD007808DC007708DB00EB011F
:1013F000EA01E9017F30E8006608EF006508EE00C9
:101400006408ED006308EC008A110A238A15770846
:10141000E8007808E9007908EA007A08EB00831010
:101420007A08EF007908EE007808ED007708EC0004
:10143000B430F3002A30F2008230F100F0008A115B
:101440007F238A157A08E2007908E1007808E00035
:101450007708DF006208EB006108EA006008E90035
:101460005F08E8006608EF006508EE006408ED001C
:101470006308EC008A110A238A157708E8007808C7
:10148000E9007908EA007A08EB0083107A08EF0097
:101490007908EE007808ED007708EC008030F30062
:1014A0003E30F2000630F1008330F0008A117F23D5
:1014B0008A157A08E2007908E1007808E0007708E8
:1014C000DF006208EB006108EA006008E9005F08DD
:1014D000E8006608EF006508EE006408ED006308A8
:1014E000EC008A110A238A157708E8007808E900D9
:1014F0007908EA007A08EB0083107A08EF0079088F
:10150000EE007808ED007708EC00AB30F300E13036
:10151000F2009E30F1008230F0008A117F238A159C
:101520007A08E2007908E1007808E0007708DF0037
:101530005A08EB005908EA005808E9005708E80083
:101540005E08EF005D08EE005C08ED005B08EC0053
:101550008A110A238A157708E8007808E9007908D3
:10156000EA007A08EB00EF007908EE007808ED0059
:101570007708EC006208F3006108F2006008F100EF
:101580005F08F0008A1129228A157A08DE0079089E
:10159000DD007808DC007708DB00FA0153308400B6
:1015A00083137A1883177E300002E700E71FEB2AC7
:1015B0006708003CE901E800E81BE9038A110027FD
:1015C0008A157708DF007808803AE0007908E100A2
:1015D0007A08E200FB2AE9016708E800E81BE90352
:1015E0008A1100278A157A08E2007908E100780854
:1015F000E0007708DF006208EB006108EA0060089D
:10160000E9005F08E8001830EF007230EE0031307A
:10161000ED007E30EC008A110A238A1583105E08E3
:10162000EF005D08EE005C08ED005B08EC007A0856
:10163000F3007908F2007808F1007708F0008A11C9
:101640007F238A157A08DE007908DD007808DC003F
:101650007708DB002F2BDE01DD01DC01DB015B08FD
:10166000F7005C08F8005D08F9005E08FA007C30BD
:10167000EB00D430EA000330E9007330E8007A0868
:10168000EF007908EE007808ED007708EC008A1189
:101690000A238A157708D0007808D1007908D2008B
:1016A0007A08D300D5010408D4005510831B5514C3
:1016B00083107A08EF007908EE007808ED007708CB
:1016C000EC006230F300EB30F2005B30F10076307A
:1016D000F0008A117F238A1554088400831355185B
:1016E00083177A08D9007908D8007808D7007708D6
:1016F000D6008A1125278A157808CE00D0014E0819
:10170000CF008A110C228A15EF01EE01ED017F3026
:10171000EC007A08F3007908F2007808F100770805
:10172000F0008A1129228A157708CF007808D000A6
:101730007908D1007A08D20083147A08EF0079087A
:10174000EE007808ED007708EC00F3018030F2003D
:101750000830F1008730F0008A117F238A157A085B
:10176000D9007908D8007808D7007708D6008A1100
:1017700025278A157808CD004D08F800D001780893
:10178000CF008A110C228A157A08C8007908C70090
:101790007808C6007708C5004508F7004608F80035
:1017A0004708F9004808FA0000344030BC008A11AC
:1017B000CE218A152C08FC3E0318662C043E452DCC
:1017C0004F30C9008A11DB218A154E30C9008A11B9
:1017D000DB218A150830B7002030C9008A11DB21CF
:1017E0008A15B70BEC2B0230B80038088A115D203F
:1017F0008A15B80AF700C9008A11DB218A1508305A
:101800003802031DF52B662C4F30C9008A11DB21ED
:101810008A154630C9008A11DB218A154630C90075
:101820008A11DB218A150730B7002030C9008A11E0
:10183000DB218A15B70B152C0330B80038088A1144
:101840006A208A15B80AF700C9008A11DB218A15B7
:1018500009303802031D1E2C662CB70137088A1187
:1018600078208A15B70AF700C9008A11DB218A158A
:1018700004303702031D2E2C0630B8002030C9007A
:101880008A11DB218A15B80B3E2C0430B9003908C7
:101890008A1178208A15B90AF700C9008A11DB215C
:1018A0008A150A303902031D472C662CB701370808
:1018B0008A1187208A15B70AF700C9008A11DB212F
:1018C0008A1510303702031D572C662C290B422D28
:1018D000A9018A11DC248A157A08BA007908B900AE
:1018E0007808B8007708B700BC018A11CE218A15A4
:1018F0003A08EB003908EA003808E9003708E80040
:10190000EF01EE01ED01EC018A1192258A15031D0C
:10191000992C4F30C9008A11DB218A152F30C9005C
:101920008A11DB218A155230C9008A11DB218A1500
:10193000AD2C013084003A08BF003908BE003808D9
:10194000BD003708BC000130C0008A11342E8A1552
:101950002530C9008A11DB218A150C30BC008A11A0
:10196000CE218A1500207A08D9007908D800780895
:10197000D7007708D6008A1125278A157808BB007A
:101980003B08643C031DD42C4F30C9008A11DB2175
:101990008A152F30C9008A11DB218A155230C900FF
:1019A0008A11DB218A15E92C0730BC002030C900E0
:1019B0008A11DB218A15BC0BD62C3B08BD001B30DD
:1019C000BE008A1159278A15DF30C9008A11DB2130
:1019D0008A150630BC008A11CE218A15AC08031D79
:1019E000142DB508031D042DBC013C088A11F020FC
:1019F0008A15BC0AF700C9008A11DB218A15063056
:101A00003C02031DF52C132DBC013C088A11FB2060
:101A10008A15BC0AF700C9008A11DB218A15063035
:101A20003C02031D052D422D2A0B2A2D4F30C900E3
:101A30008A11DB218A154E30C9008A11DB218A15F3
:101A40000430BC002030C9008A11DB218A15BC0B90
:101A5000222D422D4F30C9008A11DB218A154630D4
:101A6000C9008A11DB218A154630C9008A11DB21A1
:101A70008A150330BC002030C9008A11DB218A1589
:101A8000BC0B3B2D8A150A120D2F0A148A100A1559
:101A900082072D2CE02B042C562C2E0B582D2C08B5
:101AA000AC0A023C0318552DAC01AE010130AD006B
:101AB0002C08FC3E0318762E043E792E2D0B782D33
:101AC000AD010130AA002810280883168700831270
:101AD000071083160612831206120130B7008A110E
:101AE000A3218A150130A900AE01B001AB01762E09
:101AF0002D0B8F2DAD01AA01281028088316870011
:101B0000831207148316061601308312B7008A1158
:101B1000A3218A150130A900AE01B001762E2D0B4C
:101B20009D2DAD010130B7008A11A3218A15013026
:101B3000A900AE01B001AB01762E2D0B762EAD01C2
:101B40000130B7008A11A3218A15BC018A11CE2168
:101B50008A15B70137088A119C208A15B70AF70041
:101B6000C9008A11DB218A1510303702031DAA2D06
:101B70004030BC008A11CE218A150630B7002030D3
:101B8000C9008A11DB218A15B70BBF2D2D30BD008E
:101B90001B30BE008A1159278A152530C9008A11C9
:101BA000DB218A150730B8002030C9008A11DB21FB
:101BB0008A15B80BD42D0C30B700FA30CA008A1140
:101BC00055218A15B70BDD2D0130B7008A11A321ED
:101BD0008A15BC018A11CE218A15B70137088A11EE
:101BE000B1208A15B70AF700C9008A11DB218A15CE
:101BF00010303702031DEE2D4030BC008A11CE217B
:101C00008A150130BD001B30BE008A1159278A1584
:101C10000230B70037088A11C6208A15B70AF700C4
:101C2000C9008A11DB218A1510303702031D0A2EE4
:101C30000C30B700FA30CA008A1155218A15B70B4B
:101C40001A2E0130B7008A11A3218A15BC018A110E
:101C5000CE218A15B70137088A11DB208A15B70A09
:101C6000F700C9008A11DB218A1510303702031DE5
:101C70002B2E4030BC008A11CE218A150730B700C8
:101C80002030C9008A11DB218A15B70B402E123093
:101C9000BD001B30BE008A1159278A15DF30C900EC
:101CA0008A11DB218A154330C9008A11DB218A158C
:101CB0000530B8002030C9008A11DB218A15B80B25
:101CC0005A2E0C30B700FA30CA008A1155218A15F5
:101CD000B70B632E0130B7008A11A3218A1501309A
:101CE000A900AE01B001AB01AC01762E8A150A1233
:101CF0000E2F0A108A140A1582078F2D5E2D782D5B
:101D00009D2D840183131F30830583161F149F1498
:101D10001F159F11FF308312A800A901AA01AB0172
:101D2000AC01AD01AE01AF01B001B101B201B3012F
:101D3000B401B501B601C830CA008A1155218A150F
:101D40000630F700F71DAD2E073081018130840089
:101D500083130008C0390F3880006400813084008C
:101D60000008C039770480002810280883168700EF
:101D700083120710831686118312861183160612AA
:101D8000831206128A11AE218A150130B7008A111A
:101D9000A3218A158A11EE298A151430B700FA306A
:101DA000CA008A1155218A15B70BCF2E0130B70012
:101DB0008A11A3218A158A11AE218A1528152808AF
:101DC0008316870083129701A814280883168700BA
:101DD00083129D0183161F109F101F159F118312E0
:101DE0001F179F1783169F1783121F148B16C0305F
:101DF0008B04AA01AD01B301AE01B001AF01B10185
:101E000028102808831687008312071483160616E5
:101E10008312AC010130A900D52B4D2D8A118E2FD4
:061E20008A150C2F63007F
:02400E00393F38
:00000001FF
;PIC16F876
