:1000000000308A005B2E0000FF00030E8301A10078
:100010000A08A0008A010408A2007708A300780853
:10002000A4007908A5007A08A6007B08A70083131E
:1000300083128B1E1D280B193028220884002308E8
:10004000F7002408F8002508F9002608FA00270818
:10005000FB0020088A00210E8300FF0E7F0E09009E
:100060008A110A12A9280A108A100A11820720345C
:10007000423441344434453456344934463454349B
:1000800045342034763431342E3431342034003445
:100090000A108A100A1182074B3465346E346E34AC
:1000A00079342034303433342E34313430342E34F7
:1000B000323430343034373400340A108A100A11A4
:1000C0008207533474346F3470344F344B340034FB
:1000D0000A108A100A11820753347434613472345E
:1000E00074344F344B3400340A108A100A118207DA
:1000F0004134753474346F344F344B3400340A1047
:100100008A100A1182072034523455344E344E344A
:1001100049344E344734203400340A108A100A110E
:1001200082072034533454344F34503450344534DF
:100130004434203400340A108A100A1182074134F2
:10014000553454344F344D344134543449344334A9
:1001500000342B08AB0A3C3C031DBF28AB013C0814
:10016000BC0A0A3C031DB728BC010130A900BD0A26
:100170003D08143C031DBF282A0BBF28AA01A81460
:1001800028088316870083128718D5283008B00AFC
:10019000013C031DD4280130AF00AC080319D2285C
:1001A000FC30D328F030B000D628B001281528083C
:1001B0008316870083120719E7280130B100AC08C5
:1001C0000319E428FC30E528F030B200E828B20139
:1001D000043081000B118A110A121D285830840046
:1001E00083130008031901290230F800F701F70B07
:1001F000F728F80BF6289730F700F70BFD28800B4F
:10020000F428003458180629871107298715A811E2
:100210002808831687008312D8181029071211297D
:1002200007162812280883168700831258191A29DE
:1002300087121B298716A8122808831687008312A5
:10024000D8192429071325290717281328088316E6
:1002500087008312003483168612831286160630B6
:10026000F700F70B312900008316861283128612DD
:100270000530D800EE200034BE0E3E08D800022122
:100280002B21BE0E3E08D80002212B210034D801BC
:100290000221C830D800EE208316061383120613FD
:1002A0000330D80002212B212B212B210230D80032
:1002B00002212B212C30BE003C210C30BE003C2101
:1002C0000130BE003C210630BE003C210034CA0E85
:1002D0004A080838CB00D80002212B21CA0E4A0850
:1002E000D80002212B21003483160613831206172F
:1002F000D70E5708D80002212B21D70E5708D80057
:1003000002212B2183160613831206130034CA011F
:100310006721BE013E083320BE0AF700D7007421D2
:1003200010303E02031D8A294030CA006721BE01F9
:100330003E084820BE0AF700D700742110303E0264
:10034000031D98298A110A12A62E0030F8001F08F2
:10035000C73978049F001F151F19AC2983161E0882
:100360008312BE001E08BF003F08003C0318DC29B2
:10037000FF3A031DBF293E08543C0318DC292A0B11
:10038000DC29C001C1013330840083134008840795
:1003900041089B20800000380319D129C10AC00AF6
:1003A000C329281028088316870083120710831694
:1003B000061283120612E2292814280883168700E1
:1003C000061683120034D2010408D1005210831B98
:1003D00052144B0EF038CD00CD07E23ECE00323E37
:1003E000D0004B080F39CE07CE07D007E93ECF002B
:1003F000CF07CF074A0E0F39CF07D007CF0DD00D4B
:10040000D009D00D4A080F39D007CD0D0730CC00E8
:100410000A30D007CF03031C092ACF07CE03031CE1
:100420000D2ACE07CD03031C112ACD07CC03031CD4
:10043000152A4C308400831307305105511384076B
:1004400050300402031951170008F700031D302A29
:10045000511B302A511A422AD119302A2030332A0E
:10046000D11551123030F707CB010408CA004B10E8
:10047000831B4B147708D70074214A088400831328
:100480004B188317840A511F202A8A110A126D2DD6
:100490008E30F7005108F8005008F900FA01F8080A
:1004A000031D5C2A7908F800F9010830F702F80802
:1004B000031D5C2AF701642A0310F81B632AF90D57
:1004C000F80DF7035C2AF8138A110A12922D5408CA
:1004D00003192C2BE000580803192C2BE002031CF5
:1004E000762A7F30E00703182C2B7C2A8130E0022B
:1004F000031C2C2B03192C2B6008F700F801F901C1
:10050000FA01DF015508DE00DE175608DD00570846
:10051000DC001930E0005B08DC0203189F2A013080
:10052000DD0203189F2ADE0203189F2ADF02031848
:100530009F2ADF0ADE0ADD0A5B08DC07D12A5A0897
:10054000DD020318BA2A0130DE020318BA2ADF02DC
:100550000318BA2ADF0ADE0A5A08DD075B08DC073F
:10056000031CD12ADD0A031DD12ADE0A031DD12A6C
:10057000DF0AD12A59088038DE020318D02A013058
:10058000DF020318D02ADF0A59088038DE075A082C
:10059000DD07031CAE2ADE0A031DAE2ADF0AAE2ADF
:1005A0007A14E00BD42ADF2A0310DC0DDD0DDE0DFA
:1005B000DF0D0310FA0DF90DF80DE10D8B2A611C0A
:1005C000E72A0310F80CF90CFA0CE10CEA2AF703FD
:1005D00003192C2BE11B132B0310DC0DDD0DDE0D9D
:1005E000DF0D5B08DC020318FF2A0130DD0203186F
:1005F000FF2ADE020318FF2ADF02031C222B5A08FF
:10060000DD0203180A2B0130DE0203180A2BDF0279
:10061000031C222B59088038DE020318132B0130EB
:10062000DF02031C222BFA0A031D222BF90A031DE9
:10063000222BF80A031D222BF70A03192C2BF80C86
:10064000F90CFA0C5508E0005908E006E01F2A2BC7
:10065000F817302BF813302BF701F801F901FA01E4
:100660008A110A12A92D58080319A32BE0005C086F
:100670000319A32BE0070318442B7F30E002031C6F
:10068000A32B0319A32B482B8130E0070318A32BBE
:100690006008F700F801F901FA015908E400E417CD
:1006A0005A08E3005B08E2001830E000E101621C38
:1006B000712B5F08FA07031C632BF90A031D632BD8
:1006C000F80A0319E1175E08F907031C6A2BF80AF8
:1006D0000319E1175D08DA00DA175A08F80703185A
:1006E000E117E10DF80CF90CFA0CE40CE30CE20C48
:1006F0000310E00B562B0130F7070318A32BF81B50
:10070000882BE40DFA0DF90DF80DF7030319A32B4F
:10071000E41F992BFA0A031D992BF90A031D992B43
:10072000F80A031D992BF80CF90CFA0CF70A0319B7
:10073000A32B5908E1005D08E106E11FA12BF81782
:10074000A72BF813A72BF701F801F901FA010034E0
:100750005708B63CD700FA015808DB00D817031039
:10076000D80CD90CDA0CFA0CF90CF80CF70CD70BE6
:10077000AF2BDB1FC62BF709F809F909FA09F70AAD
:100780000319F80A0319F90A0319FA0A8A110A1255
:10079000332CF701F801F901FA01DF01E001E10171
:1007A000E2015E085D045C045B040319072C203041
:1007B000E3000310D70DD80DD90DDA0DDF0DE00DD4
:1007C000E10DE20D5E086202031DF02B5D0861027F
:1007D000031DF02B5C086002031DF02B5B085F0219
:1007E000031C012C5B08DF025C08031C5C0FE002A9
:1007F0005D08031C5D0FE1025E08031C5E0FE20250
:100800000314F70DF80DF90DFA0DE30BD92B5F303A
:100810008400831300340408CF004E08D10003196C
:100820002A2C4D08DB004C08DA004B08D9004A0896
:10083000D800DF01DE012030DD008230DC00332310
:100840007A08CD007908CC007808CB007708CA0078
:10085000D10B112C4D08DA004C08D9004B08D800F8
:100860004A08D700A82B7A08CD007908CC00780870
:10087000CB007708CA00CD1F4A2CCF03CF16CA0978
:10088000CB09CC09CD09CA0A0319CB0A0319CC0A32
:100890000319CD0A3B30D6009A30D500CA30D400B7
:1008A000D3010A30D1004E080319CF0A4D08DA00EF
:1008B0004C08D9004B08D8004A08D7005608DE007B
:1008C0005508DD005408DC005308DB00C92300088C
:1008D000CA00840A0008CB00840A0008CC00840AFD
:1008E0000008CD00FD308407F708031D8A2C4E0A4E
:1008F000510203198A2C4F0803198C2C0F3951020D
:100900000319842C0318BC2CCF1BBC2C4F1B8C2C24
:100910002030B82C2030CF05CF1E9A2CCF124E0895
:10092000031DCF037708CF002D30D70074214F0867
:10093000F700CF014E085102031DA82C7708CF0005
:100940002E30D70074214F08F7002030CF0500303B
:100950003030CF1EB82CCF124E08031DCF037708BE
:10096000CF002D30D70074214F08F700CF01303071
:10097000F7077708D70074215608DA005508D90020
:100980005408D8005308D700DE01DD01DC010A302D
:10099000DB00C9237A08D6007908D5007808D4008E
:1009A0007708D300D10B562C8A110A12D92D40306A
:1009B000CA0067212D080319E42C013A0319FD2C04
:1009C000033A0319162D2F2DBE013E085D20BE0AE5
:1009D000F700D700742104303E02031DE52C0A30D5
:1009E000BF002030D7007421BF0BF12C4F30D7004F
:1009F00074214B30D70074212F2DBE013E08682092
:100A0000BE0AF700D700742105303E02031DFE2CFC
:100A10000930BF002030D7007421BF0B0A2D4F30A2
:100A2000D70074214B30D70074212F2DBE013E0812
:100A30007420BE0AF700D700742104303E02031D63
:100A4000172D0A30BF002030D7007421BF0B232D93
:100A50004F30D70074214B30D70074212F2D290B34
:100A6000F62DA901CA0167210030F8001F08C73917
:100A700078049F001F151F193B2D83161E08831233
:100A8000C8001E08C9000830F8001F08C7397804DC
:100A90009F001F151F194A2D83161E088312C600BA
:100AA0001E08C700480F642D4908033C031D642D30
:100AB000CA0167214F30D70074212F30D70074212D
:100AC0005230D7007421702DCA0167211030840084
:100AD0004908CB004808CA00E3297030D7007421C8
:100AE000460F832D4708033C031D832D0E30CA009B
:100AF00067214F30D70074212F30D7007421523036
:100B0000D7007421DC2D4708CB004608CA00CF016E
:100B1000CE012030CD008130CC004B08D1004A08F6
:100B2000D000482A7708D0007808D1007908D20090
:100B30007A08D300D7007908D6007808D50077085E
:100B4000D400DB01C030DA007F30D9008830D80013
:100B5000672A7708D4007808D5007908D6007A0883
:100B6000D700DB007908DA007808D9007708D800C8
:100B70004F08DF004E08DE004D08DD004C08DC00A9
:100B800033237A08C1007908C0007808BF007708CD
:100B9000BE000E30CA006721013084004108CD003C
:100BA0004008CC003F08CB003E08CA000130CE0010
:100BB0000B2C4330D70074210330CA006721333037
:100BC00084008313003000040319F62DCB010408C0
:100BD000CA004B10831B4B140008D70074214A082D
:100BE000840083134B188317840AE22D8A110A129A
:100BF000DF2E2F0B022E2D08AD0A013C0318012E0B
:100C0000AD01AF01310B072E0130AE00B1012D084F
:100C10000319112E013A0319332E033A03194F2EEB
:100C2000582E2E0B332EAE01BE01BF01333084008F
:100C300083133E0884073F087F2080000038031993
:100C4000242EBF0ABE0A162E0130AA00281028083A
:100C5000831687008312071083160612831206126A
:100C60000130AD00582E2E0B4F2EAE01BE01BF013C
:100C70003330840083133E0884073F088D208000B2
:100C800000380319462EBF0ABE0A382EAA012814BE
:100C900028088316870006168312AD01582E2E0BE6
:100CA000582EAE010130AA00A5210230AD00582E09
:100CB0008A110A12E02E840183131F3083058316E4
:100CC0001F149F141F159F11FF308312A800A90144
:100CD000AA01AB01AC01AD01AE01AF01B001B101A0
:100CE000B201B301B401B501B601B701B801B90150
:100CF000BA01BB01BC01BD01C830D800EE200630EE
:100D0000F700F71D8C2E073081018130840083139A
:100D10000008C0390F38800064008130840000086A
:100D2000C0397704800028102808831687008312B2
:100D300007108316861183128611831606128312FA
:100D4000061247210130BE003C2187291430BE0025
:100D5000FA30D800EE20BE0BA82E0130BE003C2198
:100D60004721281528088316870083129701A814A5
:100D700028088316870083129D0183161F109F1475
:100D80001F159F1583121F179F1783169F17831216
:100D90001F140030F8001F08C73978049F008B1615
:100DA000C0308B04AA01AE01AF01B101B001B201A4
:100DB0000230AD00A521831606168312D72CF92D1B
:100DC000DE2E6300FF3FFF3FFF3FFF3FFF3FFF3F40
:100DD000FF3FFF3FFF3FFF3FFF3FFF3FFF3FFF3F23
:100DE000FF3FFF3FFF3FFF3FFF3FFF3FFF3FFF3F13
:100DF000FF3FFF3FFF3FFF3FFF3FFF3FFF3FFF3F03
:100E0000FF3FFF3FFF3FFF3FFF3FFF3FFF3FFF3FF2
:02400E00393F38
:10420000FF00FF00FF00FF00FF00FF00FF00FF00B6
:10421000FF00FF00FF00FF00FF00FF00FF00FF00A6
:10422000FF00FF00FF00FF00FF00FF00FF00FF0096
:10423000FF00FF00FF00FF00FF00FF00FF00FF0086
:10424000FF00FF00FF00FF00FF00FF00FF00FF0076
:10425000FF00FF00FF00FF00FF00FF00FF00FF0066
:10426000FF00FF00FF00FF00FF00FF00FF00FF0056
:10427000FF00FF00FF00FF00FF00FF00FF00FF0046
:10428000FF00FF00FF00FF00FF00FF00FF00FF0036
:10429000FF00FF00FF00FF00FF00FF00FF00FF0026
:1042A000FF00FF00FF00FF00FF00FF00FF00FF0016
:1042B000FF00FF00FF00FF00FF00FF00FF00FF0006
:1042C000FF00FF00FF00FF00FF00FF00FF00FF00F6
:1042D000FF00FF00FF00FF00FF00FF00FF00FF00E6
:1042E000FF00FF00FF00FF00FF00FF00FF00FF00D6
:1042F000FF00FF00FF00FF00FF00FF00FF00FF00C6
:10430000FF00FF00FF00FF00FF00FF00FF00FF00B5
:10431000FF00FF00FF00FF00FF00FF00FF00FF00A5
:10432000FF00FF00FF00FF00FF00FF00FF00FF0095
:10433000FF00FF00FF00FF00FF00FF00FF00FF0085
:10434000FF00FF00FF00FF00FF00FF00FF00FF0075
:10435000FF00FF00FF00FF00FF00FF00FF00FF0065
:10436000FF00FF00FF00FF00FF00FF00FF00FF0055
:10437000FF00FF00FF00FF00FF00FF00FF00FF0045
:10438000FF00FF00FF00FF00FF00FF00FF00FF0035
:10439000FF00FF00FF00FF00FF00FF00FF00FF0025
:1043A000FF00FF00FF00FF00FF00FF00FF00FF0015
:1043B000FF00FF00FF00FF00FF00FF00FF00FF0005
:1043C000FF00FF00FF00FF00FF00FF00FF00FF00F5
:1043D000FF00FF00FF00FF00FF00FF00FF00FF00E5
:1043E000FF00FF00FF00FF00FF00FF00FF00FF00D5
:1043F000FF00FF00FF00FF00FF00FF00FF00FF00C5
:00000001FF
