:1000000000308A009C280000FF00030E8301A1003D
:100010007F08A0000A08A7008A01A00E0408A20019
:100020007708A3007808A4007908A5007A08A6003C
:10003000831383128C308400001C20280C183B286A
:100040008C308400801C26288C183E288B1E2A2881
:100050000B194428220884002308F7002408F8001C
:100060002508F9002608FA0027088A00210E8300D7
:10007000FF0E7F0E09000C108A112A28AC0A031902
:10008000AD0A8C108A112A28A90A290F4828A9012B
:10009000AE194C2885114D2885152E18512886112A
:1000A00052288615831686118312AE185928051119
:1000B0005A2805152E195E2806115F280615831685
:1000C000061183120B118A112A2830308400831301
:1000D0000008031979280130F800F701F70B6E28A2
:1000E000F80B6D284A30F700F70B74287728800B3F
:1000F0006B280800A901831686170617F0306500E3
:10010000831205146430B0006520AD01AC01F330FA
:1001100065008316061383120613051C9728290809
:10012000FD3C031C9728AC0A0319AD0A8D282D0845
:10013000AB002C08AA00CE28840183131F3083054E
:1001400083168E15073083129F0083160108C0396D
:1001500001388100B530831290007830F8000438FF
:100160009200FF3083169200073083129F0083169F
:10017000050885000330F700F70BBC2883121F0821
:100180000C1383169F010C148C1483128B16C03031
:100190008B04F0306500AE11AE017A28AA08031D69
:1001A000D428AB080319DE28AB08031DDE282A0873
:1001B000013C031CDE282E14AE102E11AB08031DCB
:1001C000E5282A08013C0318EF28AB08031DEF2897
:1001D0002A08033C031CEF28AE142E102E11AB0886
:1001E000031DF6282A08033C0318F9282E152E10A3
:1001F000AE10CD28281C012928106430B0006520DD
:10020000FA282E140230AF00FA30B0006520AF0B90
:100210000429AE140230AF00FA30B0006520AF0BF5
:100220000C292E1006148316061002308312AF001C
:10023000FA30B0006520AF0B1829AE108614831673
:10024000861002308312AF00FA30B0006520AF0B89
:060250002429FA286300D6
:02400E00183F59
:00000001FF
;PIC16F628A
;CRC=5F37  CREATED="06-okt-10 19:11"
