:1000000052EF00F05374617274757020636F6D70FD
:100010006C6574652000929C899C080E016E00D06E
:100020000000018E0ED0019E0732D8B0898CD8A076
:10003000899C018C06D0019C012EF6D700D00000CF
:10004000898C1C0EE96EE92EFED700D001BEEBD7DD
:1000500001BCF1D736EF00F00900F5520CE0F6CF05
:1000600005F0F7CF06F0F5CF07F0D5D705C0F6FFBE
:1000700006C0F7FFF1D771EF00F0EA6A060EE96EED
:10008000EF500EE0010E016E006A002EFED7012E29
:10009000FBD74A0E006E002EFED700D0EF2EF2D70F
:1000A00076EF00F0F86AD09EEA6AE96A620ED36ED3
:1000B000D350929C898CC29CC29EC150800B7F09F8
:1000C000C16EC10ED56EB50ECD6E000E0509CA6E9D
:1000D000FF0ECB6E850EB16E040EF66E000EF76E3F
:1000E000BBD7040E056EFA0E066EC7D7052EFBD7DA
:0400F000F3D703003F
:020000040030CA
:0E0000000008090E0000810003C003E0034069
:00000001FF
;PIC18F1320
;CRC=CE72  CREATED="09-okt-10 10:51"
