:1000000008308A00C92E0000FF00030E8301A10002
:100010000A08A0008A010408A2007708A300780853
:10002000A4007908A5007A08A6007B08A70083131E
:1000300083128B1E1D280B193028220884002308E8
:10004000F7002408F8002508F9002608FA00270818
:10005000FB0020088A00210E8300FF0E7F0E09009E
:100060008A110A1276290A108A100A11820720348E
:10007000423441344434453456344934463454349B
:1000800045342034763435342E34303400340A107C
:100090008A100A1182074B3465346E346E34793419
:1000A0002034323439342E34303433342E34323434
:1000B00030343034383400340A108A100A11820780
:1000C0004F344E344E346534783474342D343E34E9
:1000D00000340A108A100A1182074F34463446341D
:1000E0004E346534783474342D343E3400340A1080
:1000F0008A100A1182074134553454344F344E3437
:100100006534783474342D343E3400340A108A1047
:100110000A118207443465346C34613479346534AF
:1001200064344E346534783474342D343E340034C1
:100130000A108A100A1182072034483475346D344D
:100140006934643469347434793420346C346934F7
:100150006D3469347434203400340A108A100A1162
:100160008207253475342534633420342D3420340B
:10017000643465346634613475346C3474342B34CF
:100180003134303400340A108A100A1182074D3499
:1001900069346E3469346D3475346D34203472349E
:1001A00075346E342034743469346D3465340034FD
:1001B0000A108A100A118207253475346D346934A7
:1001C0006E342034693466342034413475347434E8
:1001D0006F3420344F344E3400340A108A100A1120
:1001E000F43E03188A0A82004E346F34743420348B
:1001F000723475346E342034693466342034753486
:100200006E3464346534723400340A148A100A116E
:1002100082075734683465346E3420346134753461
:1002200074346F3420346D346F34643465343A344C
:1002300000340A148A100A1182074E346F342034B5
:1002400063346834653463346B3420346F346E3413
:100250002034743465346D34703400340A148A10D8
:100260000A11820743346834653463346B342034B4
:100270006F346E342034743465346D34703400342B
:100280000A148A100A118207443465346C346134CC
:100290007934653464342034723475346E342034E7
:1002A000743469346D34653400340A148A100A11C8
:1002B00082074134553420344F34463446340034B8
:1002C0000A148A100A1182074134553420344F34FD
:1002D0004E34203400340A148A100A118207203464
:1002E00020344F344E342034203400342B08AB0AF1
:1002F0003C3C0318EF29AB013208B20A033C031D52
:100300008429B2010130A900AC08031D97292A0BEA
:100310009729BA08031D97293608B60AB43C031D6D
:1003200095290130BA00A9009629BA019829B60189
:100330002C08033C031DDC292A0BDC29BA08031D09
:10034000DC293708B70A8316B40083123B088316EA
:10035000B5003C30B600F701F80135080310361837
:10036000F707F70CF80CB618F707F70CF80C361966
:10037000F707F70CF80CB619F707F70CF80C361A54
:10038000F707F70CF80CB61AF707F70CF80C361B42
:10039000F707F70CF80CB61BF707F70CF80C780802
:1003A0003402031DD92901308312BA00A900DB29C8
:1003B00083168312BA01DD29B7012A0BEC2901301B
:1003C000B306330BE8298316061283120612EB29B3
:1003D000831606168312EF29831606168312A814B5
:1003E00028088316870083128718FC292F087F3C72
:1003F000031CFB29AF0A152A2F08023C0318142AF4
:100400002F08803C031D072A8A010028142A2F0880
:100410003F3C0318122A2F087F3C031C122A01308C
:10042000B500142A0130AE00AF01043081000B1179
:100430008A110A121D285230840083130008031900
:100440002E2A0230F800F701F70B242AF80B232A92
:100450009730F700F70B2A2A800B212A0034521814
:10046000332A8711342A8715A81128088316870094
:100470008312D2183D2A07123E2A0716281228088E
:100480008316870083125219472A8712482A871633
:10049000A8122808831687008312D219512A07133D
:1004A000522A07172813280883168700831200345E
:1004B00083168612831286160630F700F70B5E2A23
:1004C000000083168612831286120530D2001B228A
:1004D0000034BC0E3C08D2002F225822BC0E3C082F
:1004E000D2002F2258220034D2012F22C830D2004D
:1004F0001B2283160613831206130330D2002F2209
:100500005822582258220230D2002F2258222C3052
:10051000BC0069220C30BC0069220130BC00692299
:100520000630BC0069220034C40E44080838C500F7
:10053000D2002F225822C40E4408D2002F22582263
:1005400000348316061383120617D10E5108D20009
:100550002F225822D10E5108D2002F225822831662
:100560000613831206130034C4019422BC013C0814
:100570003320BC0AF700D100A1220F303C02031D3A
:10058000B72A4030C4009422BC013C084720BC0A72
:10059000F700D100A12210303C02031DC52A8A15A4
:1005A0000A12192F4008F8013F020318DA2A3F08FF
:1005B000F700E62AF7010830C100BF0DF70D40082B
:1005C00077020318F700F80DC10BDD2A0034780814
:1005D0003D08BF006430C000D2227708BD00780813
:1005E0003030031DFA2ABE1C012BBE19012B3E1A06
:1005F0002030FD2ABE113E123E14F8077808D100C3
:10060000A1223D08BF000A30C000D2227708BD00F9
:1006100078083030031D122BBE19162B3E1C162BEA
:100620003E1A2030F8077808D100A1223030BD07EB
:100630003D08D100A12200348E30F7005808F800A0
:100640005708F900FA01F808031D302B7908F80063
:10065000F9010830F702F808031D302BF701382B99
:100660000310F81B372BF90DF80DF703302BF81397
:100670000034831624080319FF2BB000280803193F
:10068000FF2BB002031C492B7F30B0070318FF2B50
:100690004F2B8130B002031CFF2B0319FF2B3008B6
:1006A000F700F801F901FA01AF012508AE00AE1715
:1006B0002608AD002708AC001930B0002B08AC02AA
:1006C0000318722B0130AD020318722BAE0203180F
:1006D000722BAF020318722BAF0AAE0AAD0A2B08B9
:1006E000AC07A42B2A08AD0203188D2B0130AE02F3
:1006F00003188D2BAF0203188D2BAF0AAE0A2A0800
:10070000AD072B08AC07031CA42BAD0A031DA42BBB
:10071000AE0A031DA42BAF0AA42B29088038AE0211
:100720000318A32B0130AF020318A32BAF0A29082B
:100730008038AE072A08AD07031C812BAE0A031DC3
:10074000812BAF0A812B7A14B00BA72BB22B03108D
:10075000AC0DAD0DAE0DAF0D0310FA0DF90DF80D8A
:10076000B10D5E2B311CBA2B0310F80CF90CFA0CEE
:10077000B10CBD2BF7030319FF2BB11BE62B0310A4
:10078000AC0DAD0DAE0DAF0D2B08AC020318D22B86
:100790000130AD020318D22BAE020318D22BAF02E8
:1007A000031CF52B2A08AD020318DD2B0130AE0225
:1007B0000318DD2BAF02031CF52B29088038AE028D
:1007C0000318E62B0130AF02031CF52BFA0A031DB8
:1007D000F52BF90A031DF52BF80A031DF52BF70A73
:1007E0000319FF2BF80CF90CFA0C2508B0002908A6
:1007F000B006B01FFD2BF817032CF813032CF701DC
:10080000F801F901FA018312003483162008031954
:10081000762CA80024080319762CA8070318172C97
:100820007F30A802031C762C0319762C1B2C8130F8
:10083000A8070318762C2808F700F801F901FA0137
:100840002108AC00AC172208AB002308AA0018301E
:10085000A800A9012A1C442C2708FA07031C362CDF
:10086000F90A031D362CF80A0319A9172608F907F7
:10087000031C3D2CF80A0319A9172508A200A2178A
:100880002208F8070318A917A90DF80CF90CFA0C9F
:10089000AC0CAB0CAA0C0310A80B292C0130F707E9
:1008A0000318762CF81B5B2CAC0DFA0DF90DF80D26
:1008B000F7030319762CAC1F6C2CFA0A031D6C2C61
:1008C000F90A031D6C2CF80A031D6C2CF80CF90CAA
:1008D000FA0CF70A0319762C2108A9002508A906A5
:1008E000A91F742CF8177A2CF8137A2CF701F80149
:1008F000F901FA01831200348030831C822C8316A4
:10090000A90683128316AE01AF012508AD002908A0
:10091000AD0624080319702DAC00F7002808031950
:10092000792DAC020319152D031CD32C2908B20014
:10093000B2172A08B1002B08B000AF010310B20CA7
:10094000B10CB00CAF0CAC0B9D2CAD1FAA2C2E140F
:100950008D2D2E102C102E16A73084008313A22D5F
:100960002E12AD1BBD2C2C1CC82CB20CB10CB00C23
:10097000AF0CF70A0319882DC82CB21BCB2C03101F
:10098000AF0DB00DB10DB20DF7030319882DBD2CBD
:100990002E17352D2E132508AD00AD1FD12CB21703
:1009A000812DB213812D2808AC00F7002408AC0279
:1009B0002508B200B2172608B1002708B000AF0121
:1009C0000310B20CB10CB00CAF0CAC0BDF2CAD1F94
:1009D000EC2CAE148D2DAE102C10AE16AB30840066
:1009E0008313A22DAE12AD1BFF2C2C1C0A2DB20CB2
:1009F000B10CB00CAF0CF70A0319882D0A2DB21BED
:100A00000D2D0310AF0DB00DB10DB20DF70303198D
:100A1000882DFF2CAE17352DAE132908AD00AD1F64
:100A2000132DB217812DB213812D2908B200B217F0
:100A30002A08B1002B08B000AD1F222DB2132E15CD
:100A40008D2D2E11AF012C10A73084008313A22D01
:100A5000AD1B4B2D2508AD002C1C352DB20CB10C57
:100A6000B00CAF0CF70A0319882DAF1F462DB00A42
:100A7000031D462DB10A031D462DB20A031D462D46
:100A8000B20CB10CB00CF70A0319882D2E1BCA2C1E
:100A9000AE1B0C2D6A2D8030B206B21F532D8D2D4A
:100AA0002908AD00602D2508AD00B208031D602D9A
:100AB000B108031D602DB008031D602DF701812DC5
:100AC000B21B6A2D0310AF0DB00DB10DB20DF70BB7
:100AD000602D882DAD1F6E2DB217812DB213812D83
:100AE0002808F7002908B2002A08B1002B08B00036
:100AF000812D2408F7002508B2002608B100270838
:100B0000B0003208F8003108F9003008FA00C02DB2
:100B1000F701F801F901FA01C02DAF01B009B109DF
:100B2000B209AF09AF0A031D9B2DB00A031D9B2D0F
:100B3000B10A0319B20A2E18A92CAE18EB2C2E19E3
:100B4000212D502D0008B007031CAC2DB10A031D48
:100B5000AC2DB20A03192C1484030008B107031C3E
:100B6000B42DB20A03192C1484030008801F803AA4
:100B7000B20703182C142E1AB02CAE1AF22C282D02
:100B800083120034D101D001CF01CE010030F80032
:100B90001F08C73978049F002130F700F70BCE2DCE
:100BA0001F151F19D12D83161E088312C8001E0899
:100BB000C900C808031DDF2DC9080319E32D490822
:100BC000033C0318EC2D4E08F7004F08F8005008BE
:100BD000F9005108FA009F2E4908D8004808D700AC
:100BE0001C237708D2007808D3007908D4007A084B
:100BF000D5008316A700831279088316A6008312F6
:100C000078088316A500831277088316A400AB0129
:100C1000C030AA007F30A9008830A8008312392391
:100C20007708D6007808D7007908D8007A08D90064
:100C30008316A300831279088316A2008312780812
:100C40008316A100831277088316A000A701A601CE
:100C50002030A5008130A400831205247A08CD003D
:100C60007908CC007808CB007708CA004D088316B5
:100C7000A70083124C088316A60083124B08831624
:100C8000A50083124A088316A400AB01AA012030F4
:100C9000A9008130A800831239237708D200780890
:100CA000D3007908D4007A08D50083147A08831613
:100CB000A700831279088316A6008312780883168A
:100CC000A500831277088316A4000A30AB00D73042
:100CD000AA002330A9007C30A80083127C24770866
:100CE000D6007808D7007908D8007A08D90083168A
:100CF000A700831279088316A6008312780883164A
:100D0000A500831277088316A4005F30AB0029305A
:100D1000AA004B30A9007730A800831239237A0843
:100D2000D1007908D0007808CF007708CE004E08AF
:100D3000F7004F08F8005008F9005108FA00003495
:100D400083162108A8002508A806A81FAC2E0311A9
:100D50000310A11B0314DF2E2108A8002408A900FA
:100D60002008A9020319BA2EA81FDF2E0308013A92
:100D70008300DF2E2508A9002108A9020319C62E29
:100D8000A81FDF2E0308013A8300DF2E2608A900E2
:100D90002208A9020319D22EA81FDF2E0308013A48
:100DA0008300DF2E2708A9002308A9020319DE2EDD
:100DB000A81FDF2E0308013A8300DF2E03108312E1
:100DC0000034F701F801F901FA01D901DA01DB0178
:100DD000DC01580857045604550403191F2F20300E
:100DE000DD000310D10DD20DD30DD40DD90DDA0DC8
:100DF000DB0DDC0D58085C02031D082F57085B0251
:100E0000031D082F56085A02031D082F55085902C2
:100E1000031C192F5508D9025608031C560FDA0275
:100E20005708031C570FDB025808031C580FDC023D
:100E30000314F70DF80DF90DFA0DDD0BF12E5930F5
:100E40008400831300348E30F70083162108F800E5
:100E50002008F900FA01A11F322FF809F909F90A4F
:100E60000319F80AF808031D3F2F7908F800F90163
:100E70000830F702F808031D3F2FF701482F031031
:100E8000F81B462FF90DF80DF7033F2FA11FF8139C
:100E9000831200342E0B552F2C08AC0A023C031889
:100EA000522FAC01AE010130AD002C08FC3E0318FE
:100EB0009B2F043E9E2F2D0B6F2FAD010130AA00FA
:100EC0002810280883168700831207100130BC0001
:100ED00069220130A900AE01B001AB019B2F2D0B9F
:100EE000812FAD01AA0128102808831687008312DC
:100EF00007140130BC0069220130A900AE01B00125
:100F00009B2F2D0B8E2FAD010130BA00BC00692242
:100F10000130A900AE01B001AB019B2F2D0B9B2F1F
:100F2000AD01BA010130BC0069220130A900AE0157
:100F3000B001AB019B2F8A150A12682F0A148A147C
:100F40000A158207812F5B2F6F2F8E2F2C08033CF1
:100F5000031DC62FBA08031DB92FAA08031DB82FF9
:100F60000130AA0028102808831687008312071072
:100F7000C42F2A0BC32FAA01BA01281028088316F0
:100F8000870083120714AC012A08B9008A150A12D7
:100F90006C2F8E30F7003C08F7023D08F9003E0840
:100FA000F800F917F7080319E02F0310F908031DDB
:100FB000DC2FF8080319E02FF90CF80CF70BD52FEC
:100FC000BD1FE72FF809F909F80A0319F90A8A156C
:040FD0000A12782F5A
:101000000408C9004808CB0003192928470883169B
:10101000A300831246088316A20083124508831694
:10102000A100831244088316A000A701A601203066
:10103000A5008230A4008A11831205248A157A083B
:10104000C7007908C6007808C5007708C400CB0B34
:1010500006284708D4004608D3004508D2004408B3
:10106000D1005108B63CD100FA015208D500D21780
:101070000310D20CD30CD40CFA0CF90CF80CF70CAE
:10108000D10B3828D51F4F28F709F809F909FA09B3
:10109000F70A0319F80A0319F90A0319FA0A7A0870
:1010A000C7007908C6007808C5007708C400C71FC4
:1010B0006628C903C916C409C509C609C709C40AEF
:1010C0000319C50A0319C60A0319C70A3B30D00021
:1010D0009A30CF00CA30CE00CD010A30CB0048088C
:1010E0000319C90A4708D4004608D3004508D200AE
:1010F0004408D1005008D8004F08D7004E08D60049
:101100004D08D5008A11E1268A150008C400840A1A
:101110000008C500840A0008C600840A0008C70049
:10112000FD308407F708031DA828480A4B0203195D
:10113000A82849080319AA280F394B020319A22825
:101140000318E228C91BE228491BAA282030DC2802
:101150002030C905C91EBA28C9124808031DC90391
:101160007708C9002D30D1008A11A1228A154908BB
:10117000F700C90148084B02031DCA287708C900B7
:101180002E30D1008A11A1228A154908F70020309B
:10119000C90500303030C91EDC28C9124808031DBB
:1011A000C9037708C9002D30D1008A11A1228A1500
:1011B0004908F700C9013030F7077708D1008A11D4
:1011C000A1228A155008D4004F08D3004E08D2003F
:1011D0004D08D100D801D701D6010A30D5008A11B7
:1011E000E1268A157A08D0007908CF007808CE0069
:1011F0007708CD00CB0B722800340830F8001F08A8
:10120000C73978049F002130F700F70B05291F1517
:101210001F19082983161E088312C8001E08C9005A
:101220004808D200D208031D17290130D200D80186
:101230005208D7008A111C238A158316A701A6011C
:10124000A5018930A4007A08AB007908AA007808C3
:10125000A9007708A8008A11831239238A15770814
:10126000D7007808D8007908D9007A08DA00831402
:101270007A088316A700831279088316A6008312C2
:1012800078088316A500831277088316A400AB01A3
:10129000AA01A9017F30A8008A1183127C248A1533
:1012A0008316A701E830A6001930A5008C30A400F1
:1012B0007A08AB007908AA007808A9007708A80086
:1012C0008A11831239238A157A08D6007908D50045
:1012D0007808D4007708D3005308F7005408F800C2
:1012E0005508F9005608FA007A08CD007908CC00B4
:1012F0007808CB007708CA004D08D5004C08D40008
:101300004B08D3004A08D200D901D8014830D70091
:101310008530D600DD01DC01DB017F30DA005508C5
:101320008316A700831254088316A600831253085D
:101330008316A500831252088316A400AB018030E7
:10134000AA006D30A9008830A8008A1183123923C1
:101350008A157708DE007808DF007908E0007A084F
:10136000E1008316A300831260088316A200831293
:101370005F088316A10083125E088316A000CD309B
:10138000A700CC30A6004C30A5007B30A4008A1109
:101390008312A0268A15031CD6295608F700570881
:1013A000F8005808F9005908FA00862D55088316E8
:1013B000A700831254088316A600831253088316CD
:1013C000A500831252088316A400AB018030AA0046
:1013D0006D30A9008830A8008A11831239238A153C
:1013E0007708DE007808DF007908E0007A08E1007D
:1013F0006108E5006008E4005F08E3005E08E200C1
:101400006508E9006408E8006308E7006208E60090
:1014100069088316A300831268088316A20083124A
:1014200067088316A100831266088316A000A7012F
:10143000A601A5017F30A4008A118312A0268A1577
:101440000319E12C8316A1016630A0002008840056
:101450008313211883177E30800083148312690858
:101460008316A700831268088316A60083126708F4
:101470008316A500831266088316A400AB01AA0197
:10148000A9017F30A8008A1183127C248A1577086D
:101490008316A0007808A1007908A2007A08A300AA
:1014A0008310831269088316A700831268088316C5
:1014B000A600831267088316A500831266088316A8
:1014C000A400AB01AA01A9017F30A8008A118312F0
:1014D0007C248A1583162308A7002208A600210869
:1014E000A5002008A4007A08AB007908AA007808B3
:1014F000A9007708A8008A11831239238A157A086F
:10150000E9007908E8007808E7007708E60069084C
:101510008316A300831268088316A200831267084B
:101520008316A100831266088316A000831269083F
:101530008316A700831268088316A6008312670823
:101540008316A500831266088316A4008A118312ED
:1015500005248A157A08F5007908F4007808F30064
:101560007708F200BC308316A3002430A200673055
:10157000A1007D30A0007508A7007408A6007308BC
:10158000A5007208A4008A11831205248A15770821
:101590008316A0007808A1007908A2007A08A300A9
:1015A00083102308A7002208A6002108A500200810
:1015B000A400E330AB00E430AA009030A9008230F0
:1015C000A8008A1183127C248A157A08ED00790814
:1015D000EC007808EB007708EA006D088316A3009A
:1015E00083126C088316A20083126B088316A10075
:1015F00083126A088316A0007508A7007408A60065
:101600007308A5007208A4008A11831205248A15A4
:1016100077088316A0007808A1007908A2007A084C
:10162000A30083102308A7002208A6002108A50014
:101630002008A4001C30AB008730AA005730A90056
:101640008330A8008A1183127C248A157A08ED0061
:101650007908EC007808EB007708EA006D0883163B
:10166000A30083126C088316A20083126B088316F2
:10167000A10083126A088316A0007508A7007408E9
:10168000A6007308A5007208A4008A11831205241D
:101690008A1577088316A0007808A1007908A200AF
:1016A0007A08A30083102308A7002208A6002108B7
:1016B000A5002008A400AB30AB00E130AA009E30AA
:1016C000A9008330A8008A1183127C248A157A0825
:1016D000ED007908EC007808EB007708EA00831643
:1016E000A301A201A1017F30A0007508A700740822
:1016F000A6007308A5007208A4008A1183120524AD
:101700008A1577088316A0007808A1007908A2003E
:101710007A08A30083102308A7002208A600210846
:10172000A5002008A400B430AB002A30AA00823003
:10173000A900A8008A1183127C248A157A08F10076
:101740007908F0007808EF007708EE00710883163A
:10175000A3007008A20083126F088316A1008312F1
:101760006E088316A0007508A7007408A600730809
:10177000A5007208A4008A11831205248A1577082F
:101780008316A0007808A1007908A2007A08A300B7
:1017900083102308A7002208A6002108A50020081E
:1017A000A4008030AB003E30AA000630A900833090
:1017B000A8008A1183127C248A157A08F10079081E
:1017C000F0007808EF007708EE0071088316A30098
:1017D0007008A20083126F088316A10083126E089E
:1017E0008316A0007508A7007408A6007308A5005A
:1017F0007208A4008A11831205248A1577088316BB
:10180000A0007808A1007908A2007A08A30083103C
:101810002308A7002208A6002108A5002008A4008C
:10182000AB30AB00E130AA009E30A9008230A800A6
:101830008A1183127C248A157A08F1007908F00055
:101840007808EF007708EE0069088316A30083127A
:1018500068088316A200831267088316A10083120A
:1018600066088316A00083126D088316A7008312F2
:101870006C088316A60083126B088316A5008312DA
:101880006A088316A4008A11831205248A15770832
:101890008316A0007808A1007908A2007A08A300A6
:1018A000A7002208A6002108A5002008A4007108AE
:1018B000AB007008AA0083126F088316A900831278
:1018C0006E088316A8008A11831239238A157A08B4
:1018D000ED007908EC007808EB007708EA00831641
:1018E000A1016230A000200884008313211883170F
:1018F0007E300002F600F61F922C7608003CA10113
:10190000A000A01BA1038A11831223278A15770840
:10191000EE007808803AEF007908F0007A08F100CC
:10192000A32C8316A1017608A000A01BA1038A1195
:10193000831223278A157A08F1007908F0007808C5
:10194000EF007708EE0071088316A3007008A2006C
:1019500083126F088316A10083126E088316A000FD
:101960001830A7007230A6003130A5007E30A400E8
:101970008A11831205248A1583106D088316A70027
:1019800083126C088316A60083126B088316A500C9
:1019900083126A088316A4007A08AB007908AA00AB
:1019A0007808A9007708A8008A1183127C248A1578
:1019B0007A08ED007908EC007808EB007708EA0077
:1019C000E52CED01EC01EB01EA016A08F7006B0878
:1019D000F8006C08F9006D08FA00B0308316A30017
:1019E0000630A2002530A1007330A0007A08A700BD
:1019F0007908A6007808A5007708A4008A11831248
:101A000005248A157708DF007808E0007908E100EE
:101A10007A08E200E4010408E3006410831B641404
:101A200083107A088316A700831279088316A6000C
:101A3000831278088316A500831277088316A40002
:101A40006230AB00EB30AA005B30A9007630A80012
:101A50008A1183127C248A15630884008313641816
:101A600083177A08DD007908DC007808DB00770846
:101A7000DA008316A701A601A5017F30A400831216
:101A80005D088316AB0083125C088316AA008312DC
:101A90005B088316A90083125A088316A8008A11CE
:101AA000831239238A157708DE007808DF00790869
:101AB000E0007A08E10083147A088316A7008312F5
:101AC00079088316A600831278088316A50083126E
:101AD00077088316A400AB018030AA000830A90063
:101AE0008730A8008A1183127C248A157A08D900CD
:101AF0007908D8007808D7007708D6005608F7008C
:101B00005708F8005808F9005908FA007A08D10077
:101B10007908D0007808CF007708CE004E08F7008B
:101B20004F08F8005008F9005108FA000034AC08DA
:101B3000031D252EFD207A08C3007908C20078080D
:101B4000C1007708C0008A11C2258A157A08BF0033
:101B50007908BE007808BD007708BC00831605161A
:101B60008312051ABA2DC701C6010230C50085309F
:101B7000C400C02DC701C6015C30C5008430C4005C
:101B800047088316A300831246088316A200831217
:101B900045088316A100831244088316A00083120F
:101BA0003F088316A70083123E088316A6008312FF
:101BB0003D088316A50083123C088316A4008A11F1
:101BC0008312A0268A15031C162E281528088316B2
:101BD000870083120719082E43088316A300831277
:101BE00042088316A200831241088316A1008312C3
:101BF00040088316A000A701A6013030A50083305D
:101C0000A4008A118312A0268A15031C082E252EF3
:101C1000AA08031D142E0130AA00BA0128102808B2
:101C20008316870083120710B601232EBA08031902
:101C3000232E2A0B232EAA01BA0128102808831666
:101C40008700831207142A08B8008A150A126A2F1F
:101C5000C101C001BF01BE011030F8001F08C73923
:101C600078049F002130F700F70B342E1F151F1941
:101C7000372E83161E088312BC001E08BD00BC0848
:101C8000031D452EBD080319492E3D08033C0318CA
:101C9000502E8330F7007030F800F901FA01C62E9B
:101CA0003D08D8003C08D7008A111C238A15770804
:101CB000C2007808C3007908C4007A08C5008316FA
:101CC000A300831244088316A200831243088316DC
:101CD000A100831242088316A0006630A700A60068
:101CE000A5008030A4008A11831205248A15770884
:101CF000C6007808C7007908C8007A08C9008316AA
:101D0000A700831248088316A6008312470883168B
:101D1000A500831246088316A400AB01AA01703007
:101D2000A9008430A8008A11831239238A157A0801
:101D3000C1007908C0007808BF007708BE004108DC
:101D40008316A300831240088316A20083123F0863
:101D50008316A10083123E088316A000A701A601E6
:101D6000A5017F30A4008A118312A0268A15031CC6
:101D7000BE2EC101C001BF017F30BE003E08F7008A
:101D80003F08F8004008F9004108FA008A150A12D5
:101D90006E2F840183131F30830583161F149F1435
:101DA0001F159F11FF308312A800A901AA01AB01E2
:101DB000AC01AD01AE01AF01B001B101B201B3019F
:101DC000B401B501B601B701B801B901BA01BB014F
:101DD000C830D2008A111B228A150630F700F71D81
:101DE000FA2E073081018130840083130008C03946
:101DF0000F3880006400813084000008C039770407
:101E00008000281028088316870083120710831685
:101E100086118312861183160612831206128A1106
:101E200074228A150130BC008A1169228A158A1130
:101E3000B42A8A151430BC00FA30D2008A111B2251
:101E40008A15BC0B1C2F0130BC008A1169228A152F
:101E50008A1174228A152815280883168700831290
:101E60009701A81428088316870083129D01831602
:101E70001F109F101F159F1183121F179F17831686
:101E80009F1783121F148B16C0308B04AA01AD015B
:101E9000B301B401B501AE01B001AF01B101281029
:101EA0002808831687008312071483160616051662
:101EB000831228152808831687008312AC0101308D
:101EC000A9000A168A1100280A128A158A114A2FB7
:101ED0008A15972D8A11A62F8A15282E7A08BF00F9
:101EE0007908BE007808BD007708BC008A11C92FA8
:0A1EF0008A157808BB00612F63001B
:102000004030C4000A1294220A162C08FC3E031821
:10201000AA28043E772B4F30D1000A12A1220A16BB
:102020004E30D1000A12A1220A160830BC0020301E
:10203000D1000A12A1220A16BC0B17280230BD00DB
:102040003D080A125C200A16BD0AF700D1000A12E8
:10205000A1220A1608303D02031D2028AA284F306D
:10206000D1000A12A1220A164630D1000A12A1227A
:102070000A164630D1000A12A1220A160730BC0007
:102080002030D1000A12A1220A16BC0B40280330CE
:10209000BD003D080A1269200A16BD0AF700D100EA
:1020A0000A12A1220A1609303D02031D4928AA2856
:1020B000BC013C080A1277200A16BC0AF700D100BE
:1020C0000A12A1220A1604303C02031D59280630C8
:1020D000BD002030D1000A12A1220A16BD0B6928CA
:1020E0000430BE003E080A1277200A16BE0AF70026
:1020F000D1000A12A1220A160A303E02031D7228DC
:10210000AA28BC013C080A1286200A16BC0AF7005D
:10211000D1000A12A1220A1607303C02031D8228B0
:102120000330BD002030D1000A12A1220A16BD0BD7
:1021300092280730BE003E080A1286200A16BE0A00
:10214000F700D1000A12A1220A160D303E02031D2B
:102150009B28AA28350B452AB5018B120B138B132C
:102160008B1BAF280130BC000A1269220A16C40179
:102170000A1294220A16BC013C080A1298200A1678
:10218000BC0AF700D1000A12A1220A1610303C0244
:10219000031DBC284030C4000A1294220A1683167C
:1021A00005168312051AF1284130BD001B30BE0010
:1021B0000A12E7220A162530D1000A12A1220A16B5
:1021C0000430BC003C080A12AD200A16BC0AF70015
:1021D000D1000A12A1220A1611303C02031DE22886
:1021E0000F290630BC002030D1000A12A1220A16A5
:1021F000BC0BF3283730BD001B30BE000A12E722AB
:102200000A162530D1000A12A1220A160730BD0095
:102210002030D1000A12A1220A16BD0B08290C3069
:10222000BC00FA30D2000A121B220A16BC0B11297C
:102230000130BC000A1269220A16C4010A12942253
:102240000A16BC013C080A12C3200A16BC0AF70091
:10225000D1000A12A1220A1610303C02031D2229C5
:102260004030C4000A1294220A160330BD001B300D
:10227000BE000A12E7220A160230BC003C080A120D
:10228000D8200A16BC0AF700D1000A12A1220A16A9
:1022900010303C02031D3E290C30BC00FA30D20045
:1022A0000A121B220A16BC0B4E290130BC000A126E
:1022B00069220A16C4010A1294220A16BC013C08BB
:1022C0000A12ED200A16BC0AF700D1000A12A12258
:1022D0000A1610303C02031D5F294030C4000A1268
:1022E00094220A160730BC002030D1000A12A12225
:1022F0000A16BC0B74291630BD001B30BE000A1232
:10230000E7220A16DF30D1000A12A1220A16433052
:10231000D1000A12A1220A160530BD002030D100DA
:102320000A12A1220A16BD0B8E290C30BC00FA300D
:10233000D2000A121B220A16BC0B97290130BC00DE
:102340000A1269220A16C4010A1294220A16BC0152
:102350003C080A1205210A16BC0AF700D1000A122D
:10236000A1220A160F303C02031DA8294030C400E8
:102370000A1294220A162815280883168700831249
:102380000719D229BC013C080A1219210A16BC0AF5
:10239000F700D1000A12A1220A1610303C02031DD8
:1023A000C329EA29BC013C080A122E210A16BC0ADC
:1023B000F700D1000A12A1220A160D303C02031DBB
:1023C000D3290330BD002030D1000A12A1220A1601
:1023D000BD0BE3290C30BC00FA30D2000A121B22DC
:1023E0000A16BC0BEC290130BC000A1269220A163D
:1023F000C4010A1294220A16BC013C080A124021A8
:102400000A16BC0AF700D1000A12A1220A161030DF
:102410003C02031DFD294030C4000A1294220A1612
:102420003B08BD001B30BE000A12E7220A166D30C1
:10243000D1000A12A1220A166930D1000A12A12283
:102440000A166E30D1000A12A1220A160B30BC0007
:102450002030D1000A12A1220A16BC0B282A0C3007
:10246000BC00FA30D2000A121B220A16BC0B312A19
:102470000130BC000A1269220A160130A900AE011F
:10248000B001AB018B16C0308B04290B742BA90152
:102490000A12C2250A167A08BF007908BE00780819
:1024A000BD007708BC00C4010A1294220A163F0836
:1024B0008316A30083123E088316A20083123D08F0
:1024C0008316A10083123C088316A000A701A60171
:1024D000A501A4010A128312A0260A16031D802A50
:1024E0004F30D1000A12A1220A162F30D1000A1251
:1024F000A1220A165230D1000A12A1220A16CD2AB0
:102500003F088316A30083123E088316A20083129D
:102510003D088316A10083123C088316A000A70182
:10252000A6014830A5008530A4000A128312A02617
:102530000A16031CB72A013084003F08C7003E0872
:10254000C6003D08C5003C08C4000130C8000A129E
:102550008A1500200A168A112530D1000A12A122FC
:102560000A162030D1000A12A1220A16CD2A013003
:1025700084003F08C7003E08C6003D08C5003C086F
:10258000C4000130C8000A128A1500200A168A11F8
:102590002530D1000A12A1220A160D30C4000A12F9
:1025A00094220A160A128A15FD200A168A117A0840
:1025B000C3007908C2007808C1007708C00043084A
:1025C0008316A300831242088316A20083124108D7
:1025D0008316A100831240088316A000A701A6015C
:1025E0004830A5008530A4000A128312A0260A16DE
:1025F000031D0A2B4F30D1000A12A1220A162F30D8
:10260000D1000A12A1220A165230D1000A12A122C8
:102610000A161F2B013084004308C7004208C60079
:102620004108C5004008C400C8010A128A150020EC
:102630000A168A11DF30D1000A12A1220A160630CA
:10264000C4000A1294220A16AC08031D4A2BB808CB
:10265000031D3A2BC40144080A1255210A16C40A64
:10266000F700D1000A12A1220A1606304402031D07
:102670002B2B492BC40144080A1260210A16C40AF4
:10268000F700D1000A12A1220A1606304402031DE7
:102690003B2B742B2A0B5C2BC40144080A126B21C0
:1026A0000A16C40AF700D1000A12A1220A1606303F
:1026B0004402031D4D2B742B4F30D1000A12A1226E
:1026C0000A164630D1000A12A1220A164630D1005D
:1026D0000A12A1220A160330C4002030D1000A12C7
:1026E000A1220A16C40B6D2B8A150A12642F0A1434
:0E26F0008A140A11820758280B282F288128E7
:02400E00393F38
:00000001FF
;PIC16F876
