:1000000000308A005A280000FF00030E8301A1007F
:100010000A08A0008A010408A2007708A300780853
:10002000A4007908A5007A08A6007B08A70083131E
:1000300083128B1E1D280B193028220884002308E8
:10004000F7002408F8002508F9002608FA00270818
:10005000FB0020088A00210E8300FF0E7F0E09009E
:100060008A110A123328043081000B118A110A12F6
:100070001D282A3084008313000803194D280130FD
:10008000F800F701F70B4228F80B41284A30F70037
:10009000F70B48284B28800B3F2800341F151F19E9
:1000A0004F2883161E088312A9001E08AA008A1171
:1000B0000A128D28840183131F30830583161F14B1
:1000C0009F141F159F11FF308312A800C830AA008B
:1000D000392083160612831206120C30A900FA305A
:1000E000AA003920A90B6F2883161F109F141F1513
:1000F0009F1583121F179F1783169F1783121F14B4
:100100000030F8001F08C73978049F008B16C030F4
:0E0110008B048316861683124E288C286300FB
:02400E00393F38
:00000001FF
;PIC16F876
