:100000009CC0C0C075C3BEC000C3BCC0BBC0BAC02A
:10001000B9C0B8C0B7C0B6C0B5C0B4C0B3C02A2B51
:1000200028000000000000000000000000000000A8
:100030000029000000002C9EB4A0A1A2A434A6A711
:10004000A5AE362D3738271E1F2021222324252632
:10005000B333B62EB7B89F8485868788898A8B8C00
:100060008D8E8F909192939495969798999A9B9C48
:100070009D2F3130A3AD350405060708090A0B0C86
:100080000D0E0F101112131415161718191A1B1C28
:100090001DAFB1B0B505010906A101050719E02999
:1000A000E715002501750195088102950175082560
:1000B00065190029658100C01003530069007300B1
:1000C000790066006F00730028036B0065006E0006
:1000D0002E0072006F00670065007200400067002C
:1000E0006D00610069006C002E0063006F006D0000
:1000F00004030904090222000101008032090400FE
:100100000001030101000921010100012223000770
:1001100005810308000A1201100100000008AC0567
:10012000272200010102000100370038010101010E
:100130000101010204081020AC0511241FBECFE507
:10014000D2E0DEBFCDBF10E0A0E6B0E0E0EDFBE026
:1001500002C005900D92AC36B107D9F720E0ACE6AD
:10016000B0E001C01D92AA3BB207E1F710E0CDE973
:10017000D0E003C02197FE0123D5CC39D107D1F7B8
:1001800015D424C53DCFE3E3F1E09491EDE2F1E035
:10019000E491EE23C9F02AB52F7C2ABDF0E0E65D9C
:1001A000FE4FA491B0E0811109C02FB7F8948C9153
:1001B000E92FE095E823EC932FBF08958FB7F894CB
:1001C000EC91E92BEC938FBF08950895EF92FF9285
:1001D0000F931F93CF93DF937C01EB018B01040FEF
:1001E000151FC017D10751F06991D701ED91FC910E
:1001F0000190F081E02DC7010995F3CFDF91CF91F8
:100200001F910F91FF90EF9008950F931F93CF933D
:10021000DF93EC018B01F80161918F01662341F0BE
:10022000E881F9810190F081E02DCE010995F3CFAD
:10023000DF91CF911F910F910895FC018091920061
:1002400084FF07C08091930098E8982790939300CB
:1002500003C08AE58093920080818093940081811D
:100260008093950062E084E990E02BD286E0809351
:1002700092000895CF92DF92EF92FF920F931F9317
:10028000CF93DF938091A100835087FDADC0909103
:100290009F009D3209F0A6C0883009F0A3C080916C
:1002A000A000ECE0F0E0E81BF109EC55FF4F83EC17
:1002B000809387008AE58093610010926D008081B1
:1002C000807641F083E790E090936F0080936E001A
:1002D00080E07FC09281109290008181811106C0E0
:1002E0001092910020E930E082E06FC0853019F46F
:1002F0009093A20067C0863009F04EC083818130A0
:1003000041F486E191E090936F0080936E0082E16A
:100310003FC0823041F484EF90E090936F0080936F
:100320006E0082E235C08330F1F4911108C080EF95
:1003300090E090936F0080936E0084E029C091302C
:1003400041F488EC90E090936F0080936E0088E217
:100350001FC09230E1F488EB90E090936F0080939F
:100360006E0080E115C0813241F486E091E0909307
:100370006F0080936E0089E00BC0823241F485E902
:1003800090E090936F0080936E0083E201C080E064
:1003900090E490936D001DC0883069F0893019F4A5
:1003A00090936C000FC08A3049F08B3059F48BE485
:1003B0008093930007C02CE630E002C020E930E0D3
:1003C00081E003C020E930E080E030936F002093AB
:1003D0006E009781911104C09681981708F4892FB7
:1003E000809360001092A1008091610084FF46C05C
:1003F000809160008F3F09F441C0C82F893008F018
:10040000C8E08C1B809360009091870088E8892762
:1004100080938700CC2331F140916E0050916F00A2
:1004200080916D0086FF0AC0A8E8B0E0FA019C2F19
:1004300084918D9331969150D9F708C0DA01E8E89C
:10044000F0E09C2F8D9181939150E1F72FEF2C0FCD
:1004500030E02F5F3F4FCA01820F931F90936F00D0
:1004600080936E006C2F88E890E02BD1CC5FCC306D
:1004700019F08FEF80936000C093610084E196B320
:10048000987131F48150D9F71092A20010929E0019
:10049000DD24D3948111D12C90917000D916B9F13B
:1004A000882399F1F89408E010E0C0E0D0E8CD2E60
:1004B000CC0EC1BE0AD17C0184E3E81689E0F806BF
:1004C0000CF4CC2DD6950150110989F78FEF8C0FC4
:1004D00081BF0C2F10E00F5F1F4F81B790E008170E
:1004E00019078CF0F2D08453994097FF03C091957F
:1004F000819591098E159F0514F4C1B77C0181B7D0
:100500008F5F81BFEACFC1BF7894D0927000DF9136
:10051000CF911F910F91FF90EF90DF90CF900895B2
:100520008F929F92AF92BF92CF92DF92EF92FF9203
:100530006B017C012FB7F894809183009091840027
:10054000A0918500B09186002FBF1C141D041E04CD
:100550001F04BCF42FB7F89480908300909084001F
:10056000A0908500B09086002FBFC818D908EA086F
:10057000FB08C80ED91EEA1EFB1E7CDED501C40195
:10058000E4CFFF90EF90DF90CF90BF90AF909F901F
:100590008F9008950F931F93CF93DF93EC01162F45
:1005A000042F8091920084FD08C064DE80E990E50C
:1005B0000197F1F700C00000F4CF0A831B83CE013E
:1005C0000296DF91CF911F910F9137CECF93DF939A
:1005D000EC01E0DF40E060E0CE01DF91CF91DACFC7
:1005E000E62FF0E0EA5EFF4F6491262F30E0220F05
:1005F000232F221F330B232B11F440E001C040E2D4
:100600006F77E4DF81E090E0089578941F920F9275
:100610000FB60F9211242F933F938F939F93AF9315
:10062000BF938091830090918400A0918500B09148
:100630008600309182002CE7230F2D3728F02FEF12
:10064000230F0196A11DB11D20938200809383008A
:1006500090938400A0938500B093860080917E00E3
:1006600090917F00A0918000B09181000196A11D22
:10067000B11D80937E0090937F00A0938000B09383
:100680008100BF91AF919F918F913F912F910F90DA
:100690000FBE0F901F901895A82FB92F80E090E003
:1006A00041E050EA609530E009C02D91822797958E
:1006B000879510F084279527305EC8F36F5FA8F305
:1006C0000895EADF8D939D930895A6E088279927E2
:1006D000AA9569F00197E1F3B399FCCFB39BFECFE4
:1006E00081E09927A6B3019611F0A871D9F7089572
:1006F000CF93CFB7CF93C395B39BE9F7B39B0BC011
:10070000B39B09C0B39B07C0B39B05C0B39B03C099
:10071000B39B01C0D5C00F92DF93C091A000DD272D
:10072000CC55DF4F012EB39B03C0DF910F90E6CF76
:100730002F930F931F934F932FEF4F6F06B303FB2E
:1007400020F95F933F9350E03BE065C016B301266C
:10075000502953FDC89556B3012703FB25F92F7384
:1007600006B3B1F05027102713FB26F906B222304A
:10077000F0F000C016B3012703FB27F9012650292A
:1007800006B22430E8F54F77206816B30000F6CFA4
:1007900050274F7D206206B2102F000000C006B324
:1007A00000265029102713FB26F906B2E2CF4F7B13
:1007B00006B3206400C0DACF01265029187106B2B2
:1007C00069F14E7F2160012F16B328C00026502901
:1007D0004D7F06B22260102F29C0012650294B7F81
:1007E00006B22460012F2DC016B301265029477F81
:1007F0002860000006B22EC04F7E06B3206130C0D4
:10080000422706B3499300265029102706B24FEF1E
:1008100013FB20F9297F16B379F2187159F10126DB
:10082000502906B2012703FB21F9237F06B371F299
:10083000002650293150D0F006B2102713FB22F9C0
:10084000277E16B351F201265029012703FB06B279
:1008500023F92F7C49F2000006B3102713FB24F97B
:100860000026502906B22F7939F270CF10E21ABF54
:10087000002719C03B503195C31BD04010E21ABF6E
:100880000881033C09F10B34F9F020919E00198195
:10089000110F1213EDCF4A81441F093651F10D3269
:1008A00011F0013E29F70093A3003F915F914F9112
:1008B0001F910F912F91DF910F90CAB7C5FD1BCFEC
:1008C000CF91CFBFCF9118952091A300222369F338
:1008D0001091A100112379F534307AF13093A10001
:1008E00020939F001091A0003BE0311B3093A000AB
:1008F00024C00091A1000130F4F40AE54F7049F4DE
:100900003091610034FD1AC000936100C7E8D0E067
:1009100019C03091920034FD11C000939200C3E9D8
:10092000D0E010C0052710E000C021C0052710E06E
:10093000C89508BB14C03AE501C032ED032EC0E0F3
:10094000D0E032E017B31861C39A08B317BB58E17F
:1009500020E84FEF20FF052708BB279517951C3F80
:1009600028F700004552B0F720FF0527279508BB60
:1009700017951C3FB8F629913A9561F7077E1091BB
:10098000A200110F08BBC250D04011F010939E007E
:1009900010E21ABF086017B3177E402F477E54E05D
:1009A0005A95F1F708BB17BB48BB7FCF789480B747
:1009B000806880BF80B7806480BF8CB580648CBD48
:1009C0008FEF8DBD80B7807F876080BF89B78460DF
:1009D00089BF83B7887F83BF8AB58C7F81608ABDDA
:1009E00083B7877F83BF83B7887F836083BF86B1E8
:1009F000876086B9379AE3E3F1E02491EDE2F1E014
:100A0000E491EE2389F08E2F90E0FC01E85DFE4F2B
:100A1000A491B0E0FC01E65DFE4F84918FB7F8949D
:100A2000EC91E22BEC938FBF25DCCAE081E0ABDBDD
:100A300068E270E080E090E073DD80E0A4DB68E2D3
:100A400070E080E090E06CDDC15081F713DC68EE6F
:100A500073E080E090E064DD40E060E081E790E0FA
:100A6000B5DD2FB7F8948091830090918400A09118
:100A70008500B09186002FBF8093790090937A0013
:100A8000A0937B00B0937C0081E080937D00F2DB3B
:100A900080917D00882309F459C08FB7F894409164
:100AA00083005091840060918500709186008FBF13
:100AB0000091790010917A0020917B0030917C00A8
:100AC0008091750090917600A0917700B0917800A8
:100AD000401B510B620B730B481759076A077B07C2
:100AE000A8F1800F911FA21FB31F809379009093EC
:100AF0007A00A0937B00B0937C00C3E081E043DBED
:100B000062E370E080E090E00BDD80E03CDB62E3DC
:100B100070E080E090E004DDC15081F740E060E0EB
:100B200081E790E053DD81E02EDB40E160E081E78A
:100B300090E04CDD6CE271E080E090E0F1DC80E080
:100B400022DB6CE271E080E090E0EADC6AE070E0D9
:100B500080E090E0E5DC9BCF86E690E09093720029
:100B600080937100F894BB9A27EA86E99CE02150B3
:100B700080409040E1F700C00000BB98AC9A8BB772
:100B800080628BBFE2E9F0E08BE481838AE58083B9
:100B90007894109274001092730083E790E04DDB1C
:100BA000E5E7F0E080E49CE9A0E0B0E08083918399
:100BB000A283B38314821582168217821086089549
:100BC000EE0FFF1F0590F491E02D0994F894FFCFEC
:0C0BD000FF5A00000000F0020501E600E2
:00000001FF
