:100000008AC0AEC08BC3ACC016C3AAC0A9C0A8C06A
:10001000A7C0A6C0A5C0A4C0A3C0A2C0A1C02C5E9A
:100020007460616264346667656E362D3738271EEA
:100030001F202122232425267333762E77785F44D0
:1000400045464748494A4B4C4D4E4F5051525354E8
:1000500055565758595A5B5C5D2F3130636D3504E6
:1000600005060708090A0B0C0D0E0F1011121314C8
:1000700015161718191A1B1C1D6F7170752A0501AA
:100080000906A101050719E029E7150025017501F9
:10009000950881029501750825651900296581007B
:1000A000C01003530069007300790066006F00738D
:1000B000001A034B005200410074006500630068A1
:1000C0000020004C00610062007300040309040971
:1000D0000222000101008032090400000103010135
:1000E0000009210101000122230007058103080006
:1000F0000A1201100100000008AC052722000201CD
:100100000200010038003701010101010101020470
:1001100008102000D50511241FBECFE5D2E0DEBFB8
:10012000CDBF20E0AAE6B0E001C01D92AB3BB20714
:10013000E1F710E0A0E6B0E0E8E2FCE002C00590E4
:100140000D92AA36B107D9F710E0CBE8D0E003C092
:100150002197FE0161D5CA38D107D1F73DD462C5D8
:100160004FCF90E0FC01E35FFE4F2491895F9E4FEB
:10017000FC018491882381F090E0FC01EB5FFE4F4D
:10018000A491B0E08D5F9E4FFC0184918FB7F894ED
:10019000EC91E22BEC938FBF0895282F30E0F9010A
:1001A000E35FFE4F9491F901E95FFE4FE491EE2386
:1001B000A1F0811113C08AB58F738ABDF0E0ED5FA5
:1001C000FE4FA491B0E08FB761110BC0F8942C9151
:1001D000E92FE095E223EC938FBF08958AB58F7CD9
:1001E000ECCFF894EC91E92BF6CFCF92DF92EF921F
:1001F000FF920F931F93CF93DF936C01EB017B0171
:10020000E40EF51E10E000E0CE15DF0561F0699107
:10021000D601ED91FC910190F081E02DC601099588
:10022000080F191FF1CFC801DF91CF911F910F91D6
:10023000FF90EF90DF90CF900895FC0180919300A4
:1002400084FF14C09091940088E8982790939400BC
:1002500080818093950081818093960062E085E99A
:1002600090E045D286E08093930008958AE58093DC
:100270009300EECFCF92DF92EF92FF920F931F93F6
:10028000CF93DF938091A200835087FD2CC0909183
:10029000A0009D3231F5883021F58091A100ECE07D
:1002A000F0E0E81BF109EB55FF4F83EC80938800E9
:1002B0008AE58093610010926B008081807609F45A
:1002C00094C084E790E090936D0080936C0080E090
:1002D0009781911104C09681981708F4892F809313
:1002E00060001092A2008091610084FF3CC0809168
:1002F00060008F3FC1F1C82F893008F0C8E0982F07
:100300009C1B909360009091880028E8922790931E
:1003100088008823E1F040916C0050916D0080913D
:100320006B0086FFDFC0A9E8B0E0FA019C2F849142
:100330008D9331969150D9F72FEF2C0F30E02F5F2E
:100340003F4F240F351F30936D0020936C006C2FAE
:1003500089E890E0CCD1CC5FCC3019F08FEF80935E
:100360006000C093610084E196B3987131F48150CC
:10037000D9F71092A30010929F00DD24D39481112D
:10038000D12C90916E00D91639F1882319F1F89487
:1003900008E010E0C0E0D0E8CD2ECC0EC1BEABD15D
:1003A0007C0184E3E81689E0F8060CF4CC2DD695A0
:1003B0000150110989F78FEF8C0F81BF0C2F10E0CE
:1003C0000F5F1F4F81B78017110609F00CF493C01F
:1003D000C1BF7894D0926E00DF91CF911F910F91A1
:1003E000FF90EF90DF90CF900895228110929100BE
:1003F000918191110AC01092920021E930E082E0CF
:1004000030936D0020936C0063CF953029F42093D6
:10041000A30021E930E0F4CF963009F04CC093817D
:10042000913059F481EF90E090936D0080936C00CF
:1004300082E190E490936B004BCF923041F48FECCB
:1004400090E090936D0080936C0082E2F2CF933045
:10045000F1F4211108C08BEC90E090936D00809333
:100460006C0084E0E6CF213041F481EB90E0909382
:100470006D0080936C008AE1DCCF2230D1F681EAF6
:1004800090E090936D0080936C0080E1D2CF913228
:1004900041F481EE90E090936D0080936C0089E0D0
:1004A000C8CF923231F68EE790E090936D00809342
:1004B0006C0083E2BECF983071F0993019F420932C
:1004C0006A00A7CF9A3059F09B3009F0A2CF9BE485
:1004D000909394009ECF2AE630E081E091CF21E90D
:1004E00030E0FBCFDA01E9E8F0E09C2F8D918193B9
:1004F0009150E1F721CFFFD08453994097FF03C07B
:100500009195819591098E159F0514F4C1B77C01D1
:1005100081B78F5F81BF56CF8F929F92AF92BF926C
:10052000CF92DF92EF92FF926B017C012FB7F8948C
:100530008091840090918500A0918600B091870001
:100540002FBF2FB7F8948090840090908500A090E2
:100550008600B09087002FBFC818D908EA08FB08AA
:10056000C80ED91EEA1EFB1E85DED501C4011C146F
:100570001D041E041F042CF3FF90EF90DF90CF901A
:10058000BF90AF909F908F9008950F931F93CF933C
:10059000DF93EC01162F042F8091930084FD08C097
:1005A00069DE80E990E50197F1F700C00000F4CF23
:1005B0000D831E83CE010596DF91CF911F910F9180
:1005C0003CCEFF920F931F93CF93DF936930A9F036
:1005D0006A3079F1603248F0262F2052330BF9014E
:1005E000E25EFF4FC491C11109C081E090E0DF914C
:1005F000CF911F910F91FF900895CBE2FC01D48120
:1006000022E0F22EC6FFF12C8C01CF73DD2319F00E
:1006100061E081E0C2DD4F2D6C2FC801B6DF40E004
:1006200060E0C801B2DFDD2301F360E081E0B5DD09
:10063000DCCFC8E2E3CF78941F920F920FB60F92EF
:1006400011242F933F938F939F93AF93BF938091E8
:10065000840090918500A0918600B0918700309130
:1006600083002CE7230F2D3728F02FEF230F01965F
:10067000A11DB11D20938300809384009093850079
:10068000A0938600B093870080917F0090918000B6
:10069000A0918100B09182000196A11DB11D8093AF
:1006A0007F0090938000A0938100B0938200BF915F
:1006B000AF919F918F913F912F910F900FBE0F900F
:1006C0001F901895A82FB92F80E090E041E050EAE4
:1006D000609530E009C02D9182279795879510F09D
:1006E00084279527305EC8F36F5FA8F30895EADF8B
:1006F0008D939D930895A6E088279927AA9569F080
:100700000197E1F3B399FCCFB39BFECF81E099272A
:10071000A6B3019611F0A871D9F70895CF93CFB77A
:10072000CF93C395B39BE9F7B39B0BC0B39B09C0B1
:10073000B39B07C0B39B05C0B39B03C0B39B01C071
:10074000D5C00F92DF93C091A100DD27CB55DF4FBD
:10075000012EB39B03C0DF910F90E6CF2F930F9331
:100760001F934F932FEF4F6F06B303FB20F95F9357
:100770003F9350E03BE065C016B30126502953FD7E
:10078000C89556B3012703FB25F92F7306B3B1F0C3
:100790005027102713FB26F906B22230F0F000C0D4
:1007A00016B3012703FB27F90126502906B224308E
:1007B000E8F54F77206816B30000F6CF50274F7D3D
:1007C000206206B2102F000000C006B30026502998
:1007D000102713FB26F906B2E2CF4F7B06B3206445
:1007E00000C0DACF01265029187106B269F14E7F98
:1007F0002160012F16B328C0002650294D7F06B274
:100800002260102F29C0012650294B7F06B2246098
:10081000012F2DC016B301265029477F2860000004
:1008200006B22EC04F7E06B3206130C0422706B309
:10083000499300265029102706B24FEF13FB20F9E9
:10084000297F16B379F2187159F10126502906B2A1
:10085000012703FB21F9237F06B371F200265029FB
:100860003150D0F006B2102713FB22F9277E16B3C1
:1008700051F201265029012703FB06B223F92F7CF0
:1008800049F2000006B3102713FB24F90026502973
:1008900006B22F7939F270CF10E21ABF002719C0C3
:1008A0003B503195C31BD04010E21ABF0881033C76
:1008B00009F10B34F9F020919F001981110F1213E7
:1008C000EDCF4A81441F093651F10D3211F0013E3E
:1008D00029F70093A4003F915F914F911F910F91D1
:1008E0002F91DF910F90CAB7C5FD1BCFCF91CFBF1E
:1008F000CF9118952091A400222369F31091A200B2
:10090000112379F534307AF13093A2002093A000BE
:100910001091A1003BE0311B3093A10024C0009155
:10092000A2000130F4F40AE54F7049F430916100FF
:1009300034FD1AC000936100C8E8D0E019C03091BE
:10094000930034FD11C000939300C4E9D0E010C0BF
:10095000052710E000C021C0052710E0C89508BB9E
:1009600014C03AE501C032ED032EC0E0D0E032E021
:1009700017B31861C39A08B317BB58E120E84FEFCB
:1009800020FF052708BB279517951C3F28F7000077
:100990004552B0F720FF0527279508BB17951C3F48
:1009A000B8F629913A9561F7077E1091A300110FCF
:1009B00008BBC250D04011F010939F0010E21ABF44
:1009C000086017B3177E402F477E54E05A95F1F721
:1009D00008BB17BB48BB7FCF789480B7806880BFC7
:1009E00080B7806480BF8CB580648CBD8FEF8DBD77
:1009F00080B7807F876080BF89B7846089BF83B7F5
:100A0000887F83BF8AB58C7F81608ABD83B7877FEB
:100A100083BF83B7887F836083BF86B1876086B9D1
:100A2000379A81E09EDB80E09CDB24DCCEE161E054
:100A300081E0B3DB61E080E0B0DB68E270E080E0A1
:100A400090E06ADD60E081E0A8DB60E080E0A5DBAB
:100A500068E270E080E090E05FDDC15041F70ADCC1
:100A600064EF71E080E090E057DD40E160E08FE608
:100A700090E08BDD40E060E08FE690E086DD2FB710
:100A8000F8948091840090918500A0918600B091A7
:100A900087002FBF80937A0090937B00A0937C0007
:100AA000B0937D0081E080937E00E4DB80917E0046
:100AB000882309F474C08FB7F89440918400509152
:100AC000850060918600709187008FBF80917A00C9
:100AD00090917B00A0917C00B0917D000091760008
:100AE000109177002091780030917900481B590BC4
:100AF0006A0B7B0B401751076207730708F44FC05E
:100B0000800F911FA21FB31F80937A0090937B00E8
:100B1000A0937C00B0937D00C3E061E081E03DDB09
:100B200061E080E03ADB62E370E080E090E0F4DCDA
:100B300060E081E032DB60E080E02FDB62E370E0C8
:100B400080E090E0E9DCC15041F740E060E08FE6F2
:100B500090E01BDD40E060E08FE690E016DD61E0B4
:100B600081E01BDB61E080E018DB40E160E08FE6C4
:100B700090E00BDD40E060E08FE690E006DD6CE2A7
:100B800071E080E090E0C8DC60E081E006DB60E0DE
:100B900080E003DB6CE271E080E090E0BDDC6AE0C5
:100BA00070E080E090E0B8DC80CFEFE6F0E0138208
:100BB000128286E690E0918380831482F894BB9A37
:100BC00027EA86E99CE0215080409040E1F700C090
:100BD0000000BB98AC9A8BB780628BBFE3E9F0E072
:100BE0008BE481838AE5808378941092750010925B
:100BF000740084E790E021DBE6E7F0E080E49CE924
:100C0000A0E0B0E080839183A283B3831482158235
:100C10001682178210860895EE0FFF1F0590F4913B
:080C2000E02D0994F894FFCFC8
:0A0C2800FF5A00000000E102F50091
:00000001FF
