:100000000C9443010C947E090C946B010C946B01CD
:100010000C946B010C946B010C946B010C946B01B0
:100020000C946B010C946B010C945D060C94C60649
:100030000C946B010C946B010C946B010C946B0190
:100040000C946B010C946B010C946B010C946B0180
:100050000C946B010C946B010C946B010C940809CB
:100060000C946B010C946B010C946B010C946B0160
:100070000C946B010C946B010C946B010C946B0150
:100080000C946B010C946B010C946B010C946B0140
:100090000C946B010C946B010C946B010C946B0130
:1000A0000C946B010C946B010C946B012C5E7460CE
:1000B000616264346667656E362D3738271E1F20EF
:1000C0002122232425267333762E77785F444546F4
:1000D0004748494A4B4C4D4E4F5051525354555638
:1000E0005758595A5B5C5D2F3130636D35040506F6
:1000F0000708090A0B0C0D0E0F1011121314151618
:100100001718191A1B1C1D6F7170752A0501090635
:10011000A101050719E029E71500250175019508DA
:100120008102950175082565190029658100C010B7
:1001300003530069007300790066006F0073001AB2
:10014000034B00520041007400650063006800200A
:10015000004C0061006200730004030904090222DC
:1001600000010100803209040000010301010009BF
:1001700021010100012223000705810308000A1262
:1001800001100100000008AC052722000201020056
:10019000010000000200090F0000030401000C0030
:1001A000000000000000000000000000000000004F
:1001B000080B000202020000090400000102020014
:1001C0000005240010010524010101042402060594
:1001D0002406000107058103100040090401000204
:1001E0000A000000070502024000000705830240E4
:1001F00000000403090412010002EF0201409A23E7
:100200000E000001010203014164616672756974A8
:1002100000497473794269747379203332753420DC
:1002200035562031364D487A000000000025002860
:10023000002B002E00310000000000240027002ABF
:10024000002D00300004040404040304050202022B
:10025000020403020202020606060606060404025F
:100260000202040404080201104080401020408073
:1002700040800802040180402010020110801020FC
:10028000404020009F0A11241FBECFEFDAE0DEBFFE
:10029000CDBF11E0A0E0B1E0EEEDF8E102C00590C5
:1002A0000D92A433B107D9F721E0A4E3B1E001C076
:1002B0001D92AB3EB207E1F711E0C3E4D1E004C008
:1002C0002197FE010E94670CC234D107C9F70E9432
:1002D000ED0A0C946D0C0C94000090E0FC01EC59BC
:1002E000FD4F24918B5B9D4FFC018491882399F0F5
:1002F00090E0880F991FFC01E95CFD4FA591B49136
:10030000FC01E75DFD4F859194918FB7F894EC91D6
:10031000E22BEC938FBF089590915701911103C088
:100320008FEF9FEF08954FB7F89492E09093E90014
:100330009091F200292F30E01216130614F421E0F8
:1003400030E0232B29F084E6809356018091F10060
:10035000992339F02091F200211103C02BE620935C
:10036000E8004FBF9923E1F290E008952FB7F89489
:1003700083E08093E9009091E800892F807295FFD7
:1003800004C09091F20080E4891B2FBF08958091F2
:100390004E0181110DC082E080934A0184E0809378
:1003A0004B0110924D0110924C0181E080934E015F
:1003B0008AE491E00895CF93DF931F92CDB7DEB723
:1003C0006983DC01ED91FC910280F381E02D41E035
:1003D00050E0BE016F5F7F4F09950F90DF91CF9185
:1003E000089583E08093E9008091F200882319F05A
:1003F0008AE38093E80008950E94B60190E0089592
:10040000FC018485958597FD05C02FEF3FEF35876B
:10041000248708950C948C01CF93DF93EC018C8595
:100420009D8597FF04C00E948C019D878C878C85D9
:100430009D85DF91CF910895FC018485958597FD79
:100440000BC09FB7F89482E08093E9008091F2009E
:100450009FBF90E0019608959FB7F89482E0809343
:10046000E9008091F2009FBF90E00895409144011F
:1004700050914501209142013091430142175307A9
:10048000B4F49091E8009570E1F39091E80092FD4A
:1004900019C08093F100809144019091450101962B
:1004A0008F739927892B19F48EEF8093E800809140
:1004B0004401909145010196909345018093440138
:1004C00081E0089580E00895EF92FF920F931F93CB
:1004D000CF93DF93F82E192FE62E042F81E0860F9D
:1004E000880F0E94360283E00E943602CF2DD12F62
:1004F000EC0EFD2EF11CCE15DF05B9F007FF13C081
:10050000FE0184910E943602182F80E00E9436027C
:10051000812321968111EFCFDF91CF911F910F9110
:10052000FF90EF9008958881EDCF81E0F5CFDF92C5
:10053000EF92FF920F931F93CF93DF93D82E8A01F0
:10054000EB017B01E40EF51ECE15DF0559F0D7FE59
:1005500012C0FE0184910E94360221968111F4CFCF
:100560000FEF1FEFC801DF91CF911F910F91FF9007
:10057000EF90DF9008958881EECF0F931F93CF9374
:10058000DF931F92CDB7DEB782E0898342E450E06B
:1005900060EB71E080E80E9497020E94C701DC01D5
:1005A00012960D911C910115110589F0D801ED915C
:1005B000FC910280F381E02DBE016F5F7F4FC80187
:1005C000099597FD04C0F80100851185ECCF89815C
:1005D0000F90DF91CF911F910F910895282F30E058
:1005E000F901EF56FE4F9491F901EC59FD4F8491BA
:1005F0002B5B3D4FF9012491222309F430C099234C
:10060000E9F091509F30D0F4E92FF0E0E65FFC4F25
:100610000C94670C38033C031903300334031E03A6
:100620001E031E033F03450349034D0353031E03EB
:100630005703909180009F7790938000E22FF0E025
:10064000EE0FFF1FE75DFD4FA591B4919FB7F894A2
:10065000EC91611132C080958E238C939FBF0895D9
:10066000909180009F7DE8CF90918000977FE4CFAC
:1006700094B59F7794BDE2CF94B59F7DFBCF9091C9
:1006800090009F7790939000D9CF909190009F7D9C
:10069000F9CF90919000977FF5CF9091C0009F7710
:1006A0009093C000CBCF9091C0009F7DF9CF9091E7
:1006B000C200977F9093C200C1CF8E2BCECF3FB7A1
:1006C000F89480913E0190913F01A0914001B0913A
:1006D000410126B5A89B05C02F3F19F00196A11D29
:1006E000B11D3FBFBA2FA92F982F8827BC01CD017C
:1006F000620F711D811D911D42E0660F771F881FDB
:10070000991F4A95D1F70895CF92DF92EF92FF9209
:100710000E945F036B017C010E945F036C197D09DD
:100720008E099F09683E734081059105A8F3FF90EB
:10073000EF90DF90CF9008958F929F92AF92BF92EB
:10074000CF92DF92EF92FF920F931F93CF93DF939D
:100750006C017B018A0180910D01882309F457C047
:1007600080915701882309F452C08091490180FF8C
:1007700005C08091E00082608093E000E801B12C28
:100780008AEFA82E93E0892E2AE3922E209711F467
:10079000BB20B9F10E94B601811106C0AA94AA201B
:1007A000B1F10E948403F2CF8C171D0611F00CF0FA
:1007B0008C2F9FB7F8948092E9002091E80025FDE6
:1007C00002C09FBFE3CF282F30E0C21BD30BF7013D
:1007D000815020F041914093F100FACFE20EF31ED8
:1007E000BB2021F09092E800B12CEBCF8091E80083
:1007F00085FDE7CF9092E800BB24B394209709F3DE
:10080000F3CF84E680934801101611063CF081E096
:1008100090E0F6019383828310E000E0C801DF914D
:10082000CF911F910F91FF90EF90DF90CF90BF90ED
:10083000AF909F908F900895AF92BF92CF92DF922A
:10084000EF92FF920F931F93CF93DF936C017B0185
:100850008B01040F151FEB015E01AE18BF08C01716
:10086000D10759F06991D601ED91FC910190F08189
:10087000E02DC6010995892B79F7C501DF91CF914C
:100880001F910F91FF90EF90DF90CF90BF90AF90AE
:100890000895089590E080E00895FC018091C301DF
:1008A00084FF15C09091C40188E898279093C401F3
:1008B00080818093C50181818093C60162E085ECCF
:1008C00091E00E94670986E08093C30108958AE55C
:1008D0008093C301EDCFCF92DF92EF92FF920F93FF
:1008E0001F93CF93DF938091D201835087FD2CC05B
:1008F0009091D0019D3231F5883021F58091D10160
:10090000ECE0F0E0E81BF109EB52FE4F83EC809342
:10091000B8018AE5809301011092350180818076CB
:1009200009F49AC086EB91E09093370180933601E9
:1009300080E09781911104C09681981708F4892F5F
:10094000809300011092D2018091010184FF3DC08B
:10095000809100018F3FC9F1C82F893008F0C8E0AD
:10096000982F9C1B909300019091B80128E8922742
:100970009093B8018823E1F04091360150913701FE
:100980008091350186FFE5C0A9EBB1E0FA019C2F0B
:1009900084918D9331969150D9F72FEF2C0F30E041
:1009A0002F5F3F4F240F351F3093370120933601BF
:1009B0006C2F89EB91E00E946709CC5FCC3019F075
:1009C0008FEF80930001C093010184E199B19C7085
:1009D00031F48150D9F71092D3011092CF01DD2468
:1009E000D3948111D12C90913801D91661F18823CB
:1009F00041F1F89408E010E0C0E0D0E8CD2ECC0E34
:100A0000C09266000E946B097C018CEEE81688E0BB
:100A1000F8060CF4CC2DD6950150110979F78FEF1B
:100A20008C0F809366000C2F10E00F5F1F4F80919A
:100A300066008017110609F00CF494C0C09366009C
:100A40007894D0923801DF91CF911F910F91FF9050
:100A5000EF90DF90CF90089522811092C101918193
:100A600091110AC01092C20121EC31E082E0309372
:100A70003701209336015DCF953029F42093D301BF
:100A800021EC31E0F4CF963009F04CC093819130E5
:100A900059F48FE791E0909337018093360182E11A
:100AA00090E49093350145CF923041F48DE591E08B
:100AB000909337018093360182E2F2CF9330F1F4C4
:100AC000211108C089E591E09093370180933601A8
:100AD00084E0E6CF213041F48FE391E09093370139
:100AE000809336018AE1DCCF2230D1F68FE291E0AB
:100AF000909337018093360180E1D2CF913241F457
:100B00008FE691E0909337018093360189E0C8CF5A
:100B1000923231F68CE091E0909337018093360168
:100B200083E2BECF983071F0993019F420933401EC
:100B3000A7CF9A3059F09B3009F0A2CF9BE4909355
:100B4000C4019ECF24E331E081E091CF21EC31E07C
:100B5000FBCFDA01E9EBF1E09C2F8D91819391506D
:100B6000E1F71BCF0E946B098C5E984097FF03C092
:100B70009195819591098E159F051CF4C091660091
:100B80007C01809166008F5F8093660050CF8F92CA
:100B90009F92AF92BF92CF92DF92EF92FF926B0142
:100BA0007C012FB7F89480913A0190913B01A0917C
:100BB0003C01B0913D012FBF2FB7F89480903A01CE
:100BC00090903B01A0903C01B0903D012FBFC81810
:100BD000D908EA08FB08C80ED91EEA1EFB1E0E94AF
:100BE0006B04D501C4011C141D041E041F0424F34E
:100BF000FF90EF90DF90CF90BF90AF909F908F903D
:100C000008950F931F93CF93DF93EC01162F042FBA
:100C10008091C30184FD09C00E946B048FE19EE4B2
:100C20000197F1F700C00000F3CF0D831E83CE01C2
:100C30000596DF91CF911F910F910C944D04FF9277
:100C40000F931F93CF93DF936930A9F06A3099F126
:100C5000603248F0262F2052330BF901E455FF4F44
:100C6000C491C11109C081E090E0DF91CF911F9143
:100C70000F91FF900895CBE2FC01D48122E0F22E87
:100C8000C6FFF12C8C01CF73DD2321F061E08DE0F4
:100C90000E94EE024F2D6C2FC8010E94010640E019
:100CA00060E0C8010E940106DD23E9F260E08DE00A
:100CB0000E94EE02D8CFC8E2DFCF1F920F920FB68C
:100CC0000F9211248F939F938091E1009091E10006
:100CD000937F9093E10083FF0FC01092E90091E0B1
:100CE0009093EB001092EC0092E39093ED00109241
:100CF000570198E09093F00082FF1CC093E090931E
:100D0000E9009091F200992319F09AE39093E8009A
:100D100090914801992329F0909148019150909326
:100D2000480190915601992329F0909156019150D4
:100D30009093560184FF18C08091E2008E7E8160FE
:100D40008093E2008091E1008F7E8093E1008091AA
:100D500049018E7E8061809349019F918F910F9010
:100D60000FBE0F901F90189580FFF7CF8091E20083
:100D70008E7E80618093E2008091E1008E7E809380
:100D8000E100809149018E7E8160E5CF1F920F9234
:100D90000FB60F921124CF92DF92EF92FF920F9332
:100DA0001F932F933F934F935F936F937F938F93F3
:100DB0009F93AF93BF93EF93FF93CF93DF93CDB701
:100DC000DEB76C97DEBFCDBF1092E9008091E800DE
:100DD00083FF2FC089E0FE017596EE2EDF2E815035
:100DE00029F09091F10090833196F9CF84E68093B9
:100DF000560182EF8093E8008D8987FF39C090917A
:100E0000E80090FFFCCF982F907609F033C19E89BF
:100E10004F89588D2F89F88C911131C0803861F538
:100E2000809147018093F1001092F1008EEF809342
:100E3000E8006C960FB6F894DEBF0FBECDBFDF9111
:100E4000CF91FF91EF91BF91AF919F918F917F9142
:100E50006F915F914F913F912F911F910F91FF9053
:100E6000EF90DF90CF900F900FBE0F901F901895CE
:100E70009EEF9093E800C7CF1092F100D5CF91304C
:100E800059F48111D3CF4130510581F6809147014A
:100E90008D7F80934701CACF933049F48111C6CF2B
:100EA0004130510519F6809147018260F2CF9530AB
:100EB00041F48091E80080FFFCCF20682093E3009C
:100EC000B5CF963009F0A8C00B8D1C8D22E0109292
:100ED000E9001092450110924401F2122EC01092C6
:100EE0004301109242010E94BD021F8299E0998342
:100EF000FA8291E09E8390EA98879AEF99872091F1
:100F0000440130914501275F3F4F3C832B838D8304
:100F10001092E90010924501109244011093430190
:100F20000093420149E050E0BE016F5F7F4F80E0D7
:100F30000E9497020E94BD0279CF10934301009353
:100F400042010E94C701DC0112960D911C9101150E
:100F5000110509F457C1D801ED91FC910480F58188
:100F6000E02D6E2D7D2DC8010995009709F045C132
:100F7000F80100851185EBCFF3E0FF120EC08F89D9
:100F8000882309F440C0823061F440E867E181E1E0
:100F900092E00E946402811149CF81E28093EB00CC
:100FA00048CF813029F440E868E088E092E0F1CF52
:100FB000833099F70E94C701DC011296ED90FC90F6
:100FC0008E010F5F1F4F6801E114F10479F0D70122
:100FD000ED91FC910680F781E02DB801C7010995DC
:100FE000080F111DF701E084F184EECFD8011C92A7
:100FF000F60101900020E9F73197BF016C197D09D6
:1010000040E0C601C6CF62EF71E0FB01449150E0C1
:1010100080E80E9497020ACF973009F4BECF98303B
:1010200021F481E08093F10001CF993009F0FECEE8
:10103000837009F0B2CFEFE0F1E081E031E096E3B8
:101040002191222371F08093E9003093EB00DF01BE
:1010500011972C912093EC009093ED008F5F8730D7
:1010600079F78EE78093EA001092EA008F898093E7
:101070005701DCCE8B8D9C8D1092E90010924501BA
:10108000109244019093430180934201898D811114
:101090009AC08E899D89913A49F4813209F07DCFB9
:1010A00047E050E066E071E080E0B3CF913209F0B4
:1010B00074CF833269F48F89988DB0E0A0E080937B
:1010C000020190930301A0930401B0930501AECEF9
:1010D0008032A9F48091E80082FFFCCF88E0E6E04E
:1010E000F1E0815029F09091F10090833196F9CF91
:1010F00084E6809356018BEF8093E80097CE82328E
:1011000009F094CE8F8980930D01EEEFFFE7859172
:1011100094918B3F9C4D51F1E0E0F8E08091060105
:1011200090910701A0910801B0910901803B944082
:10113000A105B105F1F480910D0180FD1AC0EE3FCB
:101140008AE0F80789F587E797E7918380838091A4
:1011500060008093460188E19BE00FB6F894A89563
:10116000809360000FBE9093600060CEEEEFFAE0D7
:10117000D5CF808191818737974709F057CEA895C1
:101180008091600088618093600080914601809327
:101190006000EE3F2AE0F20789F08091FE0A90910C
:1011A000FF0A9183808342CE80819181873798079F
:1011B00051F29093FF0A8093FE0AC5CF1092FF0A66
:1011C0001092FE0A33CE0E94C701DC0112960D91E7
:1011D0001C910115110509F4E0CED801ED91FC91A7
:1011E0000190F081E02D6E2D7D2DC80109958111B2
:1011F0001DCEF80100851185ECCF181619060CF4E8
:1012000015CECBCEF1E0FF12B7CE66EF71E0FDCE8A
:101210001F920F920FB60F9211242F933F938F932B
:101220009F93AF93BF9380913A0190913B01A0911E
:101230003C01B0913D013091390123E0230F2D375E
:1012400058F50196A11DB11D2093390180933A01F3
:1012500090933B01A0933C01B0933D0180913E01EE
:1012600090913F01A0914001B09141010196A11DD3
:10127000B11D80933E0190933F01A0934001B09334
:101280004101BF91AF919F918F913F912F910F900D
:101290000FBE0F901F90189526E8230F0296A11DF0
:1012A000B11DD2CFA82FB92F80E090E041E050EAE5
:1012B000609530E009C02D9182279795879510F0B1
:1012C00084279527305EC8F36F5FA8F30895EADF9F
:1012D0008D939D930895A6E088279927AA9569F094
:1012E0000197E1F34B99FCCF4B9BFECF81E099270F
:1012F000A9B1019611F0AC70D9F70895CF93CFB78B
:10130000CF93DF93C3954B9BE9F74B9B0BC04B9B54
:1013100009C04B9B07C04B9B05C04B9B03C04B9B1D
:1013200001C08BC06F93C091D101DD27CB52DE4F3E
:101330002F9365E54B9B03C02F916F91E6CF0F93E1
:101340001F934F9320E040E15F9309B10C7003FBC2
:1013500027F93F9350E03BE039C01C7040642F7781
:10136000012F5F5F1EC0406819B11C702F7752506B
:101370001FC0406409B12F770C70D1F15F5F00C0CE
:1013800023C0406219B12F771C7091F15F5F00C0DC
:1013900025C00C701027515012F45D5F00001150F1
:1013A00027952C3F19B1C8F61C70012701502795CD
:1013B0002C3FC8F64227499309B10C7010274F7390
:1013C000115027952C3FA8F64695469519B11C70EB
:1013D00079F00127015027952C3F98F66B5A60F35E
:1013E000315009B1B0F600C011E01CBB002719C094
:1013F0003B503195C31BD04011E01CBB0881033C1E
:1014000009F10B34F9F02091CF011981110F12135A
:10141000EDCF4A81441F093651F10D3211F0013EE2
:1014200029F70093D4013F915F914F911F910F9144
:101430002F916F91CCB3C0FD65CFDF91CF91CFBF1E
:10144000CF9118952091D401222369F31091D201F4
:10145000112391F5343092F13093D2012093D001D1
:101460001091D1013BE0311B3093D10127C0009195
:10147000D20101300CF50AE54F7049F430910101B9
:1014800034FD1DC000930101C8EBD1E01CC03091B8
:10149000C30134FD14C00093C301C4ECD1E013C0F8
:1014A000052710E000C000000BB91AC0052710E0A6
:1014B000221F1DC010E021C04AE502C032ED432FBB
:1014C000C4E1D0E032E01AB11C605B9A0BB11AB9EA
:1014D0005CE020E865E320FF05270BB92795179509
:1014E0001C3FF0F66695B8F7B1F720FF05270BB95A
:1014F000279517951C3FD0F62795179517FF0527B9
:1015000000001C3F0BB9B0F629913A9519F7037FFB
:101510001091D301110FC651D0400BB911F01093A7
:10152000CF0111E01CBB08601AB1137F402F437F2D
:1015300054E05A95F1F70BB91AB94BB974CFE8E5F5
:10154000F1E01382128288EE93E0A0E0B0E08483A1
:101550009583A683B78389E191E0918380838FEFA0
:101560009FEF95878487E1EBF1E0138212828BE293
:1015700091E0918380831482F894539A2FEF84E34F
:101580009CE0215080409040E1F700C0000053985B
:10159000E9E6F0E0808182608083E89AE3ECF1E0A4
:1015A0008BE481838AE5808378941092B70110924E
:1015B000B60186EB91E00E944D04E8EAF1E080E498
:1015C0009CE9A0E0B0E080839183A283B38314827E
:1015D00015821682178210860895789484B58260E9
:1015E00084BD84B5816084BD85B5826085BD85B5C7
:1015F000816085BD80916E00816080936E00109245
:1016000081008091810082608093810080918100BF
:101610008160809381008091800081608093800050
:10162000809191008260809391008091910081600F
:1016300080939100809190008160809390008091D0
:10164000C10084608093C1008091C100826080935A
:10165000C1008091C10081608093C1008091C3006E
:1016600081608093C3008091C00082608093C0003D
:101670008091C20081608093C20080917A00846072
:1016800080937A0080917A00826080937A008091C2
:101690007A00816080937A0080917A0080688093DC
:1016A0007A001092570110924701109249018091DF
:1016B000D70081608093D70080EA8093D80089B5F5
:1016C000806189BD89B5826089BD09B400FEFDCF06
:1016D0000E9484038091D8008F7C80618093D80021
:1016E0008091E000807F8093E0008091E1008E7E19
:1016F0008093E1008DE08093E20081E00E946D0123
:1017000080E00E946D010E946B04CEE161E081E007
:101710000E94EE0261E080E00E94EE0268E270E06A
:1017200080E090E00E94C70560E081E00E94EE0248
:1017300060E080E00E94EE0268E270E080E090E00D
:101740000E94C705C15011F70E946B0464EF71E05D
:1017500080E090E00E94C70540E160E081EB91E00D
:101760000E94010640E060E081EB91E00E940106EA
:101770002FB7F89480913A0190913B01A0913C01E0
:10178000B0913D012FBF8093AC019093AD01A09328
:10179000AE01B093AF0181E08093B001C0E0D0E032
:1017A0000E946B048091B001882309F484C08FB734
:1017B000F89440913A0150913B0160913C01709145
:1017C0003D018FBF8091AC019091AD01A091AE0120
:1017D000B091AF010091A8011091A9012091AA0137
:1017E0003091AB01481B590B6A0B7B0B401751071B
:1017F0006207730708F45FC0800F911FA21FB31F19
:101800008093AC019093AD01A093AE01B093AF0172
:1018100013E061E081E00E94EE0261E080E00E945E
:10182000EE0262E370E080E090E00E94C70560E0B5
:1018300081E00E94EE0260E080E00E94EE0262E33E
:1018400070E080E090E00E94C705115011F740E081
:1018500060E081EB91E00E94010640E060E081EBF6
:1018600091E00E94010661E081E00E94EE0261E0E9
:1018700080E00E94EE0240E160E081EB91E00E9496
:10188000010640E060E081EB91E00E9401066CE21D
:1018900071E080E090E00E94C70560E081E00E9476
:1018A000EE0260E080E00E94EE026CE271E080E017
:1018B00090E00E94C7056AE070E080E090E00E943E
:1018C000C705209709F46CCF0E94000069CFEE0F86
:0E18D000FF1F0590F491E02D0994F894FFCFCE
:1018DE00FF5AFFFFFFFF00E100000000000000C103
:1018EE00808100000000000000DB019C03FC01F180
:1018FE00011C0200020C02000000001F061C044A1C
:04190E000449040084
:00000001FF
