:1000000008308A00C92E0000FF00030E8301A10002
:100010000A08A0008A010408A2007708A300780853
:10002000A4007908A5007A08A6007B08A70083131E
:1000300083128B1E1D280B193028220884002308E8
:10004000F7002408F8002508F9002608FA00270818
:10005000FB0020088A00210E8300FF0E7F0E09009E
:100060008A110A129F290A108A100A118207203465
:10007000423441344434453456344934463454349B
:1000800045342034763434342E34303400340A107D
:100090008A100A1182074B3465346E346E34793419
:1000A0002034323430342E34313431342E3432343E
:1000B00030343034373400340A108A100A11820781
:1000C0004F344E344E346534783474342D343E34E9
:1000D00000340A108A100A1182074F34463446341D
:1000E0004E346534783474342D343E3400340A1080
:1000F0008A100A1182074134553454344F344E3437
:100100006534783474342D343E3400340A108A1047
:100110000A118207443465346C34613479346534AF
:1001200064344E346534783474342D343E340034C1
:100130000A108A100A1182072034483475346D344D
:100140006934643469347434793420346C346934F7
:100150006D3469347434203400340A108A100A1162
:100160008207253475342534633420342D3420340B
:10017000643465346634613475346C3474342B34CF
:100180003134303400340A108A100A1182074D3499
:1001900069346E3469346D3475346D34203472349E
:1001A00075346E342034743469346D3465340034FD
:1001B0000A108A100A118207253475346D346934A7
:1001C0006E342034693466342034413475347434E8
:1001D0006F3420344F344E3400340A108A100A1120
:1001E000F43E03188A0A82004E346F34743420348B
:1001F000723475346E342034693466342034753486
:100200006E3464346534723400340A148A100A116E
:1002100082075734683465346E3420346134753461
:1002200074346F3420346D346F34643465343A344C
:1002300000340A148A100A1182074E346F342034B5
:1002400063346834653463346B3420346F346E3413
:100250002034743465346D34703400340A148A10D8
:100260000A11820743346834653463346B342034B4
:100270006F346E342034743465346D34703400342B
:100280000A148A100A118207443465346C346134CC
:100290007934653464342034723475346E342034E7
:1002A000743469346D34653400340A148A100A11C8
:1002B00082074134553420344F34463446340034B8
:1002C0000A148A100A1182074134553420344F34FD
:1002D0004E34203400340A148A100A118207203464
:1002E00020344F344E34203420340034F701F801E8
:1002F0008316350803103618F707F70CF80CB618F4
:10030000F707F70CF80C3619F707F70CF80CB619C5
:10031000F707F70CF80C361AF707F70CF80CB61AB3
:10032000F707F70CF80C361BF707F70CF80CB61BA1
:10033000F707F70CF80C83128A110A12D6292B083A
:10034000AB0A3C3C0318F729AB013208B20A033C64
:10035000031DAD29B2010130A900AC08031DC0295D
:100360002A0BC029BA08031DC0293608B60AB43CB6
:10037000031DBE290130BA00A900BF29BA01C12955
:10038000B6012C08033C031DE4292A0BE429BA0812
:10039000031DE4293708B70A8316B40083123B080B
:1003A0008316B5003C30B600831276297808831690
:1003B0003402031DE12901308312BA00A900E329A8
:1003C00083168312BA01E529B7012A0BF4290130FB
:1003D000B306330BF0298316061283120612F32993
:1003E000831606168312F729831606168312A8149D
:1003F00028088316870083128718042A2F087F3C59
:10040000031C032AAF0A1D2A2F08023C03181C2ACA
:100410002F08803C031D0F2A8A0100281C2A2F0860
:100420003F3C03181A2A2F087F3C031C1A2A01306C
:10043000B5001C2A0130AE00AF01043081000B1161
:100440008A110A121D2852308400831300080319F0
:10045000362A0230F800F701F70B2C2AF80B2B2A6A
:100460009730F700F70B322A800B292A00345218F4
:100470003B2A87113C2A8715A81128088316870074
:100480008312D218452A0712462A0716281228086E
:1004900083168700831252194F2A8712502A871613
:1004A000A8122808831687008312D219592A071325
:1004B0005A2A071728132808831687008312003446
:1004C00083168612831286160630F700F70B662A0B
:1004D000000083168612831286120530D200232272
:1004E0000034BC0E3C08D20037226022BC0E3C080F
:1004F000D200372260220034D2013722C830D20025
:10050000232283160613831206130330D2003722E8
:100510006022602260220230D200372260222C301A
:10052000BC0071220C30BC0071220130BC00712271
:100530000630BC0071220034C40E44080838C500DF
:10054000D20037226022C40E4408D2003722602233
:1005500000348316061383120617D10E5108D200F9
:1005600037226022D10E5108D20037226022831632
:100570000613831206130034C4019C22BC013C08FC
:100580003320BC0AF700D100A9220F303C02031D22
:10059000BF2A4030C4009C22BC013C084720BC0A52
:1005A000F700D100A92210303C02031DCD2A8A1584
:1005B0000A12192F4008F8013F020318E22A3F08E7
:1005C000F700EE2AF7010830C100BF0DF70D400813
:1005D00077020318F700F80DC10BE52A00347808FC
:1005E0003D08BF006430C000DA227708BD007808FB
:1005F0003030031D022BBE1C092BBE19092B3E1ADD
:100600002030052BBE113E123E14F8077808D100A9
:10061000A9223D08BF000A30C000DA227708BD00D9
:1006200078083030031D1A2BBE191E2B3E1C1E2BC2
:100630003E1A2030F8077808D100A9223030BD07D3
:100640003D08D100A92200348E30F7005808F80088
:100650005708F900FA01F808031D382B7908F8004B
:10066000F9010830F702F808031D382BF701402B79
:100670000310F81B3F2BF90DF80DF703382BF81377
:100680000034831624080319072CB0002808031926
:10069000072CB002031C512B7F30B0070318072C26
:1006A000572B8130B002031C072C0319072C30088C
:1006B000F700F801F901FA01AF012508AE00AE1705
:1006C0002608AD002708AC001930B0002B08AC029A
:1006D00003187A2B0130AD0203187A2BAE020318EF
:1006E0007A2BAF0203187A2BAF0AAE0AAD0A2B0899
:1006F000AC07AC2B2A08AD020318952B0130AE02D3
:100700000318952BAF020318952BAF0AAE0A2A08DF
:10071000AD072B08AC07031CAC2BAD0A031DAC2B9B
:10072000AE0A031DAC2BAF0AAC2B29088038AE02F1
:100730000318AB2B0130AF020318AB2BAF0A29080B
:100740008038AE072A08AD07031C892BAE0A031DAB
:10075000892BAF0A892B7A14B00BAF2BBA2B03105D
:10076000AC0DAD0DAE0DAF0D0310FA0DF90DF80D7A
:10077000B10D662B311CC22B0310F80CF90CFA0CCE
:10078000B10CC52BF7030319072CB11BEE2B03107B
:10079000AC0DAD0DAE0DAF0D2B08AC020318DA2B6E
:1007A0000130AD020318DA2BAE020318DA2BAF02C8
:1007B000031CFD2B2A08AD020318E52B0130AE0205
:1007C0000318E52BAF02031CFD2B29088038AE026D
:1007D0000318EE2B0130AF02031CFD2BFA0A031D98
:1007E000FD2BF90A031DFD2BF80A031DFD2BF70A4B
:1007F0000319072CF80CF90CFA0C2508B00029088D
:10080000B006B01F052CF8170B2CF8130B2CF701B2
:10081000F801F901FA018312003483162008031944
:100820007E2CA800240803197E2CA80703181F2C6F
:100830007F30A802031C7E2C03197E2C232C8130D0
:10084000A80703187E2C2808F700F801F901FA011F
:100850002108AC00AC172208AB002308AA0018300E
:10086000A800A9012A1C4C2C2708FA07031C3E2CBF
:10087000F90A031D3E2CF80A0319A9172608F907DF
:10088000031C452CF80A0319A9172508A200A21772
:100890002208F8070318A917A90DF80CF90CFA0C8F
:1008A000AC0CAB0CAA0C0310A80B312C0130F707D1
:1008B00003187E2CF81B632CAC0DFA0DF90DF80D06
:1008C000F70303197E2CAC1F742CFA0A031D742C39
:1008D000F90A031D742CF80A031D742CF80CF90C8A
:1008E000FA0CF70A03197E2C2108A9002508A9068D
:1008F000A91F7C2CF817822CF813822CF701F80121
:10090000F901FA01831200348030831C8A2C83168B
:10091000A90683128316AE01AF012508AD00290890
:10092000AD0624080319782DAC00F7002808031938
:10093000812DAC0203191D2D031CDB2C2908B200EC
:10094000B2172A08B1002B08B000AF010310B20C97
:10095000B10CB00CAF0CAC0BA52CAD1FB22C2E14EF
:10096000952D2E102C102E16A73084008313AA2D3F
:100970002E12AD1BC52C2C1CD02CB20CB10CB00C03
:10098000AF0CF70A0319902DD02CB21BD32C0310F7
:10099000AF0DB00DB10DB20DF7030319902DC52C9D
:1009A0002E173D2D2E132508AD00AD1FD92CB217E3
:1009B000892DB213892D2808AC00F7002408AC0259
:1009C0002508B200B2172608B1002708B000AF0111
:1009D0000310B20CB10CB00CAF0CAC0BE72CAD1F7C
:1009E000F42CAE14952DAE102C10AE16AB30840046
:1009F0008313AA2DAE12AD1B072D2C1C122DB20C89
:100A0000B10CB00CAF0CF70A0319902D122DB21BCC
:100A1000152D0310AF0DB00DB10DB20DF703031975
:100A2000902D072DAE173D2DAE132908AD00AD1F3B
:100A30001B2DB217892DB213892D2908B200B217C8
:100A40002A08B1002B08B000AD1F2A2DB2132E15B5
:100A5000952D2E11AF012C10A73084008313AA2DE1
:100A6000AD1B532D2508AD002C1C3D2DB20CB10C37
:100A7000B00CAF0CF70A0319902DAF1F4E2DB00A22
:100A8000031D4E2DB10A031D4E2DB20A031D4E2D1E
:100A9000B20CB10CB00CF70A0319902D2E1BD22CFE
:100AA000AE1B142D722D8030B206B21F5B2D952D1A
:100AB0002908AD00682D2508AD00B208031D682D7A
:100AC000B108031D682DB008031D682DF701892D9D
:100AD000B21B722D0310AF0DB00DB10DB20DF70B9F
:100AE000682D902DAD1F762DB217892DB213892D4B
:100AF0002808F7002908B2002A08B1002B08B00026
:100B0000892D2408F7002508B2002608B10027081F
:100B1000B0003208F8003108F9003008FA00C82D9A
:100B2000F701F801F901FA01C82DAF01B009B109C7
:100B3000B209AF09AF0A031DA32DB00A031DA32DEF
:100B4000B10A0319B20A2E18B12CAE18F32C2E19C3
:100B5000292D582D0008B007031CB42DB10A031D20
:100B6000B42DB20A03192C1484030008B107031C26
:100B7000BC2DB20A03192C1484030008801F803A8C
:100B8000B20703182C142E1AB82CAE1AFA2C302DDA
:100B900083120034D101D001CF01CE010030F80022
:100BA0001F08C73978049F002130F700F70BD62DB6
:100BB0001F151F19D92D83161E088312C8001E0881
:100BC000C900C808031DE72DC9080319EB2D490802
:100BD000033C0318F42D4E08F7004F08F8005008A6
:100BE000F9005108FA00A72E4908D8004808D70094
:100BF00024237708D2007808D3007908D4007A0833
:100C0000D5008316A700831279088316A6008312E5
:100C100078088316A500831277088316A400AB0119
:100C2000C030AA007F30A9008830A8008312412379
:100C30007708D6007808D7007908D8007A08D90054
:100C40008316A300831279088316A2008312780802
:100C50008316A100831277088316A000A701A601BE
:100C60002030A5008130A40083120D247A08CD0025
:100C70007908CC007808CB007708CA004D088316A5
:100C8000A70083124C088316A60083124B08831614
:100C9000A50083124A088316A400AB01AA012030E4
:100CA000A9008130A800831241237708D200780878
:100CB000D3007908D4007A08D50083147A08831603
:100CC000A700831279088316A6008312780883167A
:100CD000A500831277088316A4000A30AB00D73032
:100CE000AA002330A9007C30A8008312842477084E
:100CF000D6007808D7007908D8007A08D90083167A
:100D0000A700831279088316A60083127808831639
:100D1000A500831277088316A4005F30AB0029304A
:100D2000AA004B30A9007730A800831241237A082B
:100D3000D1007908D0007808CF007708CE004E089F
:100D4000F7004F08F8005008F9005108FA00003485
:100D500083162108A8002508A806A81FB42E031191
:100D60000310A11B0314E72E2108A8002408A900E2
:100D70002008A9020319C22EA81FE72E0308013A72
:100D80008300E72E2508A9002108A9020319CE2E09
:100D9000A81FE72E0308013A8300E72E2608A900C2
:100DA0002208A9020319DA2EA81FE72E0308013A28
:100DB0008300E72E2708A9002308A9020319E62EBD
:100DC000A81FE72E0308013A8300E72E03108312C1
:100DD00000345108B63CD100FA015208D500D217B0
:100DE0000310D20CD30CD40CFA0CF90CF80CF70C41
:100DF000D10BF02ED51F072FF709F809F909FA09C9
:100E0000F70A0319F80A0319F90A0319FA0A8A15E5
:100E10000A123328F701F801F901FA01D901DA01C0
:100E2000DB01DC0158085704560455040319482F08
:100E30002030DD000310D10DD20DD30DD40DD90D0E
:100E4000DA0DDB0DDC0D58085C02031D312F57084D
:100E50005B02031D312F56085A02031D312F55081E
:100E60005902031C422F5508D9025608031C560F7D
:100E7000DA025708031C570FDB025808031C580FEF
:100E8000DC020314F70DF80DF90DFA0DDD0B1A2F26
:100E900059308400831300348E30F7008316210804
:100EA000F8002008F900FA01A11F5B2FF809F909E1
:100EB000F90A0319F80AF808031D682F7908F800E1
:100EC000F9010830F702F808031D682FF701712FA8
:100ED0000310F81B6F2FF90DF80DF703682FA11FF2
:100EE000F813831200342E0B7E2F2C08AC0A023C20
:100EF00003187B2FAC01AE010130AD002C08FC3E85
:100F00000318C42F043EC72F2D0B982FAD010130BD
:100F1000AA002810280883168700831207100130C2
:100F2000BC0071220130A900AE01B001AB01C42F99
:100F30002D0BAA2FAD01AA012810280883168700BF
:100F4000831207140130BC0071220130A900AE01E8
:100F5000B001C42F2D0BB72FAD010130BA00BC007A
:100F600071220130A900AE01B001AB01C42F2D0BDD
:100F7000C42FAD01BA010130BC0071220130A900BB
:100F8000AE01B001AB01C42F8A150A12682F0A14F2
:100F90008A140A158207AA2F842F982FB72F2C089E
:100FA000033C031DEF2FBA08031DE22FAA08031DFF
:100FB000E12F0130AA002810280883168700831229
:100FC0000710ED2F2A0BEC2FAA01BA0128102808D0
:100FD0008316870083120714AC012A08B9008A150A
:040FE0000A126C2F56
:101000000408C9004808CB0003192928470883169B
:10101000A300831246088316A20083124508831694
:10102000A100831244088316A000A701A601203066
:10103000A5008230A4008A1183120D248A157A0833
:10104000C7007908C6007808C5007708C400CB0B34
:1010500006284708D4004608D3004508D2004408B3
:10106000D1008A11E92E8A157A08C7007908C600CE
:101070007808C5007708C400C71F4B28C903C916E4
:10108000C409C509C609C709C40A0319C50A031951
:10109000C60A0319C70A3B30D0009A30CF00CA30C5
:1010A000CE00CD010A30CB0048080319C90A470811
:1010B000D4004608D3004508D2004408D1005008A7
:1010C000D8004F08D7004E08D6004D08D5008A1129
:1010D0000A278A150008C400840A0008C500840A8B
:1010E0000008C600840A0008C700FD308407F7081E
:1010F000031D8D28480A4B0203198D28490803193E
:101100008F280F394B02031987280318C728C91BDA
:10111000C728491B8F282030C1282030C905C91E87
:101120009F28C9124808031DC9037708C9002D303C
:10113000D1008A11A9228A154908F700C901480877
:101140004B02031DAF287708C9002E30D1008A1149
:10115000A9228A154908F7002030C905003030302F
:10116000C91EC128C9124808031DC9037708C90050
:101170002D30D1008A11A9228A154908F700C9012A
:101180003030F7077708D1008A11A9228A15500854
:10119000D4004F08D3004E08D2004D08D100D8012A
:1011A000D701D6010A30D5008A110A278A157A0894
:1011B000D0007908CF007808CE007708CD00CB0B9F
:1011C000572800340830F8001F08C73978049F00FA
:1011D0002130F700F70BEA281F151F19ED28831699
:1011E0001E088312C8001E08C9004808D200D20891
:1011F000031DFC280130D200D8015208D7008A1103
:1012000024238A158316A701A601A5018930A4000D
:101210007A08AB007908AA007808A9007708A80026
:101220008A11831241238A157708D7007808D800DD
:101230007908D9007A08DA0083147A088316A7009F
:10124000831279088316A600831278088316A500F6
:10125000831277088316A400AB01AA01A9017F308D
:10126000A8008A11831284248A158316A701E83006
:10127000A6001930A5008C30A4007A08AB007908CC
:10128000AA007808A9007708A8008A1183124123D0
:101290008A157A08D6007908D5007808D40077082E
:1012A000D3005308F7005408F8005508F900560811
:1012B000FA007A08CD007908CC007808CB007708CE
:1012C000CA004D08D5004C08D4004B08D3004A088A
:1012D000D200D901D8014830D7008530D600DD01D1
:1012E000DC01DB017F30DA0055088316A70083128A
:1012F00054088316A600831253088316A500831290
:1013000052088316A400AB018030AA006D30A900FA
:101310008830A8008A11831241238A157708DE00DD
:101320007808DF007908E0007A08E1008316A3005E
:10133000831260088316A20083125F088316A1003F
:1013400083125E088316A000CD30A700CC30A60023
:101350004C30A5007B30A4008A118312A8268A1580
:10136000031CBB295608F7005708F8005808F90075
:101370005908FA00652D55088316A70083125408F2
:101380008316A600831253088316A5008312520801
:101390008316A400AB018030AA006D30A90088300C
:1013A000A8008A11831241238A157708DE00780885
:1013B000DF007908E0007A08E1006108E5006008D4
:1013C000E4005F08E3005E08E2006508E9006408E5
:1013D000E8006308E7006208E60069088316A300D6
:1013E000831268088316A200831267088316A1007F
:1013F000831266088316A000A701A601A5017F300D
:10140000A4008A118312A8268A150319C02CFA0198
:101410006630840083137A1883177E30800083142B
:1014200069088316A700831268088316A600831232
:1014300067088316A500831266088316A400AB0113
:10144000AA01A9017F30A8008A11831284248A1579
:1014500077088316A0007808A1007908A2007A080E
:10146000A3008310831269088316A70083126808FB
:101470008316A600831267088316A50083126608E8
:101480008316A400AB01AA01A9017F30A8008A112C
:10149000831284248A1583162308A7002208A60035
:1014A0002108A5002008A4007A08AB007908AA004A
:1014B0007808A9007708A8008A11831241238A15A9
:1014C0007A08E9007908E8007808E7007708E6007C
:1014D00069088316A300831268088316A20083128A
:1014E00067088316A100831266088316A000831282
:1014F00069088316A700831268088316A600831262
:1015000067088316A500831266088316A4008A1153
:1015100083120D248A157A08F5007908F4007808FA
:10152000F3007708F200BC308316A3002430A20039
:101530006730A1007D30A0007508A7007408A600E0
:101540007308A5007208A4008A1183120D248A155D
:1015500077088316A0007808A1007908A2007A080D
:10156000A30083102308A7002208A6002108A500D5
:101570002008A400E330AB00E430AA009030A900BA
:101580008230A8008A11831284248A157A08ED001B
:101590007908EC007808EB007708EA006D088316FC
:1015A000A30083126C088316A20083126B088316B3
:1015B000A10083126A088316A0007508A7007408AA
:1015C000A6007308A5007208A4008A1183120D24D6
:1015D0008A1577088316A0007808A1007908A20070
:1015E0007A08A30083102308A7002208A600210878
:1015F000A5002008A4001C30AB008730AA0057309B
:10160000A9008330A8008A11831284248A157A08DD
:10161000ED007908EC007808EB007708EA006D0827
:101620008316A30083126C088316A20083126B0832
:101630008316A10083126A088316A0007508A7000C
:101640007408A6007308A5007208A4008A1183120A
:101650000D248A1577088316A0007808A100790860
:10166000A2007A08A30083102308A7002208A6007E
:101670002108A5002008A400AB30AB00E130AA008F
:101680009E30A9008330A8008A11831284248A1511
:101690007A08ED007908EC007808EB007708EA009A
:1016A0008316A301A201A1017F30A0007508A70045
:1016B0007408A6007308A5007208A4008A1183129A
:1016C0000D248A1577088316A0007808A1007908F0
:1016D000A2007A08A30083102308A7002208A6000E
:1016E0002108A5002008A400B430AB002A30AA00CD
:1016F0008230A900A8008A11831284248A157A08EE
:10170000F1007908F0007808EF007708EE00710822
:101710008316A3007008A20083126F088316A1002D
:1017200083126E088316A0007508A7007408A6002F
:101730007308A5007208A4008A1183120D248A156B
:1017400077088316A0007808A1007908A2007A081B
:10175000A30083102308A7002208A6002108A500E3
:101760002008A4008030AB003E30AA000630A9005B
:101770008330A8008A11831284248A157A08F10024
:101780007908F0007808EF007708EE0071088316FA
:10179000A3007008A20083126F088316A1008312B1
:1017A0006E088316A0007508A7007408A6007308C9
:1017B000A5007208A4008A1183120D248A157708E7
:1017C0008316A0007808A1007908A2007A08A30077
:1017D00083102308A7002208A6002108A5002008DE
:1017E000A400AB30AB00E130AA009E30A9008230EB
:1017F000A8008A11831284248A157A08F1007908D6
:10180000F0007808EF007708EE0069088316A3005F
:10181000831268088316A200831267088316A1004A
:10182000831266088316A00083126D088316A70032
:1018300083126C088316A60083126B088316A5001A
:1018400083126A088316A4008A1183120D248A1554
:1018500077088316A0007808A1007908A2007A080A
:10186000A300A7002208A6002108A5002008A400C4
:101870007108AB007008AA0083126F088316A900D4
:1018800083126E088316A8008A11831241238A15D9
:101890007A08ED007908EC007808EB007708EA0098
:1018A000FA016230840083137A1883177E300002B5
:1018B000F600F61F702C7608003C8316A101A000EC
:1018C000A01BA1038A1183124C278A157708EE000A
:1018D0007808803AEF007908F0007A08F100822C4D
:1018E0008316A1017608A000A01BA1038A11831210
:1018F0004C278A157A08F1007908F0007808EF0083
:101900007708EE0071088316A3007008A200831206
:101910006F088316A10083126E088316A00018308A
:10192000A7007230A6003130A5007E30A4008A11D5
:1019300083120D248A1583106D088316A700831265
:101940006C088316A60083126B088316A500831209
:101950006A088316A4007A08AB007908AA00780800
:10196000A9007708A8008A11831284248A157A08AE
:10197000ED007908EC007808EB007708EA00C42C49
:10198000ED01EC01EB01EA016A08F7006B08F800D1
:101990006C08F9006D08FA00B0308316A300063019
:1019A000A2002530A1007330A0007A08A7007908B2
:1019B000A6007808A5007708A4008A1183120D24D8
:1019C0008A157708DF007808E0007908E1007A08D6
:1019D000E200E4010408E3006410831B6414831034
:1019E0007A088316A700831279088316A60083124B
:1019F00078088316A500831277088316A400623046
:101A0000AB00EB30AA005B30A9007630A8008A1149
:101A1000831284248A15630884008313641883174F
:101A20007A08DD007908DC007808DB007708DA0046
:101A30008316A701A601A5017F30A40083125D08CB
:101A40008316AB0083125C088316AA0083125B081E
:101A50008316A90083125A088316A8008A118312DC
:101A600041238A157708DE007808DF007908E00056
:101A70007A08E10083147A088316A7008312790894
:101A80008316A600831278088316A50083127708B0
:101A90008316A400AB018030AA000830A90087306B
:101AA000A8008A11831284248A157A08D90079083B
:101AB000D8007808D7007708D6005608F7005708EE
:101AC000F8005808F9005908FA007A08D100790896
:101AD000D0007808CF007708CE004E08F7004F08F6
:101AE000F8005008F9005108FA000034AC08031D52
:101AF000042EE2207A08C3007908C2007808C100E9
:101B00007708C0008A11CA258A157A08BF007908AB
:101B1000BE007808BD007708BC0083160516831246
:101B2000051A992DC701C6016430C5008430C40070
:101B30009F2DC701C6013C30C5008430C400470852
:101B40008316A300831246088316A2008312450859
:101B50008316A100831244088316A00083123F0855
:101B60008316A70083123E088316A60083123D0841
:101B70008316A50083123C088316A4008A118312E1
:101B8000A8268A15031CF52D28152808831687001A
:101B900083120719E72D43088316A3008312420816
:101BA0008316A200831241088316A1008312400805
:101BB0008316A000A701A6013030A5008330A40041
:101BC0008A118312A8268A15031CE72D042EAA0861
:101BD000031DF32D0130AA00BA012810280883162E
:101BE000870083120710B601022EBA080319022ECD
:101BF0002A0B022EAA01BA01281028088316870092
:101C0000831207142A08B8008A150A126A2FC10124
:101C1000C001BF01BE011030F8001F08C7397804A9
:101C20009F002130F700F70B132E1F151F19162EDA
:101C300083161E088312BC001E08BD00BC08031DCD
:101C4000242EBD080319282E3D08033C03182F2E0F
:101C50008330F7007030F800F901FA01A52E3D0835
:101C6000D8003C08D7008A1124238A157708C200BF
:101C70007808C3007908C4007A08C5008316A30059
:101C8000831244088316A200831243088316A1001E
:101C9000831242088316A0006630A700A600A500A4
:101CA0008030A4008A1183120D248A157708C6009B
:101CB0007808C7007908C8007A08C9008316A70009
:101CC000831248088316A600831247088316A500CE
:101CD000831246088316A400AB01AA017030A90044
:101CE0008430A8008A11831241238A157A08C10022
:101CF0007908C0007808BF007708BE004108831645
:101D0000A300831240088316A20083123F088316A3
:101D1000A10083123E088316A000A701A601A50119
:101D20007F30A4008A118312A8268A15031C9D2ED9
:101D3000C101C001BF017F30BE003E08F7003F086F
:101D4000F8004008F9004108FA008A150A126E2FBF
:101D50008E30F7003C08F7023D08F9003E08F80015
:101D6000F917F7080319BF2E0310F908031DBB2E3E
:101D7000F8080319BF2EF90CF80CF70BB42EBD1F91
:101D8000C62EF809F909F80A0319F90A8A150A1280
:101D9000772F840183131F30830583161F149F142C
:101DA0001F159F11FF308312A800A901AA01AB01E2
:101DB000AC01AD01AE01AF01B001B101B201B3019F
:101DC000B401B501B601B701B801B901BA01BB014F
:101DD000C830D2008A1123228A150630F700F71D79
:101DE000FA2E073081018130840083130008C03946
:101DF0000F3880006400813084000008C039770407
:101E00008000281028088316870083120710831685
:101E100086118312861183160612831206128A1106
:101E20007C228A150130BC008A1171228A158A1120
:101E3000BC2A8A151430BC00FA30D2008A11232241
:101E40008A15BC0B1C2F0130BC008A1171228A1527
:101E50008A117C228A152815280883168700831288
:101E60009701A81428088316870083129D01831602
:101E70001F109F101F159F1183121F179F17831686
:101E80009F1783121F148B16C0308B04AA01AD015B
:101E9000B301B401B501AE01B001AF01B101281029
:101EA0002808831687008312071483160616051662
:101EB000831228152808831687008312AC0101308D
:101EC000A9000A168A1100280A128A158A11732F8E
:101ED0008A15762D8A11CF2F8A15072E7A08BF0012
:101EE0007908BE007808BD007708BC00A82E7808E5
:061EF000BB00612F63003E
:102000004030C4000A129C220A162C08FC3E031819
:10201000AA28043E402B4F30D1000A12A9220A16EA
:102020004E30D1000A12A9220A160830BC00203016
:10203000D1000A12A9220A16BC0B17280230BD00D3
:102040003D080A125C200A16BD0AF700D1000A12E8
:10205000A9220A1608303D02031D2028AA284F3065
:10206000D1000A12A9220A164630D1000A12A9226A
:102070000A164630D1000A12A9220A160730BC00FF
:102080002030D1000A12A9220A16BC0B40280330C6
:10209000BD003D080A1269200A16BD0AF700D100EA
:1020A0000A12A9220A1609303D02031D4928AA284E
:1020B000BC013C080A1277200A16BC0AF700D100BE
:1020C0000A12A9220A1604303C02031D59280630C0
:1020D000BD002030D1000A12A9220A16BD0B6928C2
:1020E0000430BE003E080A1277200A16BE0AF70026
:1020F000D1000A12A9220A160A303E02031D7228D4
:10210000AA28BC013C080A1286200A16BC0AF7005D
:10211000D1000A12A9220A1607303C02031D8228A8
:102120000330BD002030D1000A12A9220A16BD0BCF
:1021300092280730BE003E080A1286200A16BE0A00
:10214000F700D1000A12A9220A160D303E02031D23
:102150009B28AA28350B452AB5018B120B138B132C
:102160008B1BAF280130BC000A1271220A16C40171
:102170000A129C220A16BC013C080A1298200A1670
:10218000BC0AF700D1000A12A9220A1610303C023C
:10219000031DBC284030C4000A129C220A16831674
:1021A00005168312051AF1283930BD001B30BE0018
:1021B0000A12EF220A162530D1000A12A9220A16A5
:1021C0000430BC003C080A12AD200A16BC0AF70015
:1021D000D1000A12A9220A1611303C02031DE2287E
:1021E0000F290630BC002030D1000A12A9220A169D
:1021F000BC0BF3282F30BD001B30BE000A12EF22AB
:102200000A162530D1000A12A9220A160730BD008D
:102210002030D1000A12A9220A16BD0B08290C3061
:10222000BC00FA30D2000A1223220A16BC0B112974
:102230000130BC000A1271220A16C4010A129C2243
:102240000A16BC013C080A12C3200A16BC0AF70091
:10225000D1000A12A9220A1610303C02031D2229BD
:102260004030C4000A129C220A160330BD001B3005
:10227000BE000A12EF220A160230BC003C080A1205
:10228000D8200A16BC0AF700D1000A12A9220A16A1
:1022900010303C02031D3E290C30BC00FA30D20045
:1022A0000A1223220A16BC0B4E290130BC000A1266
:1022B00071220A16C4010A129C220A16BC013C08AB
:1022C0000A12ED200A16BC0AF700D1000A12A92250
:1022D0000A1610303C02031D5F294030C4000A1268
:1022E0009C220A160730BC002030D1000A12A92215
:1022F0000A16BC0B74291630BD001B30BE000A1232
:10230000EF220A16DF30D1000A12A9220A16433042
:10231000D1000A12A9220A160530BD002030D100D2
:102320000A12A9220A16BD0B8E290C30BC00FA3005
:10233000D2000A1223220A16BC0B97290130BC00D6
:102340000A1271220A16C4010A129C220A16BC0142
:102350003C080A1205210A16BC0AF700D1000A122D
:10236000A9220A160F303C02031DA8294030C400E0
:102370000A129C220A162815280883168700831241
:102380000719D229BC013C080A1219210A16BC0AF5
:10239000F700D1000A12A9220A1610303C02031DD0
:1023A000C329EA29BC013C080A122E210A16BC0ADC
:1023B000F700D1000A12A9220A160D303C02031DB3
:1023C000D3290330BD002030D1000A12A9220A16F9
:1023D000BD0BE3290C30BC00FA30D2000A122322D4
:1023E0000A16BC0BEC290130BC000A1271220A1635
:1023F000C4010A129C220A16BC013C080A124021A0
:102400000A16BC0AF700D1000A12A9220A161030D7
:102410003C02031DFD294030C4000A129C220A160A
:102420003B08BD001B30BE000A12EF220A166D30B9
:10243000D1000A12A9220A166930D1000A12A92273
:102440000A166E30D1000A12A9220A160B30BC00FF
:102450002030D1000A12A9220A16BC0B282A0C30FF
:10246000BC00FA30D2000A1223220A16BC0B312A11
:102470000130BC000A1271220A160130A900AE0117
:10248000B001AB018B16C0308B04290B3D2BA90189
:102490000A12CA250A167A08BF007908BE00780811
:1024A000BD007708BC00C4010A129C220A163F082E
:1024B0008316A30083123E088316A20083123D08F0
:1024C0008316A10083123C088316A000A701A60171
:1024D000A501A4010A128312A8260A16031D802A48
:1024E0004F30D1000A12A9220A162F30D1000A1249
:1024F000A9220A165230D1000A12A9220A16962AD7
:10250000013084003F08C7003E08C6003D08C500F2
:102510003C08C4000130C8000A128A1500200A16BF
:102520008A112530D1000A12A9220A160D30C400E2
:102530000A129C220A160A128A15E2200A168A1129
:102540007A08C3007908C2007808C1007708C00083
:1025500043088316A300831242088316A200831245
:1025600041088316A100831240088316A000A7012A
:10257000A6014830A5008530A4000A128312A826BF
:102580000A16031DD32A4F30D1000A12A9220A16B7
:102590002F30D1000A12A9220A165230D1000A1295
:1025A000A9220A16E82A013084004308C70042081D
:1025B000C6004108C5004008C400C8010A128A15B7
:1025C00000200A168A11DF30D1000A12A9220A1649
:1025D0000630C4000A129C220A16AC08031D132BF5
:1025E000B808031D032BC40144080A1255210A161A
:1025F000C40AF700D1000A12A9220A1606304402C2
:10260000031DF42A122BC40144080A1260210A1681
:10261000C40AF700D1000A12A9220A1606304402A1
:10262000031D042B3D2B2A0B252BC40144080A1241
:102630006B210A16C40AF700D1000A12A9220A1651
:1026400006304402031D162B3D2B4F30D1000A12D9
:10265000A9220A164630D1000A12A9220A164630CB
:10266000D1000A12A9220A160330C4002030D1007A
:102670000A12A9220A16C40B362B8A150A12642FD5
:102680000A148A140A11820758280B282F28812837
:02400E00393F38
:00000001FF
;PIC16F876
