:0400000044EF0DF0CC
:08000800046ED8CF05F0E0CF33
:1000100006F00001E9CF0CF0EACF07F0E1CF08F0DD
:10002000E2CF09F0D9CF0AF0DACF0BF0F3CF12F01C
:10003000F4CF13F0FACF14F000C00EF001C00FF0AF
:1000400002C010F003C011F0F2AA2AEF00F0F2B4DF
:100050005DEF00F09DA030EF00F09EB02CEF01F0BE
:100060009DA236EF00F09EB244EF01F0A0A23CEF5B
:1000700000F0A1B2F8EF01F00EC000F00FC001F0E7
:1000800010C002F011C003F00CC0E9FF07C0EAFF86
:10009000078E08C0E1FF09C0E2FF0AC0D9FF0BC00C
:1000A000DAFF12C0F3FF13C0F4FF14C0FAFF0450CC
:1000B00006C0E0FF05C0D8FF10001A2AD8B41B2ADA
:1000C0001A50600841E11B50EA083EE167B20CD0CB
:1000D000682AD8B4692A6850D00806E16950020835
:1000E00003E16782696A686A243C01D001D0242A4E
:1000F000A0AB09D0A0AD07D0AA2BAA51770802E285
:10010000A09BA09D01D0AA6BA0A50BD0A86BA22B91
:10011000A33D03D0A43D01D003D0A32BD8B4A42B7E
:1001200002D0A82BA26BA0A70BD0A96BA52BA63D34
:1001300003D0A73D01D003D0A62BD8B4A72B02D063
:10014000A92BA56B1B6A1A6A1C2AD8B41D2A1C503D
:10015000F4080AE11D2C08D0000E16B6010E010AA3
:100160001696E8B016861DD01C2AD8B41D2A1C503D
:10017000E80817E11D50030814E1000E16B6010E41
:10018000010A1696E8B01686000E16B4010ECC6F62
:10019000000E16B6010ECC191694E8B016841D6A2E
:1001A0001C6AA0BF56D0A181770E936E0400100E7A
:1001B000006E002EFED781AA03D01F6A1E6A1ED0D1
:1001C0001E2AD8B41F2A1F500E0807E2FF0A03E1B7
:1001D0001E50A00802E2FF0011D01F5203E11E5082
:1001E00064080CE21F50010809E303E11E50F30804
:1001F00005E367B202D0678201D0A07981A403D061
:10020000216A206A1ED0202AD8B4212A21500E0843
:1002100007E2FF0A03E12050A00802E2FF0011D02C
:10022000215203E1205064080CE22150010809E347
:1002300003E12050F30805E367B202D0678201D0E2
:10024000A07B530E936E0400100E006E002EFED79E
:10025000A191F2943CEF00F0172A173C01D0176AE5
:100260001750010B0EE1192A1950030802E1196A0F
:1002700016881680182A1850050803E1186A778234
:1002800092839E903CEF00F016A204D0A0BF02D053
:10029000A1A101D06DD0655202E06690669266A081
:1002A00020D066A21ED0898E6350030806E116B4E2
:1002B00002D08A9601D08A8605D0635202E08A96DF
:1002C00001D08A866450030806E116B402D08A9AE7
:1002D00001D08A8A05D0645202E08A9A01D08A8AC3
:1002E00047D0899E66946350030806E116B402D095
:1002F0008A9601D08A860ED06350040806E116B6AD
:1003000002D08A9601D08A8605D0635202E18A968D
:1003100001D08A866450030806E116B402D08A9A96
:1003200001D08A8A0ED06450040806E116B602D0C5
:100330008A9A01D08A8A05D0645202E18A9A01D051
:100340008A8A6550030806E116B402D08A9401D067
:100350008A840ED06550040806E116B602D08A944D
:1003600001D08A8405D0655202E18A9401D08A8442
:100370009E923CEF00F01692A0A504D0010E646E90
:10038000669201D0646AA0A506D0A0A904D0030E8D
:10039000646E66826680A0A704D0010E636E6690CC
:1003A00001D0636AA0A706D0A0AB04D0030E636E91
:1003B0006680668267A013D067BE04D067BA02D099
:1003C00067A602D0040E636E67BC04D067B802D083
:1003D00067A402D0040E646E010E656E06D067A29B
:1003E00002D0656A02D0030E656E1682F9EF01F045
:1003F000C2D7A1923CEF00F02A2A20537461727494
:1004000075702C20637572722F707265762072651C
:1004100061736F6E3A2025752C25750064656570D3
:10042000667265657A6520287374617475732F72BE
:100430006561636865642D74656D702F72756E2DCE
:100440006D696E293A2025752F25752F25750D0AA2
:1004500000007375706572636F6F6C3A2025750DBF
:100460000A004672696467652046414B452F524534
:10047000414C2054656D702C2053746F702F527551
:100480006E2D6D696E733A2025642F25642C20250E
:10049000752F25750D0A0000467265657A65722014
:1004A00046414B452F5245414C2054656D702C20E0
:1004B00053746F702F52756E2D6D696E733A2025CF
:1004C000642F25642C2025752F25750D0A000D0A33
:1004D0002A2A20506C6561736520776169742066F3
:1004E0006F722074656D70206176672063616C6344
:1004F000732E2E2E2E0D0A0D0A00504F54204672D8
:10050000696467652025642F254C750D0A00504FDE
:100510005420467265657A65722025642F254C75D6
:100520000D0A0D0A00004672696467652F46726500
:10053000657A6572205374617274733A2025752F41
:1005400025750D0A00004672696467652F4672655D
:10055000657A65722072756E6E696E673A202575D0
:100560002F25750D0A0051353A2025640D0A00002B
:100570004672696467652F467265657A6572207494
:100580006F74616C2072756E3A20254C752F254C66
:10059000750D0A004C617374206572726F723A2097
:1005A00025730D0A00002A2A454E44204359434C26
:1005B000452A2A0D0A0D0A004E4F4E45000046728C
:1005C0006964676520746F205741524D3A20256455
:1005D000203E202564002A2A413A2025730D0A0076
:1005E00046726964676520434F4C443A2025642075
:1005F0003C20256400002A2A413A2025730D0A0078
:10060000467265657A657220746F205741524D3A83
:10061000202564203E20256400002A2A413A202516
:10062000730D0A00467265657A657220746F204307
:100630004F4C443A202564203C20256400002A2A9F
:10064000413A2025730D0A0046726964676520727D
:10065000756E20746F206C6F6E6700002A2A413A15
:100660002025730D0A00467265657A6572207275E1
:100670006E20746F206C6F6E67002A2A413A202525
:10068000730D0A004672696467652053454E534FE7
:10069000525F4641554C5400467265657A6572203A
:1006A00053454E534F525F4641554C540000D18044
:1006B000C10ED56EB50ECD6E000E0509CA6EFF0EC9
:1006C000CB6E850EB16EC29CC29EC150800B0D09CF
:1006D000C16EC050C00B3E09C06EC08EC280BD6AE4
:1006E000B76AB66AF18EF28A9D809D82A082C00EA2
:1006F000F212330E926E530E936EABEF0DF0AEC04E
:10070000EAFFADC0E9FFB7C0EFFFE92AD8B4EA2A93
:10071000EF6AAD2BD8B4AE2B000C0900F5520CE0FB
:10072000F6CFB1F0F7CFB2F0F5CFB7F0E8DFB1C058
:10073000F6FFB2C0F7FFF1D7000C8986A095898437
:10074000A097AE6B2C0EAD6FB80EF66E050EF76E61
:10075000E4DF9B0E5B6E5F6E6782636A646A656A44
:100760006690669216820A0EA86FA96F030E546EE9
:10077000020E556E566A576A586AFF0E596E8A8E77
:10078000A09FADEF0DF0EA6AB00EE96EEF5011E0F8
:10079000010E016EBF0E006E0400002EFDD7012E6B
:1007A000F9D74A0E006E002EFED700000400EF2E8F
:1007B000EFD7000C929C898C080E016E00D00000CF
:1007C000018E0ED0019EB933D8B0899CD8A0898CF7
:1007D000018C06D0019C012EF6D700D00000899C28
:1007E0001C0EE96EE92EFED70000040001BEEAD718
:1007F00001BCF0D703EF04F0F29CF29EF2BEFDD7ED
:10080000B8C0B9F0D7D7C00EF212000C0900F6CF6D
:10081000B2F0F7CFB3F0F5CFB8F0EEDFB2C0F6FF2D
:10082000B3C0F7FFB12FF2D7000CB851016AB75D22
:1008300003E2B7C000F00CD0006A080EB96FB737FA
:100840000036B851005CD8B0006E0136B92FF7D72A
:10085000000C0150B1C0B7F0640EB86FE6DF00C005
:10086000B1F00150300E07E1B2A30CD0B2B70AD0FC
:10087000B2B9200E03D0B297B299B281012601C05D
:10088000B8F0BADFB1C0B7F00A0EB86FCEDF00C063
:10089000B1F00150300E06E1B2B708D0B2A106D0D7
:1008A000B2B9200E012601C0B8F0A6DF300EB12784
:1008B000B1C0B8F0A1DF000C016A026A006A036AE5
:1008C000B95102E1B85118E0100EBA6FD890B6379E
:1008D000B73700360336B951035C02E1B851005C0A
:1008E00007E3B851005ED8A00306B951035ED88073
:1008F00001360236BA2FEAD7A7EF04F0B46BB36B18
:10090000B25302E1140EB26FB56BB251B55D17E28E
:10091000B135006E0036FC0E0016C250E30B00101D
:10092000C26E0400100E006E002EFED7C282C2B24C
:10093000FED7C350B327C450B423B52BE6D7B4C0F9
:10094000B7F0B3C0B6F0B96BB2C0B8F0B5D702C05B
:10095000B4F001C0B3F0B35305E1B45303E1B46B99
:10096000010EB36FB3C001F0B4C002F0000CC66B4F
:10097000C76B010EC86FDA6AD96ACB6BBE0ECA6F3D
:10098000EA6AC20EE96ECBC0E2FFCAC0E1FFC8C08E
:10099000C9F0D890E550EE02F350C623F450C723B7
:1009A000C92FF7D7C6C0DEFFC7C0C6F0C76BD8B027
:1009B000C72BCA2BD8B4CB2BC82BC8510508E0E1F4
:1009C00034EF05F0006A016A026A036AC66BC76BFE
:1009D000C86BC96BC551C411C311C2112CE0200EE4
:1009E000CA6FD890BE37BF37C037C137C637C73791
:1009F000C837C937C551C95D08E1C451C85D05E1B3
:100A0000C351C75D02E1C251C65D0FE3C251C65F6B
:100A1000C351D8A0C33DC75FC451D8A0C43DC85F6F
:100A2000C551D8A0C53DC95FD88000360136023611
:100A30000336CA2FD6D7EA6AC60EE96E000CBD6B24
:100A4000BC6BB3C0BBF0B2C0BAF0BDC0C1F0BCC09B
:100A5000C0F0B3C0BFF0B2C0BEF0C56BC46B120E25
:100A6000C36FB60EC26F83D703C0BDF002C0BCF027
:100A700001C0BBF000C0BAF003C0C1F002C0C0F0BA
:100A800001C0BFF000C0BEF0C56BC46B030EC36FE6
:100A9000E80EC26F97DF03C0B9F002C0B8F001C022
:100AA000B7F000C0B6F0B9C0C1F0B8C0C0F0B7C070
:100AB000BFF0B6C0BEF0C56BC46BC36B0A0EC26F8D
:100AC00081DF03C0BDF002C0BCF001C0BBF000C0BC
:100AD000BAF0110E005C006E010E0158000E0258B3
:100AE000000E035800C0B5F0B5C001F0000CB051C5
:100AF000B119800BB36FB0AF02D0B01FB02BB1AF44
:100B000002D0B11FB12BB151016AB05D03E2B0C098
:100B100000F00CD0006A080EB26FB0370036B15149
:100B2000005CD8B0006E0136B22FF7D7B3AF02D059
:100B3000011E012A000C8A9EA08F330E926E530E66
:100B4000936E0A0EB06F1FDE040EB16F640EB26FAB
:100B5000D5DE02C027F001C026F0036A8551870F59
:100B6000016E000E032201C0B0F003C0B1F027C037
:100B7000B3F026C0B2F0B46B62DFB1C0EAFFB0C020
:100B8000E9FF01C0EFFF852B85510308D8A4B3D03E
:100B900027C094F026C093F0810E296E7F0E286E38
:100BA000256A8551255C1FE2036A2550870FE96E8F
:100BB000000E0320EA6EEFCFAFF0AF51800A006E57
:100BC0002850800A005C01E002E2AFC028F0295002
:100BD000800A006EAF51800A005C01E002E2AFC003
:100BE00029F0252ADED75E509B0814E02850800AA1
:100BF000006E2950800A005C0DE22850295C006ECE
:100C0000E8BE08D00050020805E28651020802E35F
:100C1000856B862B85510308D8A46DD05E6A256A42
:100C20008551255C0BE2036A2550870FE96E000EA3
:100C30000320EA6EEF505E26252AF2D75EC0B0F0A0
:100C4000030EB16F54DF01C05EF0856B866B92A31B
:100C50000BD0036A8A518C0FE96E000E0320EA6EF6
:100C60005EC0EFFF8A2B92938A51060844E1810E01
:100C7000296E7F0E286E256A8A51255C1FE2036A61
:100C800025508C0FE96E000E0320EA6EEFCFAFF017
:100C9000AF51800A006E2850800A005C01E002E239
:100CA000AFC028F02950800A006EAF51800A005C66
:100CB00001E002E2AFC029F0252ADED72950285CE6
:100CC00003E08B51020815E292818B6BA0A704D040
:100CD00056505E245F6E0CD0A0B707D0A95104080F
:100CE00004E356505E245F6E03D057505E245F6E5F
:100CF00001D08B2B8A6B330E926E530E936E0400D1
:100D0000100E006E002EFED78A8EA09FEDEF0DF024
:100D1000330E926E530E936E0400100E006E002E72
:100D2000FED78A9EA08F89900A0EB06F2CDD050E2B
:100D3000B16F640EB26FE2DD02C027F001C026F091
:100D4000036A6A506C0F016E000E032201C0B0F0FE
:100D500003C0B1F027C0B3F026C0B2F0010EB46FEB
:100D60006EDEB1C0EAFFB0C0E9FF01C0EFFF6A2A42
:100D70006A500308D8A4A9D027C079F026C078F01B
:100D8000810E296E7F0E286E256A6A50255C1FE24F
:100D9000036A25506C0FE96E000E0320EA6EEFCF58
:100DA000AFF0AF51800A006E2850800A005C01E06D
:100DB00002E2AFC028F02950800A006EAF51800ACD
:100DC000005C01E002E2AFC029F0252ADED75A50CC
:100DD0009B0814E02850800A006E2950800A005CAD
:100DE0000DE22850295C006EE8BE08D000500208D1
:100DF00005E26B50020802E36A6A6B2A6A50030834
:100E000064E15A6A256A6A50255C0BE2036A255040
:100E10006C0FE96E000E0320EA6EEF505A26252A69
:100E2000F2D75AC0B0F0030EB16F61DE01C05AF0C4
:100E30006A6A6B6A77A20BD0036A6F50710FE96E12
:100E4000000E0320EA6E5AC0EFFF6F2A77926F50B0
:100E500006083BE1810E296E7F0E286E256A6F50D1
:100E6000255C1FE2036A2550710FE96E000E032016
:100E7000EA6EEFCFAFF0AF51800A006E2850800AC3
:100E8000005C01E002E2AFC028F02950800A006E49
:100E9000AF51800A005C01E002E2AFC029F0252AD0
:100EA000DED72950285C03E0705002080CE27780FE
:100EB000706AA0A504D058505A245B6E03D05950D4
:100EC0005A245B6E01D0702A6F6A330E926E530EF5
:100ED000936E0400100E006E002EFED78A8EA09F27
:100EE000EFEF0DF0320E926E130E936E0400100EA3
:100EF000006E002EFED78A9EA08F8990010EB06FE3
:100F000042DCD8907A34036A7B0F016E000E032214
:100F100001C0AFF003C0B0F0060EB16F640EB26F47
:100F2000EDDCB0C0EAFFAFC0E9FF02C0ECFFED525C
:100F300001C0EFFF9280010EB06F25DC7A2A7A5053
:100F40000408D8A48ED0276A266A256A7A50255CC0
:100F500011E2D8902534036A7B0FE96E000E03205E
:100F6000EA6EECCF03F0ED52EF5026260350272215
:100F7000252AECD727322632273226323F0E271673
:100F80000A0E265E000E275A7A6A27C084F026C011
:100F900083F02750010808E2FF0A03E12650BC084D
:100FA00003E29C0E5D6E39D02750010808E2FF0A6B
:100FB00003E12650580803E2060E5D6E2ED027503E
:100FC000000808E2FF0A03E12650F90803E2050ED3
:100FD0005D6E23D02750000808E2FF0A03E1265087
:100FE000860803E2040E5D6E18D02750000808E260
:100FF000FF0A03E126505E0803E2030E5D6E0DD08A
:101000002750000808E2FF0A03E126503B0803E2EC
:10101000020E5D6E02D0010E5D6E275205E1265074
:10102000C70802E39C0E5D6E5D509C081AE0020E3C
:101030005D5C006EE8BE03D00050000812E35D5016
:10104000010A05E0030A05E0010A06E008D0556A36
:1010500008D0010E556E05D0020E556E02D0020E5C
:10106000556E330E926E530E936E0400100E006E8A
:10107000002EFED78A8EA09FF1EF0DF0320E926EF9
:10108000130E936E0400100E006E002EFED78A9E83
:10109000A08F8A9C0A0EB06FC3EC03F0D8909535F0
:1010A000036A960F016E000E032201C0AFF003C069
:1010B000B0F0010EB16F640EB26F20DCB0C0EAFF79
:1010C000AFC0E9FF02C0ECFFED5201C0EFFF938C0F
:1010D000952B95510408D8A4A6D0276A266A256ABC
:1010E0009551255C11E2D8902534036A960FE96E7C
:1010F000000E0320EA6EECCF03F0ED52EF502626EF
:1011000003502722252AECD72732263227322632CF
:101110003F0E2716280E2626000E2722956B27C085
:101120009FF026C09EF02750010808E2FF0A03E165
:101130002650E90803E29C0E616E4FD0275001084B
:1011400008E2FF0A03E12650A30803E2EE0E616EF7
:1011500044D02750010808E2FF0A03E12650710835
:1011600003E2ED0E616E39D02750010808E2FF0A54
:1011700003E12650030803E2EC0E616E2ED02750E7
:10118000000808E2FF0A03E12650900803E2EB0E94
:10119000616E23D02750000808E2FF0A03E12650C1
:1011A000770803E2EA0E616E18D02750000808E2C3
:1011B000FF0A03E126503B0803E2E90E616E0DD001
:1011C0002750000808E2FF0A03E12650220803E244
:1011D000E80E616E02D0E70E616E275205E12650DF
:1011E000C70802E39C0E616E030E615C006EE8BEF0
:1011F00003D00050000817E36150EE0A07E0030A2D
:1012000007E0010A08E0070A09E00BD0546A0BD096
:10121000010E546E08D0020E546E05D0030E546EAB
:1012200002D0030E546E330E926E530E936E040072
:10123000100E006E002EFED78A8EA09FF3EF0DF0E9
:101240000900F6CFB2F0F7CFB3F0F5CFB7F07FECEF
:1012500003F0B2C0F6FFB3C0F7FFB12FF1D7000C17
:10126000200EB2A9300EB36FB1C000F0B1AF07D0FD
:10127000001E002A00C0B1F02D0EB36FB28F0150D6
:10128000B1C0B7F0640EB86F15EC04F000C0B1F057
:10129000300E0124B46FB1C0B7F00A0EB86F15EC70
:1012A00004F0300E0024B66F300E0124B56FB3C0C9
:1012B00000F0B2A702D0B2AFB295B2B90BD0B2AFC4
:1012C00022D0B2B520D000C0B4F0B2B31CD000C060
:1012D000B5F019D0300EB45D16E100C0B4F0200EA8
:1012E000B36FB2A704D0B295B283B2AFB293300E4F
:1012F000B55D09E100C0B5F0200EB46FB2A7F7D715
:10130000B293B2AFB291B2A504D0B3C0B7F07FEC44
:1013100003F0B2A304D0B4C0B7F07FEC03F0B2A1E5
:1013200004D0B5C0B7F07FEC03F0B6C0B7F07FECE7
:1013300003F0000CEF5210E0EACFB2F0E9CFB1F0C9
:10134000EFCFB8F0FCEC03F0B2C0EAFFB1C0E9FFA8
:10135000E92AD8B4EA2AEED7000C2450010801E3A8
:10136000DED15B509B0803E05F509B0801E1D7D1C1
:10137000010E595C5A24AF6F010E5D24010FB06F4E
:10138000B051800A006EAF51800A005C02E26280B8
:1013900001D062905AAE02D0628201D0629262A005
:1013A00036D06784AE6B2C0EAD6FBE0EF66E050E9A
:1013B000F76E100EB16F44DFAFC0B1F01F0EB26F09
:1013C0004FDF200EB76F7FEC03F03E0EB76F7FEC60
:1013D00003F0200EB76F7FEC03F0B0C0B1F01F0E2A
:1013E000B26F3EDFD60EF66E050EF76E050EB16FCC
:1013F00006EC04F0EA6A2C0EE96E9CDF0D0EB86F65
:10140000FCEC03F00A0EB86FFCEC03F001D067941B
:1014100062A234D06784AE6B2C0EAD6FE00EF66E18
:10142000050EF76E0D0EB16F0BDF5AC0B1F01F0E37
:10143000B26F16DF200EB76F7FEC03F03C0EB76F74
:101440007FEC03F0200EB76F7FEC03F0B16B1F0E43
:10145000B26F06DFF60EF66E050EF76E050EB16F73
:1014600006EC04F0EA6A2C0EE96E64DF0D0EB86F2C
:10147000FCEC03F00A0EB86FFCEC03F0010E575CB5
:101480005E24AF6F020E6124020FB06FB051800A6C
:10149000006EAF51800A005C02E2628401D0629467
:1014A0005F50800A630802E3628601D0629662A4FC
:1014B00036D06786AE6B2C0EAD6F000EF66E060E44
:1014C000F76E110EB16FBCDEAFC0B1F01F0EB26F80
:1014D000C7DE200EB76F7FEC03F03E0EB76F7FECD8
:1014E00003F0200EB76F7FEC03F0B0C0B1F01F0E19
:1014F000B26FB6DE1A0EF66E060EF76E050EB16FFF
:1015000006EC04F0EA6A2C0EE96E14DF0D0EB86FDB
:10151000FCEC03F00A0EB86FFCEC03F001D0679608
:1015200062A635D06786AE6B2C0EAD6F240EF66EBC
:10153000060EF76E110EB16F83DE5FC0B1F01F0EA5
:10154000B26F8EDE200EB76F7FEC03F03C0EB76FEC
:101550007FEC03F0200EB76F7FEC03F0E40EB16F69
:101560001F0EB26F7DDE3E0EF66E060EF76E050E96
:10157000B16F06EC04F0EA6A2C0EE96EDBDE0D0EAC
:10158000B86FFCEC03F00A0EB86FFCEC03F067AC2C
:101590001DD0AE6B2C0EAD6F480EF66E060EF76EBC
:1015A0008DEC03F05C0EF66E060EF76E050EB16F55
:1015B00006EC04F0EA6A2C0EE96EBCDE0D0EB86F84
:1015C000FCEC03F00A0EB86FFCEC03F067AE1DD024
:1015D000AE6B2C0EAD6F660EF66E060EF76E8DECD2
:1015E00003F07A0EF66E060EF76E050EB16F06EC7E
:1015F00004F0EA6A2C0EE96E9DDE0D0EB86FFCEC6D
:1016000003F00A0EB86FFCEC03F067AC04D0A851ED
:101610001D0801E2679C67AE04D0A9511D0801E2D4
:10162000679E7950010804E30BE178508F0808E2C7
:101630007950020807E2FF0A03E17850200802E22D
:10164000678801D067989451010804E30BE1935136
:101650008F0808E29451020807E2FF0A03E1935160
:10166000200802E2678A01D0679A67BC0AD067BE89
:1016700008D067B806D067BA04D067B402D067A6AE
:1016800007D0678062B403D062B001D0679201D006
:10169000679067A821D0AE6B2C0EAD6F840EF66EEE
:1016A000060EF76E8DEC03F0410EB86FFCEC03F004
:1016B0003A0EB86FFCEC03F0200EB86FFCEC03F0B0
:1016C000EA6A2C0EE96E36DE0D0EB86FFCEC03F004
:1016D0000A0EB86FFCEC03F067AA21D0AE6B2C0E9B
:1016E000AD6F980EF66E060EF76E8DEC03F0410EA0
:1016F000B86FFCEC03F03A0EB86FFCEC03F0200E70
:10170000B86FFCEC03F0EA6A2C0EE96E13DE0D0EE6
:10171000B86FFCEC03F00A0EB86FFCEC03F0F6EFC8
:101720000DF05F509B0801E15DD0A083A5515008EA
:1017300006E25F50800A6B0802E2040E5F5EA5516C
:10174000EF0804E2A093678EA09B01D0679E67AA72
:1017500001D0A0935E50800A630803E3A0BB01D0D0
:10176000A093A0A316D0A0A70AD05450615C800A11
:10177000006E5F50800A005C01E3A0930AD0020E65
:101780006124800A006E5F50800A005C02E001E381
:10179000A09362A404D061509C08D8A4A08362B630
:1017A000A093A0A706D0A0B304D0A5510E0801E3D2
:1017B000A083A0B706D0A0A304D0A951090801E3D3
:1017C000A093A0AB08D0A0BD05D05F50800A6608EA
:1017D00001E3A08DA08367AE01D0A09361509C0867
:1017E00001E1A093F7EF0DF05B509B0801E151D0B0
:1017F000A081A251EF0803E2A091678EA09967A88B
:1018000001D0A0915ABE01D001D0A091A0A116D0C4
:10181000A0A50AD055505D5C800A006E5B50800A1E
:10182000005C01E3A0910AD0010E5D24800A006EE5
:101830005B50800A005C02E001E3A09162A004D04A
:101840005D509C08D8A4A08162B2A091A0A506D04A
:10185000A0B104D0A2510E0801E3A081A0B506D02A
:10186000A0A104D0A851090801E3A091A0B10AD019
:10187000A0A908D05BBE03D05B50000802E3A0998A
:1018800001D0A08167AC01D0A0915D509C0801E11E
:10189000A091F8EF0DF077A00FD07790A0A105D020
:1018A000A0B503D08996A085232AA0B105D0A0A514
:1018B00003D08986A095A86B92A10FD09291A0A386
:1018C00005D0A0B703D08994A087222AA0B305D061
:1018D000A0A703D08984A097A96B00EF0EF0200E7B
:1018E000B1A9300EB26FB0C000F0B0AF07D0001E8B
:1018F000002A00C0B0F02D0EB26FB18F0150B0C001
:10190000B7F0640EB86F15EC04F000C0B0F0300E04
:101910000124B36FB0C0B7F00A0EB86F15EC04F035
:10192000300E0024B56F300E0124B46FB2C000F049
:10193000B1A702D0B1AFB195B1B90BD0B1AF22D040
:10194000B1B520D000C0B3F0B1B31CD000C0B4F02A
:1019500019D0300EB35D16E100C0B3F0200EB26FA7
:10196000B1A704D0B195B183B1AFB193300EB45DDE
:1019700009E100C0B4F0200EB36FB1A7F7D7B1935F
:10198000B1AFB191B1A504D0B2C0B8F0FCEC03F096
:10199000B1A304D0B3C0B8F0FCEC03F0B1A104D003
:1019A000B4C0B8F0FCEC03F0B5C0B8F0FCEC03F048
:1019B000000C0900F5520DE0F6CFAFF0F7CFB0F014
:1019C000F5CFB8F0FCEC03F0AFC0F6FFB0C0F7FF06
:1019D000F0D7000CEACFB7F0E9CFB6F0B039F00994
:1019E000B26FB227E20FB36F320FB56FB0510F0B6A
:1019F000B327B327B527E90FB46FB427B427AF399E
:101A00000F0BB427B527B437B537B51FB537AF516E
:101A10000F0BB527B237070EB16F0A0EB407B52703
:101A2000FDE3B307B427FDE3B207B327FDE3B10736
:101A3000B227FDE3EA6AB10EE96E070EB615B69D50
:101A4000E926B50EE95CD8B4B68DEF50006E08E11A
:101A5000B6BD06D0B6B914D0B6B702D0200E03D0AA
:101A6000B687B699300E0026EACFB0F0E9CFAFF0D6
:101A700000C0B8F0FCEC03F0B0C0EAFFAFC0E9FF73
:101A8000EE50B6ADDED7000CF86AD09E078EFE0E83
:101A9000006E010E016E020EE96E000EEA6EEE6A35
:101AA0000400002EFCD7012EFAD7EA6AE96A620E1A
:101AB000D36ED350929C899CC29CC29EC150800B15
:101AC0007F09C16E1E6A1F6A206A216A226A236A20
:101AD000246A266A276A286A296AAB6BAC6BAD6BED
:101AE000AE6BF2CFAFF0F29EFF0EA96EA69CA69E43
:101AF000A680A850AFBFF28E2A6ED0500F0BD0A890
:101B0000000ED080D082D088D886D888AF6FFF0EE4
:101B1000A96EAFC0A8FFA69CA69EA684F250006E38
:101B2000F29E0F01550EA76EAA0EA76EA682A6B250
:101B3000FED7A6940050F212F2CFAFF0F29EFF0E45
:101B4000A96EA69CA69EA680A8500001AFBFF28EEB
:101B50002B6E57EF03F09DEF03F0010E636E020E44
:101B6000AF6FC80EB06FC3EC03F0AF2FFAD7010E02
:101B7000646E020EAF6FC80EB06FC3EC03F0AF2FF0
:101B8000FAD7010E656E080EAF6FFA0EB06FC3EC98
:101B900003F0AF2FFAD7636A646A656AF80EF66ECF
:101BA000030EF76E1E0EB16F06EC04F02BC0B1F001
:101BB0001B0EB26F29EC04F02C0EB86FFCEC03F096
:101BC0002AC0B1F01B0EB26F29EC04F0040016A07D
:101BD0000DD0A0BF0BD09BEF05F088EF06F072EFA1
:101BE00007F03EEF08F01690ADEF09F09AD5FCD55E
:101BF00077B002D092A104D02450000801E24BD665
:101C000016A8A2D11698000EA0BB010EAF6F000E51
:101C1000A0BD010EB06F1C0EF66E040EF76E2A0EFC
:101C2000B16F06EC04F0AFC0B1F01B0EB26F29EC3F
:101C300004F02F0EB86FFCEC03F0B0C0B1F01B0E37
:101C4000B26F29EC04F02F0EB86FFCEC03F0AAC0C1
:101C5000B1F01B0EB26F29EC04F00D0EB86FFCEC66
:101C600003F00A0EB86FFCEC03F0000EA0B9010EF1
:101C7000AF6F520EF66E040EF76E0B0EB16F06ECE0
:101C800004F0AFC0B1F01B0EB26F29EC04F00D0EE2
:101C9000B86FFCEC03F00A0EB86FFCEC03F05B507D
:101CA0009B0803E15F509B086DE0620EF66E040E28
:101CB000F76E260EB16F06EC04F05BC0B0F01F0E9D
:101CC000B16F0DDE2F0EB86FFCEC03F05AC0B0F010
:101CD0001F0EB16F04DE2C0EB86FFCEC03F0200E6B
:101CE000B86FFCEC03F0A8C0B1F01B0EB26F29EC8A
:101CF00004F02F0EB86FFCEC03F0A2C0B1F01B0E85
:101D0000B26F29EC04F00D0EB86FFCEC03F00A0E74
:101D1000B86FFCEC03F0980EF66E040EF76E270E0B
:101D2000B16F06EC04F05FC0B0F01F0EB16FD7DDED
:101D30002F0EB86FFCEC03F05EC0B0F01F0EB16F59
:101D4000CEDD2C0EB86FFCEC03F0200EB86FFCEC6F
:101D500003F0A9C0B1F01B0EB26F29EC04F02F0EF6
:101D6000B86FFCEC03F0A5C0B1F01B0EB26F29EC0C
:101D700004F00D0EB86FFCEC03F00A0EB86FFCEC2B
:101D800003F005D0CE0EF66E040EF76E12DEFA0EDC
:101D9000F66E040EF76E0B0EB16F06EC04F05DC02C
:101DA000B0F01F0EB16F9BDD2F0EB86FFCEC03F08F
:101DB000100EE96E84C0B0F083C0AFF00BDE0D0EE4
:101DC000B86FFCEC03F00A0EB86FFCEC03F00E0EDB
:101DD000F66E050EF76E0C0EB16F06EC04F061C0E6
:101DE000B0F01F0EB16F7BDD2F0EB86FFCEC03F06F
:101DF000100EE96E9FC0B0F09EC0AFF0EBDD200E7C
:101E0000F66E050EF76E040EB16F06EC04F0260EAA
:101E1000F66E050EF76E170EB16F06EC04F023C0D8
:101E2000B1F01B0EB26F29EC04F02F0EB86FFCEC72
:101E300003F022C0B1F01B0EB26F29EC04F00D0EBE
:101E4000B86FFCEC03F00A0EB86FFCEC03F0000E68
:101E5000A0B5010EAF6F000EA0B7010EB06F460E19
:101E6000F66E050EF76E180EB16F06EC04F0AFC0FB
:101E7000B1F01B0EB26F29EC04F02F0EB86FFCEC22
:101E800003F0B0C0B1F01B0EB26F29EC04F00D0EE0
:101E9000B86FFCEC03F00A0EB86FFCEC03F0000E18
:101EA00080BA010EAF6F660EF66E050EF76E040E69
:101EB000B16F06EC04F0AFC0B0F01F0EB16F0FDDD4
:101EC0000D0EB86FFCEC03F00A0EB86FFCEC03F0DB
:101ED000700EF66E050EF76E1A0EB16F06EC04F07A
:101EE000100EE96EA4C0B0F0A3C0AFF073DD2F0EEA
:101EF000B86FFCEC03F0100EE96EA7C0B0F0A6C0FE
:101F0000AFF068DD0D0EB86FFCEC03F00A0EB86F91
:101F1000FCEC03F0940EF66E050EF76E0C0EB16F2E
:101F200006EC04F0EA6A2C0EE96E9AEC09F00D0E4C
:101F3000B86FFCEC03F00A0EB86FFCEC03F0A60ED1
:0C1F4000F66E050EF76E35DD41D603008D
:0200000400F00A
:0400000002010107F1
:0100100000EF
:0100200000DF
:0100300000CF
:01004000FFC0
:02005000B612E6
:020000040030CA
:0E00000000080B190000810003C003E003405C
:00000001FF
;PIC18F1320
;CRC=38C5  CREATED="09-jan-11 10:32"
