:1000000008308A0076280000FF00030E8301A1005B
:100010000A08A0008A010408A2007708A300780853
:10002000A4007908A5007A08A6007B08A70083131E
:1000300083128B1E1D280B193028220884002308E8
:10004000F7002408F8002508F9002608FA00270818
:10005000FB0020088A00210E8300FF0E7F0E09009E
:100060008A110A12B2280A108A100A118207203453
:10007000423441344434453456344934463454349B
:1000800045342034763431342E3432342034003444
:100090000A108A100A1182074B3465346E346E34AC
:1000A00079342034303437342E34313430342E34F3
:1000B000323430343034373400340A108A100A11A4
:1000C0008207533474346134723474344F344B3493
:1000D00000340A108A100A118207533474346F34C2
:1000E00070344F344B3400340A108A100A118207DE
:1000F0004134753474346F344F344B3400340A1047
:100100008A100A1182074134553454344F34203454
:100110004F344634463400340A108A100A118207DC
:100120004134553454344F3420344F344E34003439
:100130000A108A100A1182072034523455344E3482
:100140004E3449344E344734203400340A108A1077
:100150000A118207533454344F34503450344534E8
:10016000443400342B08AB0A103C031DDE28AB01DD
:100170003208B20A053C031DC028B2010130A900B3
:10018000350BCB28B40A3408133C0318CB282A0BB0
:10019000CA28AA01B40128142808831687008312EC
:1001A0000718DE280130B306330BDB28831606124E
:1001B00083120612DE28831606168312A814280856
:1001C0008316870083128718EF282F08AF0A013C97
:1001D000031DEE280130AE00F030AF00F028AF0173
:1001E000281528088316870083120719012931086A
:1001F000B10A013C031D00290130B000F030B1000C
:100200000229B101063081000B118A110A121D2842
:100210004C3084008313000803191B290230F800B6
:10022000F701F70B1129F80B10299730F700F70B9E
:100230001729800B0E2900344C18202987112129F9
:100240008715A8112808831687008312CC182A293D
:1002500007122B29071628122808831687008312F5
:100260004C193429871235298716A81228088316B5
:1002700087008312CC193E2907133F29071728133B
:10028000280883168700831200348316861283128F
:1002900086160630F700F70B4B29000083168612EE
:1002A000831286120530CC0008210034B60E3608C1
:1002B000CC001C214521B60E3608CC001C2145215E
:1002C0000034CC011C21C830CC0008218316061351
:1002D000831206130330CC001C2145214521452102
:1002E0000230CC001C2145212C30B60056210C30A8
:1002F000B60056210130B60056210630B600562110
:100300000034BE0E3E080838BF00CC001C21452139
:10031000BE0E3E08CC001C21452100348316061376
:1003200083120617CB0E4B08CC001C214521CB0EA7
:100330004B08CC001C21452183160613831206139B
:100340000034BE018121B60136083320B60AF70019
:10035000CB008E2110303602031DA4294030BE0090
:100360008121B60136084820B60AF700CB008E215D
:1003700010303602031DB2298A150A12C0288E30A9
:10038000F7004908F8004808F900FA01F808031DC9
:10039000D3297908F800F9010830F702F808031D9D
:1003A000D329F701DB290310F81BDA29F90DF80D21
:1003B000F703D329F813003450080319A12ADC00ED
:1003C00054080319A12ADC02031CEB297F30DC0747
:1003D0000318A12AF1298130DC02031CA12A031988
:1003E000A12A5C08F700F801F901FA01DB015108C4
:1003F000DA00DA175208D9005308D8001930DC00A7
:100400005708D8020318142A0130D9020318142AF5
:10041000DA020318142ADB020318142ADB0ADA0AA8
:10042000D90A5708D807462A5608D90203182F2A8E
:100430000130DA0203182F2ADB0203182F2ADB0A05
:10044000DA0A5608D9075708D807031C462AD90ADA
:10045000031D462ADA0A031D462ADB0A462A5508E6
:100460008038DA020318452A0130DB020318452AD6
:10047000DB0A55088038DA075608D907031C232AF7
:10048000DA0A031D232ADB0A232A7A14DC0B492A01
:10049000542A0310D80DD90DDA0DDB0D0310FA0D17
:1004A000F90DF80DDD0D002A5D1C5C2A0310F80C17
:1004B000F90CFA0CDD0C5F2AF7030319A12ADD1BE6
:1004C000882A0310D80DD90DDA0DDB0D5708D80294
:1004D0000318742A0130D9020318742ADA020318A7
:1004E000742ADB02031C972A5608D90203187F2AB4
:1004F0000130DA0203187F2ADB02031C972A550811
:100500008038DA020318882A0130DB02031C972A9C
:10051000FA0A031D972AF90A031D972AF80A031DF0
:10052000972AF70A0319A12AF80CF90CFA0C5108BA
:10053000DC005508DC06DC1F9F2AF817A52AF813F3
:10054000A52AF701F801F901FA010034500803194E
:10055000162BD80054080319162BD8070318B72AEE
:100560007F30D802031C162B0319162BBB2A8130AF
:10057000D8070318162B5808F700F801F901FA01FB
:100580005108DC00DC175208DB005308DA00183091
:10059000D800D9015A1CE42A5708FA07031CD62AA6
:1005A000F90A031DD62AF80A0319D9175608F907BC
:1005B000031CDD2AF80A0319D9175508D200D217EF
:1005C0005208F8070318D917D90DF80CF90CFA0CD2
:1005D000DC0CDB0CDA0C0310D80BC92A0130F7074E
:1005E0000318162BF81BFB2ADC0DFA0DF90DF80D7C
:1005F000F7030319162BDC1F0C2BFA0A031D0C2B17
:10060000F90A031D0C2BF80A031D0C2BF80CF90C2E
:10061000FA0CF70A0319162B5108D9005508D90608
:10062000D91F142BF8171A2BF8131A2BF701F801FE
:10063000F901FA01003480308318D106D601D701C0
:100640004D08D5005108D5064C0803190B2CD400D1
:10065000F70050080319142CD4020319B02B031C03
:100660006E2B5108DA00DA175208D9005308D80067
:10067000D7010310DA0CD90CD80CD70CD40B382BBB
:10068000D51F452B5614282C5610541056164F3093
:10069000840083133D2C5612D51B582B541C632BFE
:1006A000DA0CD90CD80CD70CF70A0319232C632BBE
:1006B000DA1B662B0310D70DD80DD90DDA0DF70311
:1006C0000319232C582B5617D02B56134D08D50041
:1006D000D51F6C2BDA171C2CDA131C2C5008D400F5
:1006E000F7004C08D4024D08DA00DA174E08D9009A
:1006F0004F08D800D7010310DA0CD90CD80CD70C4E
:10070000D40B7A2BD51F872BD614282CD610541037
:10071000D6165330840083133D2CD612D51B9A2B4A
:10072000541CA52BDA0CD90CD80CD70CF70A0319DA
:10073000232CA52BDA1BA82B0310D70DD80DD90D10
:10074000DA0DF7030319232C9A2BD617D02BD613C7
:100750005108D500D51FAE2BDA171C2CDA131C2C30
:100760005108DA00DA175208D9005308D800D51F0B
:10077000BD2BDA135615282C5611D70154104F30C3
:10078000840083133D2CD51BE62B4D08D500541C4B
:10079000D02BDA0CD90CD80CD70CF70A0319232C60
:1007A000D71FE12BD80A031DE12BD90A031DE12B2A
:1007B000DA0A031DE12BDA0CD90CD80CF70A03195D
:1007C000232C561B652BD61BA72B052C8030DA0655
:1007D000DA1FEE2B282C5108D500FB2B4D08D50035
:1007E000DA08031DFB2BD908031DFB2BD808031DBA
:1007F000FB2BF7011C2CDA1B052C0310D70DD80D91
:10080000D90DDA0DF70BFB2B232CD51F092CDA178A
:100810001C2CDA131C2C5008F7005108DA0052087F
:10082000D9005308D8001C2C4C08F7004D08DA00FA
:100830004E08D9004F08D8005A08F8005908F900A6
:100840005808FA005B2CF701F801F901FA015B2C5A
:10085000D701D809D909DA09D709D70A031D362CD7
:10086000D80A031D362CD90A0319DA0A5618442B64
:10087000D618862B5619BC2BEB2B0008D807031C67
:10088000472CD90A031D472CDA0A03195414840390
:100890000008D907031C4F2CDA0A031954148403E7
:1008A0000008801F803ADA0703185414561A4B2B9D
:1008B000D61A8D2BC32B8A110A12F12C8E30F70019
:1008C0004808F7024908F9004A08F800F917F7083C
:1008D0000319752C0310F908031D712CF80803196E
:1008E000752CF90CF80CF70B6A2CC91F7C2CF80935
:1008F000F909F80A0319F90A8A110A121A2D0030A7
:10090000F8001F08C73978049F001F151F19862C8F
:1009100083161E088312BE001E08BF003F08C900D0
:100920003E08C800BF217708C8007808C9007908C8
:10093000CA007A08CB00D3007908D2007808D10029
:100940007708D000D701C030D6007F30D50088307E
:10095000D400DC217708CC007808CD007908CE00DF
:100960007A08CF00D3007908D2007808D100770840
:10097000D000D701D6012030D5008130D400A62286
:100980007A08C3007908C2007808C1007708C0005F
:100990004308D3004208D2004108D1004008D000EB
:1009A000D701D6012030D5008130D400DC21770872
:1009B000C8007808C9007908CA007A08CB008314F7
:1009C0007A08CF007908CE007808CD007708CC00EF
:1009D0000A30D300D730D2002330D1007C30D00091
:1009E0001B2B7708CC007808CD007908CE007A0858
:1009F000CF00D3007908D2007808D1007708D00062
:100A00005F30D7002930D6004B30D5007730D40086
:100A1000DC217A08C7007908C6007808C500770885
:100A2000C4004708CB004608CA004508C90044086E
:100A3000C8005E2C790800343F08C6004308C6068B
:100A4000C61F272D03110310BF1B03145A2D3F0887
:100A5000C6004208C7003E08C7020319352DC61F4D
:100A60005A2D0308013A83005A2D4308C7003F0856
:100A7000C7020319412DC61F5A2D0308013A8300EE
:100A80005A2D4408C7004008C70203194D2DC61F40
:100A90005A2D0308013A83005A2D4508C700410822
:100AA000C7020319592DC61F5A2D0308013A8300A6
:100AB0005A2D031000347F247908C9007808C80033
:100AC000BF217A08B9007908B8007808B70077081C
:100AD000B600C101C0012030BF008430BE0039081B
:100AE000C5003808C4003708C3003608C2001C25FA
:100AF000031C872DB508031D862D0130B500B401F8
:100B0000281028088316870083120710952D2A0BBA
:100B10008C2D0130B500952D350B952DB501B40107
:100B20002814280883168700831200344B08B63C2B
:100B3000CB00FA014C08CF00CC170310CC0CCD0C25
:100B4000CE0CFA0CF90CF80CF70CCB0B9D2DCF1F2B
:100B5000B42DF709F809F909FA09F70A0319F80A8F
:100B60000319F90A0319FA0A8A110A12212EF70148
:100B7000F801F901FA01D301D401D501D6015208D7
:100B8000510450044F040319F52D2030D7000310F1
:100B9000CB0DCC0DCD0DCE0DD30DD40DD50DD60D69
:100BA00052085602031DDE2D51085502031DDE2D8D
:100BB00050085402031DDE2D4F085302031CEF2D75
:100BC0004F08D3025008031C500FD4025108031CD5
:100BD000510FD5025208031C520FD6020314F70D11
:100BE000F80DF90DFA0DD70BC72D53308400831380
:100BF00000340408C3004208C5000319182E410838
:100C0000D3004008D2003F08D1003E08D000D701F1
:100C1000D6012030D5008230D400A6227A08C10047
:100C20007908C0007808BF007708BE00C50BFF2D0B
:100C30004108CE004008CD003F08CC003E08CB0064
:100C4000962D7A08C1007908C0007808BF0077089F
:100C5000BE00C11F382EC303C316BE09BF09C00999
:100C6000C109BE0A0319BF0A0319C00A0319C10A40
:100C70003B30CA009A30C900CA30C800C7010A30E8
:100C8000C50042080319C30A4108CE004008CD0040
:100C90003F08CC003E08CB004A08D2004908D100EA
:100CA0004808D0004708CF00B7250008BE00840AD6
:100CB0000008BF00840A0008C000840A0008C100C0
:100CC000FD308407F708031D782E420A45020319F8
:100CD000782E430803197A2E0F3945020319722E14
:100CE0000318AA2EC31BAA2E431B7A2E2030A62E31
:100CF0002030C305C31E882EC3124208031DC30340
:100D00007708C3002D30CB008E214308F700C301C4
:100D100042084502031D962E7708C3002E30CB00F3
:100D20008E214308F7002030C30500303030C31E49
:100D3000A62EC3124208031DC3037708C3002D303B
:100D4000CB008E214308F700C3013030F707770846
:100D5000CB008E214A08CE004908CD004808CC00BF
:100D60004708CB00D201D101D0010A30CF00B7250E
:100D70007A08CA007908C9007808C8007708C7004F
:100D8000C50B442E00344030BE0081212C080319CD
:100D9000D02E013A0319E92E033A0319022F1B2F13
:100DA000B60136085D20B60AF700CB008E2105306B
:100DB0003602031DD12E0930B7002030CB008E2122
:100DC000B70BDD2E4F30CB008E214B30CB008E2168
:100DD0001B2FB60136086920B60AF700CB008E211A
:100DE00004303602031DEA2E0A30B7002030CB0053
:100DF0008E21B70BF62E4F30CB008E214B30CB001F
:100E00008E211B2FB60136087420B60AF700CB00DE
:100E10008E2104303602031D032F0A30B700203024
:100E2000CB008E21B70B0F2F4F30CB008E214B30D4
:100E3000CB008E211B2F290BA92FA9017F24790814
:100E4000C9007808C800BF217A08BD007908BC0035
:100E50007808BB007708BA00BE0181213D08C100B7
:100E60003C08C0003B08BF003A08BE00C501C030C6
:100E7000C4007F30C3008830C2001C25031D4A2FE8
:100E80004F30CB008E212F30CB008E215230CB0043
:100E90008E21572F013084003D08C1003C08C0005E
:100EA0003B08BF003A08BE000130C200F925B90175
:100EB000B801B701B6010C30BE00812101308400B9
:100EC0003908C1003808C0003708BF003608BE0026
:100ED0000130C200F9250430BE0081212C08023CFB
:100EE000031D8D2FB508031D812FBE013E087F20F5
:100EF000BE0AF700CB008E2108303E02031D762F7C
:100F00008C2FBE013E088C20BE0AF700CB008E213C
:100F100007303E02031D822FA92FAC08031D9C2F12
:100F2000BE013E089820BE0AF700CB008E21093092
:100F30003E02031D912FA92F2C0BA92FBE013E08A5
:100F4000A620BE0AF700CB008E2107303E02031D0B
:080F50009F2F8A150A120629E1
:101000002E0B09282C08AC0A013C03180828AC0157
:10101000AE01300B0E280130AD00B0012C080319D1
:101020001828013A03193C28033A03195828732851
:101030002D0B3C28AD010130AA002810280883168A
:1010400087008312071083160612831206120430DB
:10105000B600FA30CC008A1108218A15B60B29286F
:101060000130A900B6008A1156218A15AE01B001DF
:10107000AB010130AC0073282D0B5828AD01AA013B
:10108000281428088316870004308312B600FA302B
:10109000CC008A1108218A15B60B47280130A90017
:1010A000B6008A1156218A15AE01B001AC01732831
:1010B0002D0B7328AD018A115B258A150430B6000B
:1010C000FA30CC008A1108218A15B60B602801304D
:1010D000A900B6008A1156218A15AE01B001AB01F4
:1010E0000130AC0073288A150A1208298401831381
:1010F0001F30830583161F149F141F159F11FF3087
:101100008312A800A901AA01AB01AC01AD01AE0197
:10111000AF01B001B101B201B301B401B501C830F2
:10112000CC008A1108218A150630F700F71DA12886
:10113000073081018130840083130008C0390F38E3
:1011400080006400813084000008C039770480008A
:10115000281028088316870083120710831686112B
:101160008312861183160612831206128A116121D8
:101170008A150130B6008A1156218A158A11A129D3
:101180008A151430B600FA30CC008A1108218A156D
:10119000B60BC3280130B6008A1156218A158A1170
:1011A00061218A1528152808831687008312970164
:1011B000A81428088316870083129D0183161F1028
:1011C0009F141F159F1583121F179F1783169F17B4
:1011D00083121F140030F8001F08C73978049F00DD
:1011E0008B16C0308B04AA01AD01B301AE01B00172
:1011F000AF01B1018316061602308312AC008A11CA
:101200005B258A150130A9008A11C32E8A15002892
:04121000042963004A
:02400E00393F38
:00000001FF
;PIC16F876
