:1000000008308A00B82E0000FF00030E8301A10013
:100010000A08A0008A010408A2007708A300780853
:10002000A4007908A5007A08A6007B08A70083131E
:1000300083128B1E1D280B193028220884002308E8
:10004000F7002408F8002508F9002608FA00270818
:10005000FB0020088A00210E8300FF0E7F0E09009E
:100060008A110A1209290A108A100A1182074234D9
:100070004134443445345634493446345434453498
:1000800020342034763432342E3433343634003451
:100090000A108A100A1182074B3465346E346E34AC
:1000A00079342034313436342E34313430342E34F3
:1000B000323430343034373400340A108A100A11A4
:1000C00082074F344E344334683461346E346734BD
:1000D000653400340A108A100A1182074F344634FE
:1000E00046344334683461346E34673465340034E4
:1000F0000A108A100A1182074134553454344F349F
:100100004334683461346E346734653400340A1023
:100110008A100A1182075334653474347434693494
:100120006E3467347334203420344334683461349B
:100130006E346734653400340A108A100A1182075D
:100140002034483475346D3469346434693474341B
:10015000793420346C3469346D3469347434203427
:1001600000340A108A100A1182074D3469346E3443
:1001700069346D3475346D342034723475346E34B2
:100180002034743469346D34653400340A108A10B4
:100190000A118207253475346D3469346E34203485
:1001A0006934663420344134753474346F34203407
:1001B0004F344E3400340A108A100A1182074E342C
:1001C0006F3474342034723475346E3420346934AE
:1001D0006634203475346E346434653472340034DB
:1001E0000A108A100A1182074134553420344F34E2
:1001F0004634463400340A148A100A11023E0318A9
:100200008A0A82004134553420344F344E3420342D
:1002100000342B08AB0A1E3C03183D29AB01320801
:10022000B20A053C031D1729B2010130A900AC0830
:10023000031D2A292A0B2A29B608031D2A29340856
:10024000B40A3C3C031D28290130B600A900292925
:10025000B6012B29B4012A0B3A290130B306330B1E
:1002600036298316061283120612392983160616BA
:1002700083123D29831606168312A81428088316B4
:100280008700831287184A292F087F3C031C4929BD
:10029000AF0A57292F08023C031856292F08803C23
:1002A000031D54298A0100280130AE00AF01063039
:1002B00081000B118A110A121D284D30840083130E
:1002C0000008031970290230F800F701F70B6629BE
:1002D000F80B65299730F700F70B6C29800B632921
:1002E00000344D187529871176298715A81128081B
:1002F000831687008312CD187F29071280290716DD
:10030000281228088316870083124D19892987121D
:100310008A298716A8122808831687008312CD1908
:100320009329071394290717281328088316870091
:100330008312003483168612831286160630F70065
:10034000F70BA0290000831686128312861205304F
:10035000CD005D210034B70E3708CD0071219A2100
:10036000B70E3708CD0071219A210034CD017121DB
:10037000C830CD005D2183160613831206130330A7
:10038000CD0071219A219A219A210230CD0071214C
:100390009A212C30B700AB210C30B700AB210130D3
:1003A000B700AB210630B700AB210034BF0E3F08C9
:1003B0000838C000CD0071219A21BF0E3F08CD0042
:1003C00071219A2100348316061383120617CC0E6E
:1003D0004C08CD0071219A21CC0E4C08CD00712122
:1003E0009A2183160613831206130034BF01D62107
:1003F000B70137083320B70AF700CC00E3211030EB
:100400003702031DF9294030BF00D621B701370854
:100410004820B70AF700CC00E32110303702031D53
:10042000072A8A150A12032F8E30F7004F08F800AA
:100430004E08F900FA01F808031D282A7908F80087
:10044000F9010830F702F808031D282AF701302ABD
:100450000310F81B2F2AF90DF80DF703282AF813BB
:10046000003472080319032B8316A8002008031D0B
:100470003B2A8312032BA802031C452A7F30A807BE
:10048000031C442A8312032B4F2A8130A80203182D
:100490004B2A8312032B031D4F2A8312032B280898
:1004A000F700F801F901FA01A7017308A600A617E1
:1004B0007408A5007508A4001930A8002308A40238
:1004C0000318722A0130A5020318722AA602031823
:1004D000722AA7020318722AA70AA60AA50A2308E5
:1004E000A407A42A2208A50203188D2A0130A60217
:1004F00003188D2AA70203188D2AA70AA60A220824
:10050000A5072308A407031CA42AA50A031DA42ADF
:10051000A60A031DA42AA70AA42A21088038A60235
:100520000318A32A0130A7020318A32AA70A210847
:100530008038A6072208A507031C812AA60A031DE6
:10054000812AA70A812A7A14A80BA72AB22A0310A3
:10055000A40DA50DA60DA70D0310FA0DF90DF80DAC
:10056000A90D5E2A291CBA2A0310F80CF90CFA0C02
:10057000A90CBE2AF70BBE2A8312032BA91BE72A5C
:100580000310A40DA50DA60DA70D2308A4020318A2
:10059000D32A0130A5020318D32AA6020318D32AAE
:1005A000A702031CF82A2208A5020318DE2A01303C
:1005B000A6020318DE2AA702031CF82A21088038A5
:1005C000A6020318E72A0130A702031CF82AFA0A38
:1005D000031DF82AF90A031DF82AF80A031DF82A50
:1005E000F70A031DF52A8312032BF80CF90CFA0CF9
:1005F0007308A8002108A806A81F002BF817082BCD
:10060000F813082B8312F701F801F901FA01831698
:10061000831200346E0803198D2B8316A000720814
:10062000031D142B83128D2BA0070318222B7F3060
:10063000A00203181D2B83128D2B031D212B831267
:100640008D2B282B8130A007031C282B83128D2B88
:100650002008F700F801F901FA0183126F088316E8
:10066000A400A4177008A3007108A2001830A0000D
:10067000A101221C532B7508FA07031C452BF90A0C
:10068000031D452BF80A0319A1177408F907031C69
:100690004C2BF80A0319A1177308F000F017700823
:1006A000F8070318A117A10DF80CF90CFA0CA40C0B
:1006B000A30CA20C0310A00B382B0130F707031C6E
:1006C000632B83128D2BF81B6D2BA40DFA0DF90DE6
:1006D000F80DF70B6D2B83128D2BA41F802BFA0ABC
:1006E000031D802BF90A031D802BF80A031D802BA4
:1006F000F80CF90CFA0CF70A031D802B83128D2BD2
:1007000083126F088316A1007308A106A11F8A2B0C
:10071000F817922BF813922B8312F701F801F901C5
:10072000FA018316831200348030831C9A2B8316BF
:10073000A10683128316A601A7017308A50021084C
:10074000A50672080319882CA400F70020080319D5
:10075000912CA40203192D2C031CEB2B2108AA00B9
:10076000AA172208A9002308A800A7010310AA0CB1
:10077000A90CA80CA70CA40BB52BA51FC22B2614E3
:10078000A52C261024102616753084008313BA2C4D
:100790002612A51BD52B241CE02BAA0CA90CA80CF7
:1007A000A70CF70A0319A02CE02BAA1BE32B0310BC
:1007B000A70DA80DA90DAA0DF7030319A02CD52B81
:1007C00026174D2C26137308A500A51FE92BAA1781
:1007D000992CAA13992C2008A400F7007208A402EF
:1007E0007308AA00AA177408A9007508A800A70131
:1007F0000310AA0CA90CA80CA70CA40BF72BA51F7F
:10080000042CA614A52CA6102410A616A330840030
:100810008313BA2CA612A51B172C241C222CAA0C5D
:10082000A90CA80CA70CF70A0319A02C222CAA1BB0
:10083000252C0310A70DA80DA90DAA0DF703031968
:10084000A02C172CA6174D2CA6132108A500A51F18
:100850002B2CAA17992CAA13992C2108AA00AA17A5
:100860002208A9002308A800A51F3A2CAA132615C0
:10087000A52C2611A7012410753084008313BA2CEF
:10088000A51B632C7308A500241C4D2CAA0CA90CD5
:10089000A80CA70CF70A0319A02CA71F5E2CA80A06
:1008A000031D5E2CA90A031D5E2CAA0A031D5E2CE3
:1008B000AA0CA90CA80CF70A0319A02C261BE22BE2
:1008C000A61B242C822C8030AA06AA1F6B2CA52CD8
:1008D0002108A500782C7308A500AA08031D782C10
:1008E000A908031D782CA808031D782CF701992C62
:1008F000AA1B822C0310A70DA80DA90DAA0DF70B9A
:10090000782CA02CA51F862CAA17992CAA13992CF9
:100910002008F7002108AA002208A9002308A8003F
:10092000992C7208F7007308AA007408A9007508CA
:10093000A8002A08F8002908F9002808FA00D82C8D
:10094000F701F801F901FA01D82CA701A809A909B2
:10095000AA09A709A70A031DB32CA80A031DB32CD3
:10096000A90A0319AA0A2618C12BA618032C2619AE
:10097000392C682C0008A807031CC42CA90A031DE5
:10098000C42CAA0A0319241484030008A907031C11
:10099000CC2CAA0A0319241484030008801F803A6F
:1009A000AA0703182414261AC82BA61A0A2C402CAE
:1009B00083120034C801C701C601C5010030F80028
:1009C0001F08C73978049F002130F700F70BE62C89
:1009D0001F151F19E92C83161E088312BF001E085D
:1009E000C000BF08031DF72CC0080319FB2C4008EA
:1009F000033C0318042D4508F7004608F800470893
:100A0000F9004808FA00972D4008CF003F08CE00B3
:100A100014227708C9007808CA007908CB007A0840
:100A2000CC00F5007908F4007808F3007708F200AC
:100A30008316A301C030A2007F30A1008830A0003F
:100A4000831231227708CD007808CE007908CF00D4
:100A50007A08D000F1007908F0007808EF007708F4
:100A6000EE00F501F4012030F3008130F2000A239A
:100A70007A08C4007908C3007808C2007708C1006A
:100A80004408F5004308F4004208F3004108F2006E
:100A90008316A301A2012030A1008130A00083129F
:100AA00031227708C9007808CA007908CB007A0893
:100AB000CC0083147A08F5007908F4007808F30074
:100AC0007708F2000A308316A300D730A200233043
:100AD000A1007C30A000831294237708CD00780811
:100AE000CE007908CF007A08D000F5007908F4002C
:100AF0007808F3007708F2005F308316A3002930EE
:100B0000A2004B30A1007730A000831231227A0876
:100B1000C8007908C7007808C6007708C5004508EE
:100B2000F7004608F8004708F9004808FA000034C2
:100B30006F08FC007308FC06FC1FA32D03110310B3
:100B4000EF1B0314D62D6F08FC007208FD006E0821
:100B5000FD020319B12DFC1FD62D0308013A8300B5
:100B6000D62D7308FD006F08FD020319BD2DFC1F73
:100B7000D62D0308013A8300D62D7408FD007008B5
:100B8000FD020319C92DFC1FD62D0308013A83006D
:100B9000D62D7508FD007108FD020319D52DFC1F27
:100BA000D62D0308013A8300D62D031000344C08DB
:100BB000B63CCC00FA014D08D000CD170310CD0C87
:100BC000CE0CCF0CFA0CF90CF80CF70CCC0BDE2D7C
:100BD000D01FF52DF709F809F909FA09F70A0319E1
:100BE000F80A0319F90A0319FA0A8A110A12622E7D
:100BF000F701F801F901FA01D401D501D601D701B5
:100C000053085204510450040319362E2030D800E2
:100C10000310CC0DCD0DCE0DCF0DD40DD50DD60DB1
:100C2000D70D53085702031D1F2E52085602031DED
:100C30001F2E51085502031D1F2E50085402031C7D
:100C4000302E5008D4025108031C510FD50252080F
:100C5000031C520FD6025308031C530FD702031470
:100C6000F70DF80DF90DFA0DD80B082E543084004D
:100C7000831300340408C4004308C6000319592E26
:100C80004208F1004108F0004008EF003F08EE0084
:100C9000F501F4012030F3008230F2000A237A08D3
:100CA000C2007908C1007808C0007708BF00C60BF1
:100CB000402E4208CF004108CE004008CD003F083A
:100CC000CC00D72D7A08C2007908C1007808C0008E
:100CD0007708BF00C21F792EC403C416BF09C0091C
:100CE000C109C209BF0A0319C00A0319C10A0319BD
:100CF000C20A3B30CB009A30CA00CA30C900C801D2
:100D00000A30C60043080319C40A4208CF0041084C
:100D1000CE004008CD003F08CC004B08D3004A0865
:100D2000D2004908D1004808D000F8250008BF00CB
:100D3000840A0008C000840A0008C100840A000870
:100D4000C200FD308407F708031DB92E430A46028E
:100D50000319B92E44080319BB2E0F394602031993
:100D6000B32E0318EB2EC41BEB2E441BBB2E2030DE
:100D7000E72E2030C405C41EC92EC4124308031D2B
:100D8000C4037708C4002D30CC00E3214408F700E9
:100D9000C40143084602031DD72E7708C4002E3035
:100DA000CC00E3214408F7002030C4050030303087
:100DB000C41EE72EC4124308031DC4037708C400F1
:100DC0002D30CC00E3214408F700C4013030F70790
:100DD0007708CC00E3214B08CF004A08CE00490831
:100DE000CD004808CC00D301D201D1010A30D00097
:100DF000F8257A08CB007908CA007808C900770876
:100E0000C800C60B852E00348E30F7006F08F8003E
:100E10006E08F900FA01EF1F122FF809F909F90A13
:100E20000319F80AF808031D1F2F7908F800F901C3
:100E30000830F702F808031D1F2FF701282F0310B1
:100E4000F81B262FF90DF80DF7031F2FEF1FF813CE
:100E500000343B08F8013A020318312F3A08F70032
:100E60003D2FF7010830BC00BA0DF70D3B087702A3
:100E70000318F700F80DBC0B342F0034780838083D
:100E8000BA006430BB0029277708B80078083030F2
:100E9000031D512FB91C582FB919582F391A20305A
:100EA000542FB91139123914F8077808CC00E3210E
:100EB0003808BA000A30BB0029277708B80078083C
:100EC0003030031D692FB9196D2F391C6D2F391A58
:100ED0002030F8077808CC00E3213030B807380814
:100EE000CC00E3210034AC08031DD12F8A1500206B
:100EF0008A117A08BE007908BD007808BC0077081E
:100F0000BB00DA247A08BA007908B9007808B8007A
:100F10007708B700F101F0013C30EF008430EE00BB
:100F20003A08F5003908F4003808F3003708F200F1
:100F30009825031CC22F28152808831687008312C2
:100F40000719B42F3E08F1003D08F0003C08EF00FF
:100F50003B08EE00F501F4013030F3008330F2007D
:100F60009825031CB42FD12FAA08031DC02F0130D0
:100F7000AA00B601281028088316870083120710DC
:100F8000B401CF2FB6080319CF2F2A0BCF2FAA01F8
:100F9000B6012810280883168700831207142A0830
:080FA000B5008A150A12472F63
:101000000830F8001F08C73978049F002130F70026
:10101000F70B08281F151F190B2883161E088312AB
:10102000BF001E08C0003F08C900C908031D1A28D8
:101030000130C900CF014908CE008A1114228A1557
:10104000F501F401F3018930F2007A088316A30058
:101050007908A2007808A1007708A0008A118312FD
:1010600031228A157708CE007808CF007908D000A1
:101070007A08D10083147A08F5007908F40078081A
:10108000F3007708F2008316A301A201A1017F30CB
:10109000A0008A11831294238A15F501E830F40028
:1010A0001930F3008C30F2007A088316A300790817
:1010B000A2007808A1007708A0008A1183123122CB
:1010C0008A157A08CD007908CC007808CB0077081B
:1010D000CA004A08F7004B08F8004C08F9004D0810
:1010E000FA007A08C4007908C3007808C2007708BB
:1010F000C1004408CC004308CB004208CA004108A4
:10110000C900D001CF014830CE008530CD00D401D8
:10111000D301D2017F30D1004C08F5004B08F40018
:101120004A08F3004908F2008316A301A2017A30AD
:10113000A1008830A0008A11831231228A15770815
:10114000D5007808D6007908D7007A08D800F100D1
:101150005708F0005608EF005508EE00CD30F500B6
:10116000CC30F4004C30F3007B30F2008A1198252B
:101170008A15031CC4284D08F7004E08F8004F08D4
:10118000F9005008FA00F32B4C08F5004B08F40066
:101190004A08F3004908F2008316A301A2017A303D
:1011A000A1008830A0008A11831231228A157708A5
:1011B000D5007808D6007908D7007A08D8005808F2
:1011C000DC005708DB005608DA005508D9005C0837
:1011D000E0005B08DF005A08DE005908DD00600807
:1011E000F1005F08F0005E08EF005D08EE00F50119
:1011F000F401F3017F30F2008A1198258A15031952
:101200005E2BFA015D30840083137A1883177E30D9
:10121000800083146008F5005F08F4005E08F300A6
:101220005D08F2008316A301A201A1017F30A00096
:101230008A11831294238A157708EE007808EF004C
:101240007908F0007A08F10083106008F5005F0863
:10125000F4005E08F3005D08F2008316A301A2010A
:10126000A1017F30A0008A11831294238A1571088E
:10127000F5007008F4006F08F3006E08F2007A08B9
:101280008316A3007908A2007808A1007708A000BF
:101290008A11831231228A157A08E0007908DF006A
:1012A0007808DE007708DD006008F1005F08F000D4
:1012B0005E08EF005D08EE006008F5005F08F400CE
:1012C0005E08F3005D08F2008A110A238A157A0885
:1012D000EC007908EB007808EA007708E900BC30F8
:1012E000F1002430F0006730EF007D30EE006C0834
:1012F000F5006B08F4006A08F3006908F2008A112F
:101300000A238A157708EE007808EF007908F000C4
:101310007A08F10083107A08F5007908F40078085B
:10132000F3007708F200E3308316A300E430A20054
:101330009030A1008230A0008A11831294238A1574
:101340007A08E4007908E3007808E2007708E10011
:101350006408F1006308F0006208EF006108EE0025
:101360006C08F5006B08F4006A08F3006908F200E5
:101370008A110A238A157708EE007808EF007908A9
:10138000F0007A08F10083107A08F5007908F4007B
:101390007808F3007708F2001C308316A30087302A
:1013A000A2005730A1008330A0008A118312942339
:1013B0008A157A08E4007908E3007808E2007708E3
:1013C000E1006408F1006308F0006208EF006108C2
:1013D000EE006C08F5006B08F4006A08F300690879
:1013E000F2008A110A238A157708EE007808EF00C8
:1013F0007908F0007A08F10083107A08F50079087E
:10140000F4007808F3007708F200AB308316A300ED
:10141000E130A2009E30A1008330A0008A11831227
:1014200094238A157A08E4007908E3007808E2003A
:101430007708E100F101F001EF017F30EE006C0868
:10144000F5006B08F4006A08F3006908F2008A11DD
:101450000A238A157708EE007808EF007908F00073
:101460007A08F10083107A08F5007908F40078080A
:10147000F3007708F200B4308316A3002A30A200EC
:101480008230A100A0008A11831294238A157A0861
:10149000E8007908E7007808E6007708E5006808C2
:1014A000F1006708F0006608EF006508EE006C08C0
:1014B000F5006B08F4006A08F3006908F2008A116D
:1014C0000A238A157708EE007808EF007908F00003
:1014D0007A08F10083107A08F5007908F40078089A
:1014E000F3007708F20080308316A3003E30A2009C
:1014F0000630A1008330A0008A11831294238A153C
:101500007A08E8007908E7007808E6007708E5003F
:101510006808F1006708F0006608EF006508EE0053
:101520006C08F5006B08F4006A08F3006908F20023
:101530008A110A238A157708EE007808EF007908E7
:10154000F0007A08F10083107A08F5007908F400B9
:101550007808F3007708F200AB308316A300E1307F
:10156000A2009E30A1008230A0008A118312942331
:101570008A157A08E8007908E7007808E600770815
:10158000E5006008F1005F08F0005E08EF005D080C
:10159000EE006408F5006308F4006208F3006108D7
:1015A000F2008A110A238A157708EE007808EF0006
:1015B0007908F0007A08F100F5007908F40078085D
:1015C000F3007708F20068088316A3008312670807
:1015D0008316A200831266088316A1008312650891
:1015E0008316A0008A11831231228A157A08E4003A
:1015F0007908E3007808E2007708E100FA01593041
:10160000840083137A1883177E300002ED00ED1FEB
:101610001C2B6D08003CEF01EE00EE1BEF038A115E
:1016200004278A157708E5007808803AE6007908EB
:10163000E7007A08E8002C2BEF016D08EE00EE1BA6
:10164000EF038A1104278A157A08E8007908E70071
:101650007808E6007708E5006808F1006708F00000
:101660006608EF006508EE001830F5007230F400EF
:101670003130F3007E30F2008A110A238A1583107C
:101680006408F5006308F4006208F3006108F200E2
:101690007A088316A3007908A2007808A1007708C9
:1016A000A0008A11831294238A157A08E40079082D
:1016B000E3007808E2007708E100622BE401E3012F
:1016C000E201E1016108F7006208F8006308F9002F
:1016D0006408FA00B030F1000630F0002530EF0069
:1016E0007330EE007A08F5007908F4007808F3000A
:1016F0007708F2008A110A238A157708D60078083D
:10170000D7007908D8007A08D900DB010408DA008C
:101710005B10831B5B1483107A08F5007908F400D2
:101720007808F3007708F20062308316A300EB30EC
:10173000A2005B30A1007630A0008A1183129423AE
:101740008A155A08840083135B1883177A08D4001B
:101750007908D3007808D2007708D100F501F401A8
:10176000F3017F30F20054088316A300831253085C
:101770008316A200831252088316A1008312510817
:101780008316A0008A11831231228A157708D500AA
:101790007808D6007908D7007A08D80083147A0828
:1017A000F5007908F4007808F3007708F200831652
:1017B000A3018030A2000830A1008730A0008A1168
:1017C000831294238A157A08D0007908CF0078080C
:1017D000CE007708CD004D08F7004E08F8004F08FE
:1017E000F9005008FA007A08C8007908C70078089C
:1017F000C6007708C5004508F7004608F800470806
:10180000F9004808FA0000344030BF008A11D621A0
:101810008A152C08FC3E0318952C043E7C2D4F3075
:10182000CC008A11E3218A154E30CC008A11E321C5
:101830008A150830B7002030CC008A11E3218A15C0
:10184000B70B1B2C0230B80038088A115D208A15AE
:10185000B80AF700CC008A11E3218A150830380253
:10186000031D242C952C4F30CC008A11E3218A15BE
:101870004630CC008A11E3218A154630CC008A110B
:10188000E3218A150730B7002030CC008A11E3210C
:101890008A15B70B442C0330B80038088A116A2027
:1018A0008A15B80AF700CC008A11E3218A1509309D
:1018B0003802031D4D2C952CB70137088A1178206A
:1018C0008A15B70AF700CC008A11E3218A15043083
:1018D0003702031D5D2C0630B8002030CC008A1181
:1018E000E3218A15B80B6D2C0430B90039088A1130
:1018F00078208A15B90AF700CC008A11E3218A15ED
:101900000A303902031D762C952CB70137088A114D
:1019100087208A15B70AF700CC008A11E3218A15BF
:1019200010303702031D862C952C290B792DA90127
:101930008A11DA248A157A08BA007908B900780879
:10194000B8007708B700BF018A11D6218A153A0876
:10195000F1003908F0003808EF003708EE00F50113
:10196000F401F301F2018A1198258A15031DC82C90
:101970004F30CC008A11E3218A152F30CC008A1118
:10198000E3218A155230CC008A11E3218A15DC2C20
:10199000013084003A08C2003908C1003808C0008C
:1019A0003708BF000130C3008A113A268A15253056
:1019B000CC008A11E3218A150D30BF008A11D6218F
:1019C0008A1500207A08BE007908BD007808BC009E
:1019D0007708BB003E08F1003D08F0003C08EF002E
:1019E0003B08EE00F501F4014830F3008530F200C9
:1019F0008A1198258A15031D0D2D4F30CC008A11B0
:101A0000E3218A152F30CC008A11E3218A15523048
:101A1000CC008A11E3218A15202D013084003E0874
:101A2000C2003D08C1003C08C0003B08BF00C30124
:101A30008A113A268A15DF30CC008A11E3218A15F3
:101A40000630BF008A11D6218A15AC08031D4B2D24
:101A5000B508031D3B2DBF013F088A11F0208A15F0
:101A6000BF0AF700CC008A11E3218A1506303F0235
:101A7000031D2C2D4A2DBF013F088A11FB208A151A
:101A8000BF0AF700CC008A11E3218A1506303F0215
:101A9000031D3C2D792D2A0B612D4F30CC008A116E
:101AA000E3218A154E30CC008A11E3218A150430D7
:101AB000BF002030CC008A11E3218A15BF0B592DBD
:101AC000792D4F30CC008A11E3218A154630CC00A5
:101AD0008A11E3218A154630CC008A11E3218A1548
:101AE0000330BF002030CC008A11E3218A15BF0BE0
:101AF000722D8A150A12442F0A148A100A158207B9
:101B00005C2C0F2C332C852C2E0B8F2D2C08AC0A23
:101B1000023C03188C2DAC01AE010130AD002C0845
:101B2000FC3E0318AD2E043EB02E2D0BAF2DAD01A3
:101B30000130AA0028102808831687008312071096
:101B400083160612831206120130B7008A11AB21E8
:101B50008A150130A900AE01B001AB01AD2E2D0BED
:101B6000C62DAD01AA01281028088316870083120C
:101B700007148316061601308312B7008A11AB21B1
:101B80008A150130A900AE01B001AD2E2D0BD42D68
:101B9000AD010130B7008A11AB218A150130A900CF
:101BA000AE01B001AB01AD2E2D0BAD2EAD0101305C
:101BB000B7008A11AB218A15BF018A11D6218A1577
:101BC000B70137088A119C208A15B70AF700CC00A4
:101BD0008A11E3218A1510303702031DE12D4030B0
:101BE000BF008A11D6218A150630B7002030CC00FC
:101BF0008A11E3218A15B70BF62D2F30B8001B3060
:101C0000B9008A113E278A152530CC008A11E321BC
:101C10008A150730B8002030CC008A11E3218A15DC
:101C2000B80B0B2E0C30B700FA30CD008A115D21B5
:101C30008A15B70B142E0130B7008A11AB218A1513
:101C4000BF018A11D6218A15B70137088A11B12040
:101C50008A15B70AF700CC008A11E3218A151030E3
:101C60003702031D252E4030BF008A11D6218A1568
:101C70000130B8001B30B9008A113E278A150230A6
:101C8000B70037088A11C6208A15B70AF700CC00BA
:101C90008A11E3218A1510303702031D412E0C30C2
:101CA000B700FA30CD008A115D218A15B70B512E8D
:101CB0000130B7008A11AB218A15BF018A11D621E4
:101CC0008A15B70137088A11DB208A15B70AF70091
:101CD000CC008A11E3218A1510303702031D622ED1
:101CE0004030BF008A11D6218A150730B700203056
:101CF000CC008A11E3218A15B70B772E1630B80075
:101D00001B30B9008A113E278A15DF30CC008A11BA
:101D1000E3218A154330CC008A11E3218A1505306E
:101D2000B8002030CC008A11E3218A15B80B912E1F
:101D30000C30B700FA30CD008A115D218A15B70B3F
:101D40009A2E0130B7008A11AB218A150130A90003
:101D5000AE01B001AB01AC01AD2E8A150A12452FC0
:101D60000A108A140A158207C62D952DAF2DD42D81
:101D7000840183131F30830583161F149F141F15BE
:101D80009F11FF308312A800A901AA01AB01AC0189
:101D9000AD01AE01AF01B001B101B201B301B401B7
:101DA000B501B601C830CD008A115D218A15063013
:101DB000F700F71DE42E0730810181308400831382
:101DC0000008C0390F3880006400813084000008AA
:101DD000C0397704800028102808831687008312F2
:101DE000071083168611831286118316061283123A
:101DF00006128A11B6218A150130B7008A11AB216B
:101E00008A158A11F6298A151430B700FA30CD00E8
:101E10008A115D218A15B70B062F0130B7008A1190
:101E2000AB218A158A11B6218A1528152808831630
:101E3000870083129701A81428088316870083124D
:101E40009D0183161F109F101F159F1183121F17CE
:101E50009F1783169F1783121F148B16C0308B0495
:101E6000AA01AD01B301AE01B001AF01B10128106B
:101E70002808831687008312071483160616831218
:101E8000AC010130A900042C842D8A11732F8A150E
:041E9000432F630079
:02400E00393F38
:00000001FF
;PIC16F876
