:1000000008308A00D72D0000FF00030E8301A100F5
:100010000A08A0008A010408A2007708A300780853
:10002000A4007908A5007A08A6007B08A70083131E
:1000300083128B1E1D280B193028220884002308E8
:10004000F7002408F8002508F9002608FA00270818
:10005000FB0020088A00210E8300FF0E7F0E09009E
:100060008A110A1277290A108A100A11820720348D
:10007000423441344434453456344934463454349B
:1000800045342034763433342E343134343400342F
:100090000A108A100A1182074B3465346E346E34AC
:1000A00079342034323432342E34313430342E34F6
:1000B000323430343034373400340A108A100A11A4
:1000C00082074F344E344E346534783474342D34D2
:1000D0003E3400340A108A100A1182074F34463425
:1000E00046344E346534783474342D343E34003420
:1000F0000A108A100A1182074134553454344F349F
:100100004E346534783474342D343E3400340A105F
:100110008A100A118207443465346C3461347934AE
:10012000653464344E346534783474342D343E345C
:1001300000340A108A100A118207203448347534BA
:100140006D346934643469347434793420346C34F3
:1001500069346D3469347434203400340A108A10E0
:100160000A118207253475342534633420342D3444
:100170002034643465346634613475346C347434DA
:100180002B343134303400340A108A100A118207BB
:100190004D3469346E3469346D3475346D342034C3
:1001A000723475346E342034743469346D3465348B
:1001B00000340A108A100A118207253475346D3410
:1001C00069346E34203469346634203441347534F3
:1001D00074346F3420344F344E3400340A108A1093
:1001E0000A11F53E03188A0A82004E346F347434C3
:1001F0002034723475346E342034693466342034DB
:1002000075346E3464346534723400340A148A10E0
:100210000A1182075734683465346E3420346134EF
:10022000753474346F3420346D346F346434653411
:100230003A3400340A148A100A1182074E346F349B
:10024000203463346834653463346B3420346F3461
:100250006E342034743465346D34703400340A14D0
:100260008A100A11820743346834653463346B346E
:1002700020346F346E342034743465346D3470340B
:1002800000340A148A100A118207443465346C342D
:1002900061347934653464342034723475346E34A6
:1002A0002034743469346D34653400340A148A108F
:1002B0000A1182074134553420344F3446344634D1
:1002C00000340A148A100A1182074134553420344C
:1002D0004F344E34203400340A148A100A11820735
:1002E000203420344F344E342034203400342B0852
:1002F000AB0A3C3C0318C029AB013208B20A033CEC
:10030000031D8529B2010130A900AC08031D9829FD
:100310002A0B9829BA08031D98293608B60AB43C56
:10032000031D96290130BA00A9009729BA0199291D
:10033000B6012C08033C031DAD292A0BAD29BA08D0
:10034000031DAD293708B70AB43C031DAB290130A2
:10035000BA00A900AC29BA01AE29B7012A0BBD2900
:100360000130B306330BB929831606128312061225
:10037000BC29831606168312C0298316061683121B
:10038000A81428088316870083128718CD292F0800
:100390007F3C031CCC29AF0AE6292F08023C031836
:1003A000E5292F08803C031DD8298A010028E5296A
:1003B0002F083F3C0318E3292F087F3C031CE32947
:1003C0000130B500E5290130AE00AF0104308100F5
:1003D0000B118A110A121D28513084008313000862
:1003E0000319FF290230F800F701F70BF529F80B84
:1003F000F4299730F700F70BFB29800BF229003422
:100400005118042A8711052A8715A8112808831670
:1004100087008312D1180E2A07120F2A07162812F6
:1004200028088316870083125119182A8712192A5F
:100430008716A8122808831687008312D119222A4A
:100440000713232A07172813280883168700831207
:10045000003483168612831286160630F700F70BD7
:100460002F2A000083168612831286120530D100CF
:10047000EC210034BB0E3B08D10000222922BB0E28
:100480003B08D100002229220034D1010022C830CB
:10049000D100EC2183160613831206130330D1001A
:1004A00000222922292229220230D10000222922D9
:1004B0002C30BB003A220C30BB003A220130BB008A
:1004C0003A220630BB003A220034C30E43080838F3
:1004D000C400D10000222922C30E4308D10000220B
:1004E000292200348316061383120617D00E5008F3
:1004F000D10000222922D00E5008D100002229224A
:1005000083160613831206130034C3016522BB0150
:100510003B083320BB0AF700D000722210303B02A8
:10052000031D882A4030C3006522BB013B084820D8
:10053000BB0AF700D000722210303B02031D962A3E
:100540008A150A12262E3F08F8013E020318AB2A2C
:100550003E08F700B72AF7010830C000BE0DF70DBE
:100560003F0877020318F700F80DC00BAE2A0034DD
:1005700078083C08BE006430BF00A3227708BC00A6
:1005800078083030031DCB2ABD1CD22ABD19D22ACF
:100590003D1A2030CE2ABD113D123D14F8077808CF
:1005A000D00072223C08BE000A30BF00A3227708A8
:1005B000BC0078083030031DE32ABD19E72A3D1C32
:1005C000E72A3D1A2030F8077808D0007222303030
:1005D000BC073C08D000722200348E30F700570868
:1005E000F8005608F900FA01F808031D012B7908F4
:1005F000F800F9010830F702F808031D012BF70194
:10060000092B0310F81B082BF90DF80DF703012B2C
:10061000F8130034831624080319D02BB0002808DF
:100620000319D02BB002031C1A2B7F30B00703181C
:10063000D02B202B8130B002031CD02B0319D02BE0
:100640003008F700F801F901FA01AF012508AE0002
:10065000AE172608AD002708AC001930B0002B08F3
:10066000AC020318432B0130AD020318432BAE023A
:100670000318432BAF020318432BAF0AAE0AAD0A8F
:100680002B08AC07752B2A08AD0203185E2B01302E
:10069000AE0203185E2BAF0203185E2BAF0AAE0A40
:1006A0002A08AD072B08AC07031C752BAD0A031DE8
:1006B000752BAE0A031D752BAF0A752B29088038E0
:1006C000AE020318742B0130AF020318742BAF0A6B
:1006D00029088038AE072A08AD07031C522BAE0A42
:1006E000031D522BAF0A522B7A14B00B782B832B9D
:1006F0000310AC0DAD0DAE0DAF0D0310FA0DF90DDD
:10070000F80DB10D2F2B311C8B2B0310F80CF90CAD
:10071000FA0CB10C8E2BF7030319D02BB11BB72B9E
:100720000310AC0DAD0DAE0DAF0D2B08AC020318D0
:10073000A32B0130AD020318A32BAE020318A32B89
:10074000AF02031CC62B2A08AD020318AE2B0130E2
:10075000AE020318AE2BAF02031CC62B290880384B
:10076000AE020318B72B0130AF02031CC62BFA0AE6
:10077000031DC62BF90A031DC62BF80A031DC62B41
:10078000F70A0319D02BF80CF90CFA0C2508B00065
:100790002908B006B01FCE2BF817D42BF813D42B92
:1007A000F701F801F901FA018312003483162008D9
:1007B0000319472CA80024080319472CA80703187D
:1007C000E82B7F30A802031C472C0319472CEC2B85
:1007D0008130A8070318472C2808F700F801F90111
:1007E000FA012108AC00AC172208AB002308AA00CC
:1007F0001830A800A9012A1C152C2708FA07031C89
:10080000072CF90A031D072CF80A0319A917260853
:10081000F907031C0E2CF80A0319A9172508A200D2
:10082000A2172208F8070318A917A90DF80CF90C4C
:10083000FA0CAC0CAB0CAA0C0310A80BFA2B013071
:10084000F7070318472CF81B2C2CAC0DFA0DF90DEB
:10085000F80DF7030319472CAC1F3D2CFA0A031DB2
:100860003D2CF90A031D3D2CF80A031D3D2CF80C04
:10087000F90CFA0CF70A0319472C2108A9002508DE
:10088000A906A91F452CF8174B2CF8134B2CF70180
:10089000F801F901FA01831200348030831C532CD3
:1008A0008316A90683128316AE01AF012508AD0099
:1008B0002908AD0624080319412DAC00F7002808CB
:1008C00003194A2DAC020319E62C031CA42C290899
:1008D000B200B2172A08B1002B08B000AF01031014
:1008E000B20CB10CB00CAF0CAC0B6E2CAD1F7B2C52
:1008F0002E145E2D2E102C102E16A730840083137C
:10090000732D2E12AD1B8E2C2C1C992CB20CB10CFD
:10091000B00CAF0CF70A0319592D992CB21B9C2C63
:100920000310AF0DB00DB10DB20DF7030319592D22
:100930008E2C2E17062D2E132508AD00AD1FA22CD0
:10094000B217522DB213522D2808AC00F70024081C
:10095000AC022508B200B2172608B1002708B00083
:10096000AF010310B20CB10CB00CAF0CAC0BB02C3F
:10097000AD1FBD2CAE145E2DAE102C10AE16AB30DC
:1009800084008313732DAE12AD1BD02C2C1CDB2CDA
:10099000B20CB10CB00CAF0CF70A0319592DDB2CBB
:1009A000B21BDE2C0310AF0DB00DB10DB20DF7036D
:1009B0000319592DD02CAE17062DAE132908AD0002
:1009C000AD1FE42CB217522DB213522D2908B200DC
:1009D000B2172A08B1002B08B000AD1FF32CB213D8
:1009E0002E155E2D2E11AF012C10A730840083131D
:1009F000732DAD1B1C2D2508AD002C1C062DB20C33
:100A0000B10CB00CAF0CF70A0319592DAF1F172DFD
:100A1000B00A031D172DB10A031D172DB20A031DBD
:100A2000172DB20CB10CB00CF70A0319592D2E1B5F
:100A30009B2CAE1BDD2C3B2D8030B206B21F242D2B
:100A40005E2D2908AD00312D2508AD00B208031D2B
:100A5000312DB108031D312DB008031D312DF701D3
:100A6000522DB21B3B2D0310AF0DB00DB10DB20DC9
:100A7000F70B312D592DAD1F3F2DB217522DB2134B
:100A8000522D2808F7002908B2002A08B1002B08C7
:100A9000B000522D2408F7002508B2002608B10046
:100AA0002708B0003208F8003108F9003008FA00D1
:100AB000912DF701F801F901FA01912DAF01B0096B
:100AC000B109B209AF09AF0A031D6C2DB00A031DAD
:100AD0006C2DB10A0319B20A2E187A2CAE18BC2C50
:100AE0002E19F22C212D0008B007031C7D2DB10A10
:100AF000031D7D2DB20A03192C1484030008B107CD
:100B0000031C852DB20A03192C1484030008801FCE
:100B1000803AB20703182C142E1A812CAE1AC32C5B
:100B2000F92C83120034D001CF01CE01CD01003069
:100B3000F8001F08C73978049F002130F700F70B31
:100B40009F2D1F151F19A22D83161E088312C70083
:100B50001E08C800C708031DB02DC8080319B42D0E
:100B60004808033C0318BD2D4D08F7004E08F80057
:100B70004F08F9005008FA00702E4808D7004708BF
:100B8000D600ED227708D1007808D2007908D3008A
:100B90007A08D4008316A700831279088316A6006A
:100BA000831278088316A500831277088316A400A1
:100BB000AB01C030AA007F30A9008830A8008312A2
:100BC0000A237708D5007808D6007908D7007A0874
:100BD000D8008316A300831279088316A20083121B
:100BE00078088316A100831277088316A000A70156
:100BF000A6012030A5008130A4008312D6237A08F4
:100C0000CC007908CB007808CA007708C9004C08E6
:100C10008316A70083124B088316A60083124A0886
:100C20008316A500831249088316A400AB01AA010C
:100C30002030A9008130A80083120A237708D10050
:100C40007808D2007908D3007A08D40083147A088F
:100C50008316A700831279088316A60083127808EA
:100C60008316A500831277088316A4000A30AB0010
:100C7000D730AA002330A9007C30A80083124D246D
:100C80007708D5007808D6007908D7007A08D80008
:100C90008316A700831279088316A60083127808AA
:100CA0008316A500831277088316A4005F30AB007B
:100CB0002930AA004B30A9007730A80083120A23FC
:100CC0007A08D0007908CF007808CE007708CD00E8
:100CD0004D08F7004E08F8004F08F9005008FA00D8
:100CE000003483162108A8002508A806A81F7D2E19
:100CF00003110310A11B0314B02E2108A80024081F
:100D0000A9002008A90203198B2EA81FB02E0308E2
:100D1000013A8300B02E2508A9002108A902031971
:100D2000972EA81FB02E0308013A8300B02E260884
:100D3000A9002208A9020319A32EA81FB02E030898
:100D4000013A8300B02E2708A9002308A90203193D
:100D5000AF2EA81FB02E0308013A8300B02E031057
:100D6000831200345008B63CD000FA015108D40078
:100D7000D1170310D10CD20CD30CFA0CF90CF80CCF
:100D8000F70CD00BB92ED41FD02EF709F809F909AA
:100D9000FA09F70A0319F80A0319F90A0319FA0AF2
:100DA0008A110A12452FF701F801F901FA01D80159
:100DB000D901DA01DB01570856045504540403191C
:100DC000112F2030DC000310D00DD10DD20DD30D2A
:100DD000D80DD90DDA0DDB0D57085B02031DFA2E75
:100DE00056085A02031DFA2E55085902031DFA2E01
:100DF00054085802031C0B2F5408D8025508031C32
:100E0000550FD9025608031C560FDA025708031C67
:100E1000570FDB020314F70DF80DF90DFA0DDC0B7B
:100E2000E32E58308400831300340408C8004708B8
:100E3000CA0003193C2F46088316A30083124508F5
:100E40008316A200831244088316A100831243086C
:100E50008316A000A701A6012030A5008230A400BF
:100E60008312D6237A08C6007908C5007808C40022
:100E70007708C300CA0B1B2F4608D3004508D200D1
:100E80004408D1004308D000B22E7A08C600790881
:100E9000C5007808C4007708C300C61F5C2FC803CC
:100EA000C816C309C409C509C609C30A0319C40A77
:100EB0000319C50A0319C60A3B30CF009A30CE0089
:100EC000CA30CD00CC010A30CA0047080319C80A4D
:100ED0004608D3004508D2004408D1004308D0009A
:100EE0004F08D7004E08D6004D08D5004C08D40056
:100EF000D3260008C300840A0008C400840A00083E
:100F0000C500840A0008C600FD308407F708031DE9
:100F10009C2F470A4A0203199C2F480803199E2F49
:100F20000F394A020319962F0318CE2FC81BCE2F54
:100F3000481B9E2F2030CA2F2030C805C81EAC2F5A
:100F4000C8124708031DC8037708C8002D30D00019
:100F500072224808F700C80147084A02031DBA2F49
:100F60007708C8002E30D00072224808F7002030E1
:100F7000C80500303030C81ECA2FC8124708031DEC
:100F8000C8037708C8002D30D00072224808F70047
:100F9000C8013030F7077708D00072224F08D3001D
:100FA0004E08D2004D08D1004C08D000D701D60120
:100FB000D5010A30D400D3267A08CF007908CE00B4
:0E0FC0007808CD007708CC00CA0B682F0034EB
:101000008E30F70083162108F8002008F900FA0155
:10101000A11F0F28F809F909F90A0319F80AF808B5
:10102000031D1C287908F800F9010830F702F808B8
:10103000031D1C28F70125280310F81B2328F90D90
:10104000F80DF7031C28A11FF81383120034083091
:10105000F8001F08C73978049F002130F700F70B0C
:101060002F281F151F19322883161E088312C70048
:101070001E08C8004708D100D108031D41280130CF
:10108000D100D7015108D6008A11ED228A158316A6
:10109000A701A601A5018930A4007A08AB00790850
:1010A000AA007808A9007708A8008A1183120A23E9
:1010B0008A157708D6007808D7007908D8007A080A
:1010C000D90083147A088316A7008312790883163F
:1010D000A600831278088316A5008312770883166A
:1010E000A400AB01AA01A9017F30A8008A118312D4
:1010F0004D248A158316A701E830A6001930A500F3
:101100008C30A4007A08AB007908AA007808A900FE
:101110007708A8008A1183120A238A157A08D50055
:101120007908D4007808D3007708D2005208F70075
:101130005308F8005408F9005508FA007A08CC0062
:101140007908CB007808CA007708C9004C08D40099
:101150004B08D3004A08D2004908D100D801D70172
:101160004830D6008530D500DC01DB01DA017F3064
:10117000D90054088316A700831253088316A600CB
:10118000831252088316A500831251088316A40007
:10119000AB018030AA006D30A9008830A8008A1108
:1011A00083120A238A157708DD007808DE007908A3
:1011B000DF007A08E0008316A30083125F0883161D
:1011C000A20083125E088316A10083125D088316B5
:1011D000A000CD30A700CC30A6004C30A5007B305D
:1011E000A4008A11831271268A15031C0029550850
:1011F000F7005608F8005708F9005808FA00AE2C16
:1012000054088316A700831253088316A60083127E
:1012100052088316A500831251088316A400AB015F
:101220008030AA006D30A9008830A8008A1183128E
:101230000A238A157708DD007808DE007908DF00C8
:101240007A08E0006008E4005F08E3005E08E2005E
:101250005D08E1006408E8006308E7006208E60052
:101260006108E50068088316A300831267088316E7
:10127000A200831266088316A100831265088316F4
:10128000A000A701A601A5017F30A4008A11831246
:1012900071268A150319092CFA016530840083131D
:1012A0007A1883177E308000831468088316A7009D
:1012B000831267088316A600831266088316A500AA
:1012C000831265088316A400AB01AA01A9017F302F
:1012D000A8008A1183124D248A1577088316A0006E
:1012E0007808A1007908A2007A08A300831083126D
:1012F00068088316A700831267088316A600831266
:1013000066088316A500831265088316A400AB0146
:10131000AA01A9017F30A8008A1183124D248A15E1
:1013200083162308A7002208A6002108A50020088C
:10133000A4007A08AB007908AA007808A900770809
:10134000A8008A1183120A238A157A08E80079080E
:10135000E7007808E6007708E50068088316A30030
:10136000831267088316A200831266088316A10001
:10137000831265088316A000831268088316A700ED
:10138000831267088316A600831266088316A500D9
:10139000831265088316A4008A118312D6238A1546
:1013A0007A08F4007908F3007808F2007708F10071
:1013B000BC308316A3002430A2006730A1007D302A
:1013C000A0007408A7007308A6007208A5007108A1
:1013D000A4008A118312D6238A1577088316A000E9
:1013E0007808A1007908A2007A08A30083102308D6
:1013F000A7002208A6002108A5002008A400E330C9
:10140000AB00E430AA009030A9008230A8008A1115
:1014100083124D248A157A08EC007908EB007808CD
:10142000EA007708E9006C088316A30083126B08B2
:101430008316A20083126A088316A100831269082A
:101440008316A0007408A7007308A6007208A50000
:101450007108A4008A118312D6238A15770883168F
:10146000A0007808A1007908A2007A08A3008310E0
:101470002308A7002208A6002108A5002008A40030
:101480001C30AB008730AA005730A9008330A80079
:101490008A1183124D248A157A08EC007908EB0032
:1014A0007808EA007708E9006C088316A300831225
:1014B0006B088316A20083126A088316A1008312A8
:1014C00069088316A0007408A7007308A6007208B4
:1014D000A5007108A4008A118312D6238A15770803
:1014E0008316A0007808A1007908A2007A08A3005A
:1014F00083102308A7002208A6002108A5002008C1
:10150000A400AB30AB00E130AA009E30A9008330CC
:10151000A8008A1183124D248A157A08EC007908F4
:10152000EB007808EA007708E9008316A301A2011E
:10153000A1017F30A0007408A7007308A6007208FC
:10154000A5007108A4008A118312D6238A15770892
:101550008316A0007808A1007908A2007A08A300E9
:1015600083102308A7002208A6002108A500200850
:10157000A400B430AB002A30AA008230A900A80031
:101580008A1183124D248A157A08F0007908EF0039
:101590007808EE007708ED0070088316A300831228
:1015A0006F088316A20083126E088316A1008312AF
:1015B0006D088316A0007408A7007308A6007208BF
:1015C000A5007108A4008A118312D6238A15770812
:1015D0008316A0007808A1007908A2007A08A30069
:1015E00083102308A7002208A6002108A5002008D0
:1015F000A4008030AB003E30AA000630A900833042
:10160000A8008A1183124D248A157A08F0007908FF
:10161000EF007808EE007708ED0070088316A3004D
:1016200083126F088316A20083126E088316A1002E
:1016300083126D088316A0007408A7007308A60023
:101640007208A5007108A4008A118312D6238A1596
:1016500077088316A0007808A1007908A2007A080C
:10166000A30083102308A7002208A6002108A500D4
:101670002008A400AB30AB00E130AA009E30A900E6
:101680008230A8008A1183124D248A157A08F0004E
:101690007908EF007808EE007708ED0068088316F7
:1016A000A300831267088316A200831266088316BC
:1016B000A100831265088316A00083126C088316AC
:1016C000A70083126B088316A60083126A0883168C
:1016D000A500831269088316A4008A118312D623F9
:1016E0008A1577088316A0007808A1007908A2005F
:1016F0007A08A300A7002208A6002108A500200858
:10170000A4007008AB0083126F088316AA0083122E
:101710006E088316A90083126D088316A8008A112B
:1017200083120A238A157A08EC007908EB007808FE
:10173000EA007708E900FA016130840083137A181F
:1017400083177E300002F500F51FB92B7508003CA9
:101750008316A101A000A01BA1038312002077081B
:10176000ED007808803AEE007908EF007A08F00082
:10177000C92B8316A1017508A000A01BA103831229
:1017800000207A08F0007908EF007808EE0077086A
:10179000ED0070088316A30083126F088316A20061
:1017A00083126E088316A10083126D088316A000B1
:1017B0001830A7007230A6003130A5007E30A4009A
:1017C0008A118312D6238A1583106C088316A7000A
:1017D00083126B088316A60083126A088316A5007D
:1017E000831269088316A4007A08AB007908AA005E
:1017F0007808A9007708A8008A1183124D248A1559
:101800007A08EC007908EB007808EA007708E9002C
:101810000D2CEC01EB01EA01E9016908F7006A0807
:10182000F8006B08F9006C08FA00B0308316A300CA
:101830000630A2002530A1007330A0007A08A7006E
:101840007908A6007808A5007708A4008A118312F9
:10185000D6238A157708DE007808DF007908E000D3
:101860007A08E100E3010408E2006310831B6314BB
:1018700083107A088316A700831279088316A600BE
:10188000831278088316A500831277088316A400B4
:101890006230AB00EB30AA005B30A9007630A800C4
:1018A0008A1183124D248A156208840083136318F9
:1018B00083177A08DC007908DB007808DA007708FB
:1018C000D9008316A701A601A5017F30A4008312C9
:1018D0005C088316AB0083125B088316AA00831290
:1018E0005A088316A900831259088316A8008A1182
:1018F00083120A238A157708DD007808DE0079084C
:10190000DF007A08E00083147A088316A7008312A8
:1019100079088316A600831278088316A50083121F
:1019200077088316A400AB018030AA000830A90014
:101930008730A8008A1183124D248A157A08D800AE
:101940007908D7007808D6007708D5005508F70041
:101950005608F8005708F9005808FA007A08D0002D
:101960007908CF007808CE007708CD004D08F70041
:101970004E08F8004F08F9005008FA0000342E0B0A
:10198000CA2C2C08AC0A023C0318C72CAC01AE01CF
:101990000130AD002C08FC3E0318182D043E1B2D11
:1019A0002D0BE62CAD010130AA0028102808831663
:1019B0008700831207100130BB008A113A228A1572
:1019C0000130A900AE01B001AB01182D2D0BFA2C8E
:1019D000AD01AA0128102808831687008312071476
:1019E0000130BB008A113A228A150130A900AE01EC
:1019F000B001182D2D0B092DAD010130BA00BB002F
:101A00008A113A228A150130A900AE01B001AB015A
:101A1000182D2D0B182DAD01BA010130BB008A1114
:101A20003A228A150130A900AE01B001AB01182D90
:101A30008A150A12742E0A148A100A158207FA2CC3
:101A4000D02CE62C092DAC08031DB12D27207A08D7
:101A5000C2007908C1007808C0007708BF008A1169
:101A600093258A157A08BE007908BD007808BC0065
:101A70007708BB00831605168312051A462DC6018A
:101A8000C5016430C4008430C3004C2DC601C501BB
:101A90003C30C4008430C30046088316A300831280
:101AA00045088316A200831244088316A1008312FE
:101AB00043088316A00083123E088316A7008312F2
:101AC0003D088316A60083123C088316A5008312E6
:101AD0003B088316A4008A11831271268A15031C01
:101AE000A22D281528088316870083120719942D24
:101AF00042088316A300831241088316A2008312B2
:101B000040088316A10083123F088316A000A70196
:101B1000A6013030A5008330A4008A1183127126FB
:101B20008A15031C942DB12DAA08031DA02D013088
:101B3000AA00BA012810280883168700831207100C
:101B4000B601AF2DBA080319AF2D2A0BAF2DAA018C
:101B5000BA012810280883168700831207142A0860
:101B6000B8008A150A12752E2C08033C031DD42DCB
:101B7000BA08031DC72DAA08031DC62D0130AA00EF
:101B8000281028088316870083120710D22D2A0BED
:101B9000D12DAA01BA0128102808831687008312C4
:101BA0000714AC012A08B9008A150A12762E84019E
:101BB00083131F30830583161F149F141F159F1155
:101BC000FF308312A800A901AA01AB01AC01AD014D
:101BD000AE01AF01B001B101B201B301B401B50171
:101BE000B601B701B801B901BA01C830D1008A11F4
:101BF000EC218A150630F700F71D072E073081010A
:101C00008130840083130008C0390F3880006400DD
:101C1000813084000008C03977048000281028082B
:101C2000831687008312071083168611831286118C
:101C300083160612831206128A1145228A15013074
:101C4000BB008A113A228A158A11852A8A15143016
:101C5000BB00FA30D1008A11EC218A15BB0B292E6A
:101C60000130BB008A113A228A158A1145228A1551
:101C7000281528088316870083129701A8142808BE
:101C80008316870083129D0183161F109F101F1556
:101C90009F1183121F179F1783169F1783121F14FC
:101CA0008B16C0308B04AA01AD01B301B401B5019C
:101CB000AE01B001AF01B1012810280883168700DA
:101CC0008312071483160616051683122815280892
:101CD000831687008312AC010130A9000A168A110D
:101CE00000280A128A15BF2C232DB42D6E2E6300F6
:102000004030C3000A1265220A162C08FC3E031851
:10201000AA28043E3C2B4F30D0000A1272220A1626
:102020004E30D0000A1272220A160830BB0020304F
:10203000D0000A1272220A16BB0B17280230BC000D
:102040003C080A125D200A16BC0AF700D0000A12EA
:1020500072220A1608303C02031D2028AA284F309D
:10206000D0000A1272220A164630D0000A127222DA
:102070000A164630D0000A1272220A160730BB0038
:102080002030D0000A1272220A16BB0B40280330FF
:10209000BC003C080A126A200A16BC0AF700D000ED
:1020A0000A1272220A1609303C02031D4928AA2886
:1020B000BB013B080A1278200A16BB0AF700D000C1
:1020C0000A1272220A1604303B02031D59280630F8
:1020D000BC002030D0000A1272220A16BC0B6928FC
:1020E0000430BD003D080A1278200A16BD0AF70028
:1020F000D0000A1272220A160A303D02031D72280D
:10210000AA28BB013B080A1287200A16BB0AF7005F
:10211000D0000A1272220A1607303B02031D8228E1
:102120000330BC002030D0000A1272220A16BC0B09
:1021300092280730BD003D080A1287200A16BD0A02
:10214000F700D0000A1272220A160D303D02031D5C
:102150009B28AA28350B452AB5018B120B138B132C
:102160008B1BAF280130BB000A123A220A16C301AA
:102170000A1265220A16BB013B080A1299200A16A8
:10218000BB0AF700D0000A1272220A1610303B0276
:10219000031DBC284030C3000A1265220A168316AC
:1021A00005168312051AF1283930BC001B30BD001A
:1021B0000A12B8220A162530D0000A1272220A1614
:1021C0000430BB003B080A12AE200A16BB0AF70017
:1021D000D0000A1272220A1611303B02031DE228B7
:1021E0000F290630BB002030D0000A1272220A16D6
:1021F000BB0BF3282F30BC001B30BD000A12B822E5
:102200000A162530D0000A1272220A160730BC00C6
:102210002030D0000A1272220A16BC0B08290C309A
:10222000BB00FA30D1000A12EC210A16BB0B1129AF
:102230000130BB000A123A220A16C3010A126522B3
:102240000A16BB013B080A12C4200A16BB0AF70093
:10225000D0000A1272220A1610303B02031D2229F6
:102260004030C3000A1265220A160330BC001B303E
:10227000BD000A12B8220A160230BB003B080A123F
:10228000D9200A16BB0AF700D0000A1272220A16D9
:1022900010303B02031D3E290C30BB00FA30D10048
:1022A0000A12EC210A16BB0B4E290130BB000A12A0
:1022B0003A220A16C3010A1265220A16BB013B081C
:1022C0000A12EE200A16BB0AF700D0000A12722288
:1022D0000A1610303B02031D5F294030C3000A126A
:1022E00065220A160730BB002030D0000A12722285
:1022F0000A16BB0B74291630BC001B30BD000A1235
:10230000B8220A16DF30D0000A1272220A164330B1
:10231000D0000A1272220A160530BC002030D0000C
:102320000A1272220A16BC0B8E290C30BB00FA303E
:10233000D1000A12EC210A16BB0B97290130BB0011
:102340000A123A220A16C3010A1265220A16BB01B2
:102350003B080A1206210A16BB0AF700D0000A122F
:1023600072220A160F303B02031DA8294030C30019
:102370000A1265220A162815280883168700831278
:102380000719D229BB013B080A121A210A16BB0AF7
:10239000F700D0000A1272220A1610303B02031D09
:1023A000C329EA29BB013B080A122F210A16BB0ADE
:1023B000F700D0000A1272220A160D303B02031DEC
:1023C000D3290330BC002030D0000A1272220A1632
:1023D000BC0BE3290C30BB00FA30D1000A12EC210F
:1023E0000A16BB0BEC290130BB000A123A220A166E
:1023F000C3010A1265220A16BB013B080A124121D9
:102400000A16BB0AF700D0000A1272220A16103010
:102410003B02031DFD294030C3000A1265220A1643
:102420000330BC001B30BD000A12B8220A166D3002
:10243000D0000A1272220A166930D0000A127222E3
:102440000A166E30D0000A1272220A160B30BB0038
:102450002030D0000A1272220A16BB0B282A0C3038
:10246000BB00FA30D1000A12EC210A16BB0B312A4C
:102470000130BB000A123A220A160130A900AE014F
:10248000B001AB018B16C0308B04290B392BA9018D
:102490000A1293250A167A08BE007908BD0078084A
:1024A000BC007708BB00C3010A1265220A163E0869
:1024B0008316A30083123D088316A20083123C08F2
:1024C0008316A10083123B088316A000A701A60172
:1024D000A501A4010A12831271260A16031D802A7F
:1024E0004F30D0000A1272220A162F30D0000A1282
:1024F00072220A165230D0000A1272220A16942A48
:10250000013084003E08C6003D08C5003C08C400F8
:102510003B08C3000130C7000A1215270A162530F0
:10252000D0000A1272220A160D30C3000A12652268
:102530000A160A128A1527200A168A117A08C2007A
:102540007908C1007808C0007708BF0042088316E8
:10255000A300831241088316A20083124008831649
:10256000A10083123F088316A000A701A6014830EE
:10257000A5008530A4000A12831271260A16031DD5
:10258000D12A4F30D0000A1272220A162F30D00002
:102590000A1272220A165230D0000A1272220A1649
:1025A000E42A013084004208C6004108C500400802
:1025B000C4003F08C300C7010A1215270A16DF30FE
:1025C000D0000A1272220A160630C3000A126522CF
:1025D0000A16AC08031D0F2BB808031DFF2AC30100
:1025E00043080A1256210A16C30AF700D0000A123D
:1025F00072220A1606304302031DF02A0E2BC30175
:1026000043080A1261210A16C30AF700D0000A1211
:1026100072220A1606304302031D002B392B2A0BA7
:10262000212BC30143080A126C210A16C30AF700C2
:10263000D0000A1272220A1606304302031D122B22
:10264000392B4F30D0000A1272220A164630D000C1
:102650000A1272220A164630D0000A1272220A1694
:102660000330C3002030D0000A1272220A16C30BB6
:10267000322B8A150A12712E0A148A140A11820743
:0826800058280B282F2881289F
:02400E00393F38
:00000001FF
;PIC16F876
